{
	"AgroPay.sol": {
		"AgroEscrow": {
			"abi": [
				{
					"anonymous": false,
					"inputs": [
						{
							"indexed": true,
							"internalType": "uint256",
							"name": "dealId",
							"type": "uint256"
						},
						{
							"indexed": true,
							"internalType": "address",
							"name": "buyer",
							"type": "address"
						},
						{
							"indexed": true,
							"internalType": "address",
							"name": "seller",
							"type": "address"
						},
						{
							"indexed": false,
							"internalType": "address",
							"name": "token",
							"type": "address"
						},
						{
							"indexed": false,
							"internalType": "uint256",
							"name": "price",
							"type": "uint256"
						},
						{
							"indexed": false,
							"internalType": "uint64",
							"name": "deadline",
							"type": "uint64"
						},
						{
							"indexed": false,
							"internalType": "string",
							"name": "commodity",
							"type": "string"
						},
						{
							"indexed": false,
							"internalType": "uint256",
							"name": "quantityKg",
							"type": "uint256"
						}
					],
					"name": "DealCreated",
					"type": "event"
				},
				{
					"anonymous": false,
					"inputs": [
						{
							"indexed": true,
							"internalType": "uint256",
							"name": "dealId",
							"type": "uint256"
						}
					],
					"name": "Delivered",
					"type": "event"
				},
				{
					"anonymous": false,
					"inputs": [
						{
							"indexed": true,
							"internalType": "uint256",
							"name": "dealId",
							"type": "uint256"
						},
						{
							"indexed": false,
							"internalType": "uint256",
							"name": "amount",
							"type": "uint256"
						}
					],
					"name": "Funded",
					"type": "event"
				},
				{
					"anonymous": false,
					"inputs": [
						{
							"indexed": true,
							"internalType": "uint256",
							"name": "dealId",
							"type": "uint256"
						},
						{
							"indexed": false,
							"internalType": "uint256",
							"name": "amount",
							"type": "uint256"
						},
						{
							"indexed": false,
							"internalType": "address",
							"name": "to",
							"type": "address"
						}
					],
					"name": "Refunded",
					"type": "event"
				},
				{
					"anonymous": false,
					"inputs": [
						{
							"indexed": true,
							"internalType": "uint256",
							"name": "dealId",
							"type": "uint256"
						},
						{
							"indexed": false,
							"internalType": "uint256",
							"name": "amount",
							"type": "uint256"
						},
						{
							"indexed": false,
							"internalType": "address",
							"name": "to",
							"type": "address"
						}
					],
					"name": "Released",
					"type": "event"
				},
				{
					"inputs": [
						{
							"internalType": "uint256",
							"name": "dealId",
							"type": "uint256"
						}
					],
					"name": "confirmDelivery",
					"outputs": [],
					"stateMutability": "nonpayable",
					"type": "function"
				},
				{
					"inputs": [
						{
							"internalType": "address",
							"name": "_buyer",
							"type": "address"
						},
						{
							"internalType": "address",
							"name": "_seller",
							"type": "address"
						},
						{
							"internalType": "string",
							"name": "_commodity",
							"type": "string"
						},
						{
							"internalType": "uint256",
							"name": "_quantityKg",
							"type": "uint256"
						},
						{
							"internalType": "uint256",
							"name": "_price",
							"type": "uint256"
						},
						{
							"internalType": "uint64",
							"name": "_deadline",
							"type": "uint64"
						},
						{
							"internalType": "address",
							"name": "_token",
							"type": "address"
						}
					],
					"name": "createDeal",
					"outputs": [
						{
							"internalType": "uint256",
							"name": "dealId",
							"type": "uint256"
						}
					],
					"stateMutability": "nonpayable",
					"type": "function"
				},
				{
					"inputs": [
						{
							"internalType": "uint256",
							"name": "",
							"type": "uint256"
						}
					],
					"name": "deals",
					"outputs": [
						{
							"internalType": "address",
							"name": "buyer",
							"type": "address"
						},
						{
							"internalType": "address",
							"name": "seller",
							"type": "address"
						},
						{
							"internalType": "address",
							"name": "token",
							"type": "address"
						},
						{
							"internalType": "uint256",
							"name": "price",
							"type": "uint256"
						},
						{
							"internalType": "uint64",
							"name": "deadline",
							"type": "uint64"
						},
						{
							"internalType": "enum AgroEscrow.Status",
							"name": "status",
							"type": "uint8"
						},
						{
							"internalType": "string",
							"name": "commodity",
							"type": "string"
						},
						{
							"internalType": "uint256",
							"name": "quantity",
							"type": "uint256"
						}
					],
					"stateMutability": "view",
					"type": "function"
				},
				{
					"inputs": [
						{
							"internalType": "uint256",
							"name": "dealId",
							"type": "uint256"
						}
					],
					"name": "fund",
					"outputs": [],
					"stateMutability": "payable",
					"type": "function"
				},
				{
					"inputs": [
						{
							"internalType": "uint256",
							"name": "dealId",
							"type": "uint256"
						}
					],
					"name": "getDeal",
					"outputs": [
						{
							"components": [
								{
									"internalType": "address",
									"name": "buyer",
									"type": "address"
								},
								{
									"internalType": "address",
									"name": "seller",
									"type": "address"
								},
								{
									"internalType": "address",
									"name": "token",
									"type": "address"
								},
								{
									"internalType": "uint256",
									"name": "price",
									"type": "uint256"
								},
								{
									"internalType": "uint64",
									"name": "deadline",
									"type": "uint64"
								},
								{
									"internalType": "enum AgroEscrow.Status",
									"name": "status",
									"type": "uint8"
								},
								{
									"internalType": "string",
									"name": "commodity",
									"type": "string"
								},
								{
									"internalType": "uint256",
									"name": "quantity",
									"type": "uint256"
								}
							],
							"internalType": "struct AgroEscrow.Deal",
							"name": "",
							"type": "tuple"
						}
					],
					"stateMutability": "view",
					"type": "function"
				},
				{
					"inputs": [],
					"name": "nextDealId",
					"outputs": [
						{
							"internalType": "uint256",
							"name": "",
							"type": "uint256"
						}
					],
					"stateMutability": "view",
					"type": "function"
				},
				{
					"inputs": [
						{
							"internalType": "uint256",
							"name": "dealId",
							"type": "uint256"
						}
					],
					"name": "refundAfterDeadline",
					"outputs": [],
					"stateMutability": "nonpayable",
					"type": "function"
				},
				{
					"stateMutability": "payable",
					"type": "receive"
				}
			],
			"devdoc": {
				"kind": "dev",
				"methods": {},
				"version": 1
			},
			"evm": {
				"assembly": "    /* \"AgroPay.sol\":419:4835  contract AgroEscrow {... */\n  mstore(0x40, 0x80)\n    /* \"AgroPay.sol\":1038:1039  1 */\n  0x01\n    /* \"AgroPay.sol\":1010:1039  uint256 public nextDealId = 1 */\n  0x00\n  sstore\n    /* \"AgroPay.sol\":419:4835  contract AgroEscrow {... */\n  callvalue\n  dup1\n  iszero\n  tag_1\n  jumpi\n  0x00\n  dup1\n  revert\ntag_1:\n  pop\n  dataSize(sub_0)\n  dup1\n  dataOffset(sub_0)\n  0x00\n  codecopy\n  0x00\n  return\nstop\n\nsub_0: assembly {\n        /* \"AgroPay.sol\":419:4835  contract AgroEscrow {... */\n      mstore(0x40, 0x80)\n      jumpi(tag_1, lt(calldatasize, 0x04))\n      shr(0xe0, calldataload(0x00))\n      dup1\n      0xc5f6346d\n      gt\n      tag_10\n      jumpi\n      dup1\n      0xc5f6346d\n      eq\n      tag_6\n      jumpi\n      dup1\n      0xca1d209d\n      eq\n      tag_7\n      jumpi\n      dup1\n      0xdd3c05e7\n      eq\n      tag_8\n      jumpi\n      dup1\n      0xfd84cb97\n      eq\n      tag_9\n      jumpi\n      jump(tag_2)\n    tag_10:\n      dup1\n      0x03988f84\n      eq\n      tag_3\n      jumpi\n      dup1\n      0x4d9879e3\n      eq\n      tag_4\n      jumpi\n      dup1\n      0x82fd5bac\n      eq\n      tag_5\n      jumpi\n      jump(tag_2)\n    tag_1:\n      jumpi(tag_2, calldatasize)\n      stop\n    tag_2:\n      0x00\n      dup1\n      revert\n        /* \"AgroPay.sol\":1046:1083  mapping(uint256 => Deal) public deals */\n    tag_3:\n      callvalue\n      dup1\n      iszero\n      tag_13\n      jumpi\n      0x00\n      dup1\n      revert\n    tag_13:\n      pop\n      tag_14\n      0x04\n      dup1\n      calldatasize\n      sub\n      dup2\n      add\n      swap1\n      tag_15\n      swap2\n      swap1\n      tag_16\n      jump\t// in\n    tag_15:\n      tag_17\n      jump\t// in\n    tag_14:\n      mload(0x40)\n      tag_18\n      swap9\n      swap8\n      swap7\n      swap6\n      swap5\n      swap4\n      swap3\n      swap2\n      swap1\n      tag_19\n      jump\t// in\n    tag_18:\n      mload(0x40)\n      dup1\n      swap2\n      sub\n      swap1\n      return\n        /* \"AgroPay.sol\":1010:1039  uint256 public nextDealId = 1 */\n    tag_4:\n      callvalue\n      dup1\n      iszero\n      tag_20\n      jumpi\n      0x00\n      dup1\n      revert\n    tag_20:\n      pop\n      tag_21\n      tag_22\n      jump\t// in\n    tag_21:\n      mload(0x40)\n      tag_23\n      swap2\n      swap1\n      tag_24\n      jump\t// in\n    tag_23:\n      mload(0x40)\n      dup1\n      swap2\n      sub\n      swap1\n      return\n        /* \"AgroPay.sol\":4687:4795  function getDeal(uint256 dealId) external view returns (Deal memory) {... */\n    tag_5:\n      callvalue\n      dup1\n      iszero\n      tag_25\n      jumpi\n      0x00\n      dup1\n      revert\n    tag_25:\n      pop\n      tag_26\n      0x04\n      dup1\n      calldatasize\n      sub\n      dup2\n      add\n      swap1\n      tag_27\n      swap2\n      swap1\n      tag_16\n      jump\t// in\n    tag_27:\n      tag_28\n      jump\t// in\n    tag_26:\n      mload(0x40)\n      tag_29\n      swap2\n      swap1\n      tag_30\n      jump\t// in\n    tag_29:\n      mload(0x40)\n      dup1\n      swap2\n      sub\n      swap1\n      return\n        /* \"AgroPay.sol\":4237:4650  function refundAfterDeadline(uint256 dealId) external {... */\n    tag_6:\n      callvalue\n      dup1\n      iszero\n      tag_31\n      jumpi\n      0x00\n      dup1\n      revert\n    tag_31:\n      pop\n      tag_32\n      0x04\n      dup1\n      calldatasize\n      sub\n      dup2\n      add\n      swap1\n      tag_33\n      swap2\n      swap1\n      tag_16\n      jump\t// in\n    tag_33:\n      tag_34\n      jump\t// in\n    tag_32:\n      stop\n        /* \"AgroPay.sol\":3329:3660  function fund(uint256 dealId) external payable {... */\n    tag_7:\n      tag_35\n      0x04\n      dup1\n      calldatasize\n      sub\n      dup2\n      add\n      swap1\n      tag_36\n      swap2\n      swap1\n      tag_16\n      jump\t// in\n    tag_36:\n      tag_37\n      jump\t// in\n    tag_35:\n      stop\n        /* \"AgroPay.sol\":2373:3277  function createDeal(... */\n    tag_8:\n      callvalue\n      dup1\n      iszero\n      tag_38\n      jumpi\n      0x00\n      dup1\n      revert\n    tag_38:\n      pop\n      tag_39\n      0x04\n      dup1\n      calldatasize\n      sub\n      dup2\n      add\n      swap1\n      tag_40\n      swap2\n      swap1\n      tag_41\n      jump\t// in\n    tag_40:\n      tag_42\n      jump\t// in\n    tag_39:\n      mload(0x40)\n      tag_43\n      swap2\n      swap1\n      tag_24\n      jump\t// in\n    tag_43:\n      mload(0x40)\n      dup1\n      swap2\n      sub\n      swap1\n      return\n        /* \"AgroPay.sol\":3739:4184  function confirmDelivery(uint256 dealId) external {... */\n    tag_9:\n      callvalue\n      dup1\n      iszero\n      tag_44\n      jumpi\n      0x00\n      dup1\n      revert\n    tag_44:\n      pop\n      tag_45\n      0x04\n      dup1\n      calldatasize\n      sub\n      dup2\n      add\n      swap1\n      tag_46\n      swap2\n      swap1\n      tag_16\n      jump\t// in\n    tag_46:\n      tag_47\n      jump\t// in\n    tag_45:\n      stop\n        /* \"AgroPay.sol\":1046:1083  mapping(uint256 => Deal) public deals */\n    tag_17:\n      mstore(0x20, 0x01)\n      dup1\n      0x00\n      mstore\n      keccak256(0x00, 0x40)\n      0x00\n      swap2\n      pop\n      swap1\n      pop\n      dup1\n      0x00\n      add\n      0x00\n      swap1\n      sload\n      swap1\n      0x0100\n      exp\n      swap1\n      div\n      0xffffffffffffffffffffffffffffffffffffffff\n      and\n      swap1\n      dup1\n      0x01\n      add\n      0x00\n      swap1\n      sload\n      swap1\n      0x0100\n      exp\n      swap1\n      div\n      0xffffffffffffffffffffffffffffffffffffffff\n      and\n      swap1\n      dup1\n      0x02\n      add\n      0x00\n      swap1\n      sload\n      swap1\n      0x0100\n      exp\n      swap1\n      div\n      0xffffffffffffffffffffffffffffffffffffffff\n      and\n      swap1\n      dup1\n      0x03\n      add\n      sload\n      swap1\n      dup1\n      0x04\n      add\n      0x00\n      swap1\n      sload\n      swap1\n      0x0100\n      exp\n      swap1\n      div\n      0xffffffffffffffff\n      and\n      swap1\n      dup1\n      0x04\n      add\n      0x08\n      swap1\n      sload\n      swap1\n      0x0100\n      exp\n      swap1\n      div\n      0xff\n      and\n      swap1\n      dup1\n      0x05\n      add\n      dup1\n      sload\n      tag_48\n      swap1\n      tag_49\n      jump\t// in\n    tag_48:\n      dup1\n      0x1f\n      add\n      0x20\n      dup1\n      swap2\n      div\n      mul\n      0x20\n      add\n      mload(0x40)\n      swap1\n      dup2\n      add\n      0x40\n      mstore\n      dup1\n      swap3\n      swap2\n      swap1\n      dup2\n      dup2\n      mstore\n      0x20\n      add\n      dup3\n      dup1\n      sload\n      tag_50\n      swap1\n      tag_49\n      jump\t// in\n    tag_50:\n      dup1\n      iszero\n      tag_51\n      jumpi\n      dup1\n      0x1f\n      lt\n      tag_52\n      jumpi\n      0x0100\n      dup1\n      dup4\n      sload\n      div\n      mul\n      dup4\n      mstore\n      swap2\n      0x20\n      add\n      swap2\n      jump(tag_51)\n    tag_52:\n      dup3\n      add\n      swap2\n      swap1\n      0x00\n      mstore\n      keccak256(0x00, 0x20)\n      swap1\n    tag_53:\n      dup2\n      sload\n      dup2\n      mstore\n      swap1\n      0x01\n      add\n      swap1\n      0x20\n      add\n      dup1\n      dup4\n      gt\n      tag_53\n      jumpi\n      dup3\n      swap1\n      sub\n      0x1f\n      and\n      dup3\n      add\n      swap2\n    tag_51:\n      pop\n      pop\n      pop\n      pop\n      pop\n      swap1\n      dup1\n      0x06\n      add\n      sload\n      swap1\n      pop\n      dup9\n      jump\t// out\n        /* \"AgroPay.sol\":1010:1039  uint256 public nextDealId = 1 */\n    tag_22:\n      sload(0x00)\n      dup2\n      jump\t// out\n        /* \"AgroPay.sol\":4687:4795  function getDeal(uint256 dealId) external view returns (Deal memory) {... */\n    tag_28:\n        /* \"AgroPay.sol\":4743:4754  Deal memory */\n      tag_54\n      tag_55\n      jump\t// in\n    tag_54:\n        /* \"AgroPay.sol\":4774:4779  deals */\n      0x01\n        /* \"AgroPay.sol\":4774:4787  deals[dealId] */\n      0x00\n        /* \"AgroPay.sol\":4780:4786  dealId */\n      dup4\n        /* \"AgroPay.sol\":4774:4787  deals[dealId] */\n      dup2\n      mstore\n      0x20\n      add\n      swap1\n      dup2\n      mstore\n      0x20\n      add\n      0x00\n      keccak256\n        /* \"AgroPay.sol\":4767:4787  return deals[dealId] */\n      mload(0x40)\n      dup1\n      0x0100\n      add\n      0x40\n      mstore\n      swap1\n      dup2\n      0x00\n      dup3\n      add\n      0x00\n      swap1\n      sload\n      swap1\n      0x0100\n      exp\n      swap1\n      div\n      0xffffffffffffffffffffffffffffffffffffffff\n      and\n      0xffffffffffffffffffffffffffffffffffffffff\n      and\n      0xffffffffffffffffffffffffffffffffffffffff\n      and\n      dup2\n      mstore\n      0x20\n      add\n      0x01\n      dup3\n      add\n      0x00\n      swap1\n      sload\n      swap1\n      0x0100\n      exp\n      swap1\n      div\n      0xffffffffffffffffffffffffffffffffffffffff\n      and\n      0xffffffffffffffffffffffffffffffffffffffff\n      and\n      0xffffffffffffffffffffffffffffffffffffffff\n      and\n      dup2\n      mstore\n      0x20\n      add\n      0x02\n      dup3\n      add\n      0x00\n      swap1\n      sload\n      swap1\n      0x0100\n      exp\n      swap1\n      div\n      0xffffffffffffffffffffffffffffffffffffffff\n      and\n      0xffffffffffffffffffffffffffffffffffffffff\n      and\n      0xffffffffffffffffffffffffffffffffffffffff\n      and\n      dup2\n      mstore\n      0x20\n      add\n      0x03\n      dup3\n      add\n      sload\n      dup2\n      mstore\n      0x20\n      add\n      0x04\n      dup3\n      add\n      0x00\n      swap1\n      sload\n      swap1\n      0x0100\n      exp\n      swap1\n      div\n      0xffffffffffffffff\n      and\n      0xffffffffffffffff\n      and\n      0xffffffffffffffff\n      and\n      dup2\n      mstore\n      0x20\n      add\n      0x04\n      dup3\n      add\n      0x08\n      swap1\n      sload\n      swap1\n      0x0100\n      exp\n      swap1\n      div\n      0xff\n      and\n      0x04\n      dup2\n      gt\n      iszero\n      tag_57\n      jumpi\n      tag_58\n      tag_59\n      jump\t// in\n    tag_58:\n    tag_57:\n      0x04\n      dup2\n      gt\n      iszero\n      tag_60\n      jumpi\n      tag_61\n      tag_59\n      jump\t// in\n    tag_61:\n    tag_60:\n      dup2\n      mstore\n      0x20\n      add\n      0x05\n      dup3\n      add\n      dup1\n      sload\n      tag_62\n      swap1\n      tag_49\n      jump\t// in\n    tag_62:\n      dup1\n      0x1f\n      add\n      0x20\n      dup1\n      swap2\n      div\n      mul\n      0x20\n      add\n      mload(0x40)\n      swap1\n      dup2\n      add\n      0x40\n      mstore\n      dup1\n      swap3\n      swap2\n      swap1\n      dup2\n      dup2\n      mstore\n      0x20\n      add\n      dup3\n      dup1\n      sload\n      tag_63\n      swap1\n      tag_49\n      jump\t// in\n    tag_63:\n      dup1\n      iszero\n      tag_64\n      jumpi\n      dup1\n      0x1f\n      lt\n      tag_65\n      jumpi\n      0x0100\n      dup1\n      dup4\n      sload\n      div\n      mul\n      dup4\n      mstore\n      swap2\n      0x20\n      add\n      swap2\n      jump(tag_64)\n    tag_65:\n      dup3\n      add\n      swap2\n      swap1\n      0x00\n      mstore\n      keccak256(0x00, 0x20)\n      swap1\n    tag_66:\n      dup2\n      sload\n      dup2\n      mstore\n      swap1\n      0x01\n      add\n      swap1\n      0x20\n      add\n      dup1\n      dup4\n      gt\n      tag_66\n      jumpi\n      dup3\n      swap1\n      sub\n      0x1f\n      and\n      dup3\n      add\n      swap2\n    tag_64:\n      pop\n      pop\n      pop\n      pop\n      pop\n      dup2\n      mstore\n      0x20\n      add\n      0x06\n      dup3\n      add\n      sload\n      dup2\n      mstore\n      pop\n      pop\n      swap1\n      pop\n        /* \"AgroPay.sol\":4687:4795  function getDeal(uint256 dealId) external view returns (Deal memory) {... */\n      swap2\n      swap1\n      pop\n      jump\t// out\n        /* \"AgroPay.sol\":4237:4650  function refundAfterDeadline(uint256 dealId) external {... */\n    tag_34:\n        /* \"AgroPay.sol\":4302:4316  Deal storage d */\n      0x00\n        /* \"AgroPay.sol\":4319:4324  deals */\n      0x01\n        /* \"AgroPay.sol\":4319:4332  deals[dealId] */\n      0x00\n        /* \"AgroPay.sol\":4325:4331  dealId */\n      dup4\n        /* \"AgroPay.sol\":4319:4332  deals[dealId] */\n      dup2\n      mstore\n      0x20\n      add\n      swap1\n      dup2\n      mstore\n      0x20\n      add\n      0x00\n      keccak256\n        /* \"AgroPay.sol\":4302:4332  Deal storage d = deals[dealId] */\n      swap1\n      pop\n        /* \"AgroPay.sol\":4363:4376  Status.Funded */\n      0x02\n        /* \"AgroPay.sol\":4351:4376  d.status == Status.Funded */\n      0x04\n      dup2\n      gt\n      iszero\n      tag_68\n      jumpi\n      tag_69\n      tag_59\n      jump\t// in\n    tag_69:\n    tag_68:\n        /* \"AgroPay.sol\":4351:4352  d */\n      dup2\n        /* \"AgroPay.sol\":4351:4359  d.status */\n      0x04\n      add\n      0x08\n      swap1\n      sload\n      swap1\n      0x0100\n      exp\n      swap1\n      div\n      0xff\n      and\n        /* \"AgroPay.sol\":4351:4376  d.status == Status.Funded */\n      0x04\n      dup2\n      gt\n      iszero\n      tag_70\n      jumpi\n      tag_71\n      tag_59\n      jump\t// in\n    tag_71:\n    tag_70:\n      eq\n        /* \"AgroPay.sol\":4343:4391  require(d.status == Status.Funded, \"BAD_STATUS\") */\n      tag_72\n      jumpi\n      mload(0x40)\n      0x08c379a000000000000000000000000000000000000000000000000000000000\n      dup2\n      mstore\n      0x04\n      add\n      tag_73\n      swap1\n      tag_74\n      jump\t// in\n    tag_73:\n      mload(0x40)\n      dup1\n      swap2\n      sub\n      swap1\n      revert\n    tag_72:\n        /* \"AgroPay.sol\":4428:4429  d */\n      dup1\n        /* \"AgroPay.sol\":4428:4438  d.deadline */\n      0x04\n      add\n      0x00\n      swap1\n      sload\n      swap1\n      0x0100\n      exp\n      swap1\n      div\n      0xffffffffffffffff\n      and\n        /* \"AgroPay.sol\":4410:4438  block.timestamp > d.deadline */\n      0xffffffffffffffff\n      and\n        /* \"AgroPay.sol\":4410:4425  block.timestamp */\n      timestamp\n        /* \"AgroPay.sol\":4410:4438  block.timestamp > d.deadline */\n      gt\n        /* \"AgroPay.sol\":4402:4458  require(block.timestamp > d.deadline, \"BEFORE_DEADLINE\") */\n      tag_75\n      jumpi\n      mload(0x40)\n      0x08c379a000000000000000000000000000000000000000000000000000000000\n      dup2\n      mstore\n      0x04\n      add\n      tag_76\n      swap1\n      tag_77\n      jump\t// in\n    tag_76:\n      mload(0x40)\n      dup1\n      swap2\n      sub\n      swap1\n      revert\n    tag_75:\n        /* \"AgroPay.sol\":4491:4492  d */\n      dup1\n        /* \"AgroPay.sol\":4491:4498  d.buyer */\n      0x00\n      add\n      0x00\n      swap1\n      sload\n      swap1\n      0x0100\n      exp\n      swap1\n      div\n      0xffffffffffffffffffffffffffffffffffffffff\n      and\n        /* \"AgroPay.sol\":4477:4498  msg.sender == d.buyer */\n      0xffffffffffffffffffffffffffffffffffffffff\n      and\n        /* \"AgroPay.sol\":4477:4487  msg.sender */\n      caller\n        /* \"AgroPay.sol\":4477:4498  msg.sender == d.buyer */\n      0xffffffffffffffffffffffffffffffffffffffff\n      and\n      eq\n        /* \"AgroPay.sol\":4469:4513  require(msg.sender == d.buyer, \"ONLY_BUYER\") */\n      tag_78\n      jumpi\n      mload(0x40)\n      0x08c379a000000000000000000000000000000000000000000000000000000000\n      dup2\n      mstore\n      0x04\n      add\n      tag_79\n      swap1\n      tag_80\n      jump\t// in\n    tag_79:\n      mload(0x40)\n      dup1\n      swap2\n      sub\n      swap1\n      revert\n    tag_78:\n        /* \"AgroPay.sol\":4535:4550  Status.Refunded */\n      0x04\n        /* \"AgroPay.sol\":4524:4525  d */\n      dup2\n        /* \"AgroPay.sol\":4524:4532  d.status */\n      0x04\n      add\n      0x08\n        /* \"AgroPay.sol\":4524:4550  d.status = Status.Refunded */\n      0x0100\n      exp\n      dup2\n      sload\n      dup2\n      0xff\n      mul\n      not\n      and\n      swap1\n      dup4\n      0x04\n      dup2\n      gt\n      iszero\n      tag_81\n      jumpi\n      tag_82\n      tag_59\n      jump\t// in\n    tag_82:\n    tag_81:\n      mul\n      or\n      swap1\n      sstore\n      pop\n        /* \"AgroPay.sol\":4561:4592  _pay(d.token, d.buyer, d.price) */\n      tag_83\n        /* \"AgroPay.sol\":4566:4567  d */\n      dup2\n        /* \"AgroPay.sol\":4566:4573  d.token */\n      0x02\n      add\n      0x00\n      swap1\n      sload\n      swap1\n      0x0100\n      exp\n      swap1\n      div\n      0xffffffffffffffffffffffffffffffffffffffff\n      and\n        /* \"AgroPay.sol\":4575:4576  d */\n      dup3\n        /* \"AgroPay.sol\":4575:4582  d.buyer */\n      0x00\n      add\n      0x00\n      swap1\n      sload\n      swap1\n      0x0100\n      exp\n      swap1\n      div\n      0xffffffffffffffffffffffffffffffffffffffff\n      and\n        /* \"AgroPay.sol\":4584:4585  d */\n      dup4\n        /* \"AgroPay.sol\":4584:4591  d.price */\n      0x03\n      add\n      sload\n        /* \"AgroPay.sol\":4561:4565  _pay */\n      tag_84\n        /* \"AgroPay.sol\":4561:4592  _pay(d.token, d.buyer, d.price) */\n      jump\t// in\n    tag_83:\n        /* \"AgroPay.sol\":4617:4623  dealId */\n      dup2\n        /* \"AgroPay.sol\":4608:4642  Refunded(dealId, d.price, d.buyer) */\n      0xe5fd53654bc4ea55a3106f8f2bd57252875afee33cc027448099373ae65408f6\n        /* \"AgroPay.sol\":4625:4626  d */\n      dup3\n        /* \"AgroPay.sol\":4625:4632  d.price */\n      0x03\n      add\n      sload\n        /* \"AgroPay.sol\":4634:4635  d */\n      dup4\n        /* \"AgroPay.sol\":4634:4641  d.buyer */\n      0x00\n      add\n      0x00\n      swap1\n      sload\n      swap1\n      0x0100\n      exp\n      swap1\n      div\n      0xffffffffffffffffffffffffffffffffffffffff\n      and\n        /* \"AgroPay.sol\":4608:4642  Refunded(dealId, d.price, d.buyer) */\n      mload(0x40)\n      tag_85\n      swap3\n      swap2\n      swap1\n      tag_86\n      jump\t// in\n    tag_85:\n      mload(0x40)\n      dup1\n      swap2\n      sub\n      swap1\n      log2\n        /* \"AgroPay.sol\":4291:4650  {... */\n      pop\n        /* \"AgroPay.sol\":4237:4650  function refundAfterDeadline(uint256 dealId) external {... */\n      pop\n      jump\t// out\n        /* \"AgroPay.sol\":3329:3660  function fund(uint256 dealId) external payable {... */\n    tag_37:\n        /* \"AgroPay.sol\":3387:3401  Deal storage d */\n      0x00\n        /* \"AgroPay.sol\":3404:3409  deals */\n      0x01\n        /* \"AgroPay.sol\":3404:3417  deals[dealId] */\n      0x00\n        /* \"AgroPay.sol\":3410:3416  dealId */\n      dup4\n        /* \"AgroPay.sol\":3404:3417  deals[dealId] */\n      dup2\n      mstore\n      0x20\n      add\n      swap1\n      dup2\n      mstore\n      0x20\n      add\n      0x00\n      keccak256\n        /* \"AgroPay.sol\":3387:3417  Deal storage d = deals[dealId] */\n      swap1\n      pop\n        /* \"AgroPay.sol\":3448:3462  Status.Created */\n      0x01\n        /* \"AgroPay.sol\":3436:3462  d.status == Status.Created */\n      0x04\n      dup2\n      gt\n      iszero\n      tag_88\n      jumpi\n      tag_89\n      tag_59\n      jump\t// in\n    tag_89:\n    tag_88:\n        /* \"AgroPay.sol\":3436:3437  d */\n      dup2\n        /* \"AgroPay.sol\":3436:3444  d.status */\n      0x04\n      add\n      0x08\n      swap1\n      sload\n      swap1\n      0x0100\n      exp\n      swap1\n      div\n      0xff\n      and\n        /* \"AgroPay.sol\":3436:3462  d.status == Status.Created */\n      0x04\n      dup2\n      gt\n      iszero\n      tag_90\n      jumpi\n      tag_91\n      tag_59\n      jump\t// in\n    tag_91:\n    tag_90:\n      eq\n        /* \"AgroPay.sol\":3428:3477  require(d.status == Status.Created, \"BAD_STATUS\") */\n      tag_92\n      jumpi\n      mload(0x40)\n      0x08c379a000000000000000000000000000000000000000000000000000000000\n      dup2\n      mstore\n      0x04\n      add\n      tag_93\n      swap1\n      tag_74\n      jump\t// in\n    tag_93:\n      mload(0x40)\n      dup1\n      swap2\n      sub\n      swap1\n      revert\n    tag_92:\n        /* \"AgroPay.sol\":3510:3511  d */\n      dup1\n        /* \"AgroPay.sol\":3510:3517  d.buyer */\n      0x00\n      add\n      0x00\n      swap1\n      sload\n      swap1\n      0x0100\n      exp\n      swap1\n      div\n      0xffffffffffffffffffffffffffffffffffffffff\n      and\n        /* \"AgroPay.sol\":3496:3517  msg.sender == d.buyer */\n      0xffffffffffffffffffffffffffffffffffffffff\n      and\n        /* \"AgroPay.sol\":3496:3506  msg.sender */\n      caller\n        /* \"AgroPay.sol\":3496:3517  msg.sender == d.buyer */\n      0xffffffffffffffffffffffffffffffffffffffff\n      and\n      eq\n        /* \"AgroPay.sol\":3488:3532  require(msg.sender == d.buyer, \"ONLY_BUYER\") */\n      tag_94\n      jumpi\n      mload(0x40)\n      0x08c379a000000000000000000000000000000000000000000000000000000000\n      dup2\n      mstore\n      0x04\n      add\n      tag_95\n      swap1\n      tag_80\n      jump\t// in\n    tag_95:\n      mload(0x40)\n      dup1\n      swap2\n      sub\n      swap1\n      revert\n    tag_94:\n        /* \"AgroPay.sol\":3543:3578  _pull(d.token, msg.sender, d.price) */\n      tag_96\n        /* \"AgroPay.sol\":3549:3550  d */\n      dup2\n        /* \"AgroPay.sol\":3549:3556  d.token */\n      0x02\n      add\n      0x00\n      swap1\n      sload\n      swap1\n      0x0100\n      exp\n      swap1\n      div\n      0xffffffffffffffffffffffffffffffffffffffff\n      and\n        /* \"AgroPay.sol\":3558:3568  msg.sender */\n      caller\n        /* \"AgroPay.sol\":3570:3571  d */\n      dup4\n        /* \"AgroPay.sol\":3570:3577  d.price */\n      0x03\n      add\n      sload\n        /* \"AgroPay.sol\":3543:3548  _pull */\n      tag_97\n        /* \"AgroPay.sol\":3543:3578  _pull(d.token, msg.sender, d.price) */\n      jump\t// in\n    tag_96:\n        /* \"AgroPay.sol\":3600:3613  Status.Funded */\n      0x02\n        /* \"AgroPay.sol\":3589:3590  d */\n      dup2\n        /* \"AgroPay.sol\":3589:3597  d.status */\n      0x04\n      add\n      0x08\n        /* \"AgroPay.sol\":3589:3613  d.status = Status.Funded */\n      0x0100\n      exp\n      dup2\n      sload\n      dup2\n      0xff\n      mul\n      not\n      and\n      swap1\n      dup4\n      0x04\n      dup2\n      gt\n      iszero\n      tag_98\n      jumpi\n      tag_99\n      tag_59\n      jump\t// in\n    tag_99:\n    tag_98:\n      mul\n      or\n      swap1\n      sstore\n      pop\n        /* \"AgroPay.sol\":3636:3642  dealId */\n      dup2\n        /* \"AgroPay.sol\":3629:3652  Funded(dealId, d.price) */\n      0xa1dd612b9278fe0bb5d89ed1f642dc3678d0e558630c5a4a8df212ba2197cdb4\n        /* \"AgroPay.sol\":3644:3645  d */\n      dup3\n        /* \"AgroPay.sol\":3644:3651  d.price */\n      0x03\n      add\n      sload\n        /* \"AgroPay.sol\":3629:3652  Funded(dealId, d.price) */\n      mload(0x40)\n      tag_100\n      swap2\n      swap1\n      tag_24\n      jump\t// in\n    tag_100:\n      mload(0x40)\n      dup1\n      swap2\n      sub\n      swap1\n      log2\n        /* \"AgroPay.sol\":3376:3660  {... */\n      pop\n        /* \"AgroPay.sol\":3329:3660  function fund(uint256 dealId) external payable {... */\n      pop\n      jump\t// out\n        /* \"AgroPay.sol\":2373:3277  function createDeal(... */\n    tag_42:\n        /* \"AgroPay.sol\":2613:2627  uint256 dealId */\n      0x00\n        /* \"AgroPay.sol\":2666:2667  0 */\n      dup1\n        /* \"AgroPay.sol\":2648:2668  _buyer != address(0) */\n      0xffffffffffffffffffffffffffffffffffffffff\n      and\n        /* \"AgroPay.sol\":2648:2654  _buyer */\n      dup10\n        /* \"AgroPay.sol\":2648:2668  _buyer != address(0) */\n      0xffffffffffffffffffffffffffffffffffffffff\n      and\n      eq\n      iszero\n        /* \"AgroPay.sol\":2648:2693  _buyer != address(0) && _seller != address(0) */\n      dup1\n      iszero\n      tag_102\n      jumpi\n      pop\n        /* \"AgroPay.sol\":2691:2692  0 */\n      0x00\n        /* \"AgroPay.sol\":2672:2693  _seller != address(0) */\n      0xffffffffffffffffffffffffffffffffffffffff\n      and\n        /* \"AgroPay.sol\":2672:2679  _seller */\n      dup9\n        /* \"AgroPay.sol\":2672:2693  _seller != address(0) */\n      0xffffffffffffffffffffffffffffffffffffffff\n      and\n      eq\n      iszero\n        /* \"AgroPay.sol\":2648:2693  _buyer != address(0) && _seller != address(0) */\n    tag_102:\n        /* \"AgroPay.sol\":2640:2704  require(_buyer != address(0) && _seller != address(0), \"ADDR_0\") */\n      tag_103\n      jumpi\n      mload(0x40)\n      0x08c379a000000000000000000000000000000000000000000000000000000000\n      dup2\n      mstore\n      0x04\n      add\n      tag_104\n      swap1\n      tag_105\n      jump\t// in\n    tag_104:\n      mload(0x40)\n      dup1\n      swap2\n      sub\n      swap1\n      revert\n    tag_103:\n        /* \"AgroPay.sol\":2732:2733  0 */\n      0x00\n        /* \"AgroPay.sol\":2723:2729  _price */\n      dup5\n        /* \"AgroPay.sol\":2723:2733  _price > 0 */\n      gt\n        /* \"AgroPay.sol\":2723:2752  _price > 0 && _quantityKg > 0 */\n      dup1\n      iszero\n      tag_106\n      jumpi\n      pop\n        /* \"AgroPay.sol\":2751:2752  0 */\n      0x00\n        /* \"AgroPay.sol\":2737:2748  _quantityKg */\n      dup6\n        /* \"AgroPay.sol\":2737:2752  _quantityKg > 0 */\n      gt\n        /* \"AgroPay.sol\":2723:2752  _price > 0 && _quantityKg > 0 */\n    tag_106:\n        /* \"AgroPay.sol\":2715:2765  require(_price > 0 && _quantityKg > 0, \"ZERO_VAL\") */\n      tag_107\n      jumpi\n      mload(0x40)\n      0x08c379a000000000000000000000000000000000000000000000000000000000\n      dup2\n      mstore\n      0x04\n      add\n      tag_108\n      swap1\n      tag_109\n      jump\t// in\n    tag_108:\n      mload(0x40)\n      dup1\n      swap2\n      sub\n      swap1\n      revert\n    tag_107:\n        /* \"AgroPay.sol\":2796:2811  block.timestamp */\n      timestamp\n        /* \"AgroPay.sol\":2784:2793  _deadline */\n      dup4\n        /* \"AgroPay.sol\":2784:2811  _deadline > block.timestamp */\n      0xffffffffffffffff\n      and\n      gt\n        /* \"AgroPay.sol\":2776:2828  require(_deadline > block.timestamp, \"BAD_DEADLINE\") */\n      tag_110\n      jumpi\n      mload(0x40)\n      0x08c379a000000000000000000000000000000000000000000000000000000000\n      dup2\n      mstore\n      0x04\n      add\n      tag_111\n      swap1\n      tag_112\n      jump\t// in\n    tag_111:\n      mload(0x40)\n      dup1\n      swap2\n      sub\n      swap1\n      revert\n    tag_110:\n        /* \"AgroPay.sol\":2850:2860  nextDealId */\n      0x00\n      dup1\n        /* \"AgroPay.sol\":2850:2862  nextDealId++ */\n      dup2\n      sload\n      dup1\n      swap3\n      swap2\n      swap1\n      tag_113\n      swap1\n      tag_114\n      jump\t// in\n    tag_113:\n      swap2\n      swap1\n      pop\n      sstore\n        /* \"AgroPay.sol\":2841:2862  dealId = nextDealId++ */\n      swap1\n      pop\n        /* \"AgroPay.sol\":2889:3163  Deal({... */\n      mload(0x40)\n      dup1\n      0x0100\n      add\n      0x40\n      mstore\n      dup1\n        /* \"AgroPay.sol\":2916:2922  _buyer */\n      dup11\n        /* \"AgroPay.sol\":2889:3163  Deal({... */\n      0xffffffffffffffffffffffffffffffffffffffff\n      and\n      dup2\n      mstore\n      0x20\n      add\n        /* \"AgroPay.sol\":2945:2952  _seller */\n      dup10\n        /* \"AgroPay.sol\":2889:3163  Deal({... */\n      0xffffffffffffffffffffffffffffffffffffffff\n      and\n      dup2\n      mstore\n      0x20\n      add\n        /* \"AgroPay.sol\":2974:2980  _token */\n      dup4\n        /* \"AgroPay.sol\":2889:3163  Deal({... */\n      0xffffffffffffffffffffffffffffffffffffffff\n      and\n      dup2\n      mstore\n      0x20\n      add\n        /* \"AgroPay.sol\":3002:3008  _price */\n      dup6\n        /* \"AgroPay.sol\":2889:3163  Deal({... */\n      dup2\n      mstore\n      0x20\n      add\n        /* \"AgroPay.sol\":3033:3042  _deadline */\n      dup5\n        /* \"AgroPay.sol\":2889:3163  Deal({... */\n      0xffffffffffffffff\n      and\n      dup2\n      mstore\n      0x20\n      add\n        /* \"AgroPay.sol\":3065:3079  Status.Created */\n      0x01\n        /* \"AgroPay.sol\":2889:3163  Deal({... */\n      0x04\n      dup2\n      gt\n      iszero\n      tag_115\n      jumpi\n      tag_116\n      tag_59\n      jump\t// in\n    tag_116:\n    tag_115:\n      dup2\n      mstore\n      0x20\n      add\n        /* \"AgroPay.sol\":3105:3115  _commodity */\n      dup9\n      dup9\n        /* \"AgroPay.sol\":2889:3163  Deal({... */\n      dup1\n      dup1\n      0x1f\n      add\n      0x20\n      dup1\n      swap2\n      div\n      mul\n      0x20\n      add\n      mload(0x40)\n      swap1\n      dup2\n      add\n      0x40\n      mstore\n      dup1\n      swap4\n      swap3\n      swap2\n      swap1\n      dup2\n      dup2\n      mstore\n      0x20\n      add\n      dup4\n      dup4\n      dup1\n      dup3\n      dup5\n      calldatacopy\n      0x00\n      dup2\n      dup5\n      add\n      mstore\n      not(0x1f)\n      0x1f\n      dup3\n      add\n      and\n      swap1\n      pop\n      dup1\n      dup4\n      add\n      swap3\n      pop\n      pop\n      pop\n      pop\n      pop\n      pop\n      pop\n      dup2\n      mstore\n      0x20\n      add\n        /* \"AgroPay.sol\":3140:3151  _quantityKg */\n      dup7\n        /* \"AgroPay.sol\":2889:3163  Deal({... */\n      dup2\n      mstore\n      pop\n        /* \"AgroPay.sol\":2873:2878  deals */\n      0x01\n        /* \"AgroPay.sol\":2873:2886  deals[dealId] */\n      0x00\n        /* \"AgroPay.sol\":2879:2885  dealId */\n      dup4\n        /* \"AgroPay.sol\":2873:2886  deals[dealId] */\n      dup2\n      mstore\n      0x20\n      add\n      swap1\n      dup2\n      mstore\n      0x20\n      add\n      0x00\n      keccak256\n        /* \"AgroPay.sol\":2873:3163  deals[dealId] = Deal({... */\n      0x00\n      dup3\n      add\n      mload\n      dup2\n      0x00\n      add\n      exp(0x0100, 0x00)\n      dup2\n      sload\n      dup2\n      0xffffffffffffffffffffffffffffffffffffffff\n      mul\n      not\n      and\n      swap1\n      dup4\n      0xffffffffffffffffffffffffffffffffffffffff\n      and\n      mul\n      or\n      swap1\n      sstore\n      pop\n      0x20\n      dup3\n      add\n      mload\n      dup2\n      0x01\n      add\n      exp(0x0100, 0x00)\n      dup2\n      sload\n      dup2\n      0xffffffffffffffffffffffffffffffffffffffff\n      mul\n      not\n      and\n      swap1\n      dup4\n      0xffffffffffffffffffffffffffffffffffffffff\n      and\n      mul\n      or\n      swap1\n      sstore\n      pop\n      0x40\n      dup3\n      add\n      mload\n      dup2\n      0x02\n      add\n      exp(0x0100, 0x00)\n      dup2\n      sload\n      dup2\n      0xffffffffffffffffffffffffffffffffffffffff\n      mul\n      not\n      and\n      swap1\n      dup4\n      0xffffffffffffffffffffffffffffffffffffffff\n      and\n      mul\n      or\n      swap1\n      sstore\n      pop\n      0x60\n      dup3\n      add\n      mload\n      dup2\n      0x03\n      add\n      sstore\n      0x80\n      dup3\n      add\n      mload\n      dup2\n      0x04\n      add\n      exp(0x0100, 0x00)\n      dup2\n      sload\n      dup2\n      0xffffffffffffffff\n      mul\n      not\n      and\n      swap1\n      dup4\n      0xffffffffffffffff\n      and\n      mul\n      or\n      swap1\n      sstore\n      pop\n      0xa0\n      dup3\n      add\n      mload\n      dup2\n      0x04\n      add\n      exp(0x0100, 0x08)\n      dup2\n      sload\n      dup2\n      0xff\n      mul\n      not\n      and\n      swap1\n      dup4\n      0x04\n      dup2\n      gt\n      iszero\n      tag_117\n      jumpi\n      tag_118\n      tag_59\n      jump\t// in\n    tag_118:\n    tag_117:\n      mul\n      or\n      swap1\n      sstore\n      pop\n      0xc0\n      dup3\n      add\n      mload\n      dup2\n      0x05\n      add\n      swap1\n      dup2\n      tag_119\n      swap2\n      swap1\n      tag_120\n      jump\t// in\n    tag_119:\n      pop\n      0xe0\n      dup3\n      add\n      mload\n      dup2\n      0x06\n      add\n      sstore\n      swap1\n      pop\n      pop\n        /* \"AgroPay.sol\":3209:3216  _seller */\n      dup8\n        /* \"AgroPay.sol\":3181:3269  DealCreated(dealId, _buyer, _seller, _token, _price, _deadline, _commodity, _quantityKg) */\n      0xffffffffffffffffffffffffffffffffffffffff\n      and\n        /* \"AgroPay.sol\":3201:3207  _buyer */\n      dup10\n        /* \"AgroPay.sol\":3181:3269  DealCreated(dealId, _buyer, _seller, _token, _price, _deadline, _commodity, _quantityKg) */\n      0xffffffffffffffffffffffffffffffffffffffff\n      and\n        /* \"AgroPay.sol\":3193:3199  dealId */\n      dup3\n        /* \"AgroPay.sol\":3181:3269  DealCreated(dealId, _buyer, _seller, _token, _price, _deadline, _commodity, _quantityKg) */\n      0xe6ffa9eb43ce4abcd42aa4b479372e379b4cef0bfd3d4712b5ffa2773f7d80fe\n        /* \"AgroPay.sol\":3218:3224  _token */\n      dup6\n        /* \"AgroPay.sol\":3226:3232  _price */\n      dup9\n        /* \"AgroPay.sol\":3234:3243  _deadline */\n      dup9\n        /* \"AgroPay.sol\":3245:3255  _commodity */\n      dup14\n      dup14\n        /* \"AgroPay.sol\":3257:3268  _quantityKg */\n      dup14\n        /* \"AgroPay.sol\":3181:3269  DealCreated(dealId, _buyer, _seller, _token, _price, _deadline, _commodity, _quantityKg) */\n      mload(0x40)\n      tag_121\n      swap7\n      swap6\n      swap5\n      swap4\n      swap3\n      swap2\n      swap1\n      tag_122\n      jump\t// in\n    tag_121:\n      mload(0x40)\n      dup1\n      swap2\n      sub\n      swap1\n      log4\n        /* \"AgroPay.sol\":2373:3277  function createDeal(... */\n      swap9\n      swap8\n      pop\n      pop\n      pop\n      pop\n      pop\n      pop\n      pop\n      pop\n      jump\t// out\n        /* \"AgroPay.sol\":3739:4184  function confirmDelivery(uint256 dealId) external {... */\n    tag_47:\n        /* \"AgroPay.sol\":3800:3814  Deal storage d */\n      0x00\n        /* \"AgroPay.sol\":3817:3822  deals */\n      0x01\n        /* \"AgroPay.sol\":3817:3830  deals[dealId] */\n      0x00\n        /* \"AgroPay.sol\":3823:3829  dealId */\n      dup4\n        /* \"AgroPay.sol\":3817:3830  deals[dealId] */\n      dup2\n      mstore\n      0x20\n      add\n      swap1\n      dup2\n      mstore\n      0x20\n      add\n      0x00\n      keccak256\n        /* \"AgroPay.sol\":3800:3830  Deal storage d = deals[dealId] */\n      swap1\n      pop\n        /* \"AgroPay.sol\":3861:3874  Status.Funded */\n      0x02\n        /* \"AgroPay.sol\":3849:3874  d.status == Status.Funded */\n      0x04\n      dup2\n      gt\n      iszero\n      tag_124\n      jumpi\n      tag_125\n      tag_59\n      jump\t// in\n    tag_125:\n    tag_124:\n        /* \"AgroPay.sol\":3849:3850  d */\n      dup2\n        /* \"AgroPay.sol\":3849:3857  d.status */\n      0x04\n      add\n      0x08\n      swap1\n      sload\n      swap1\n      0x0100\n      exp\n      swap1\n      div\n      0xff\n      and\n        /* \"AgroPay.sol\":3849:3874  d.status == Status.Funded */\n      0x04\n      dup2\n      gt\n      iszero\n      tag_126\n      jumpi\n      tag_127\n      tag_59\n      jump\t// in\n    tag_127:\n    tag_126:\n      eq\n        /* \"AgroPay.sol\":3841:3889  require(d.status == Status.Funded, \"BAD_STATUS\") */\n      tag_128\n      jumpi\n      mload(0x40)\n      0x08c379a000000000000000000000000000000000000000000000000000000000\n      dup2\n      mstore\n      0x04\n      add\n      tag_129\n      swap1\n      tag_74\n      jump\t// in\n    tag_129:\n      mload(0x40)\n      dup1\n      swap2\n      sub\n      swap1\n      revert\n    tag_128:\n        /* \"AgroPay.sol\":3922:3923  d */\n      dup1\n        /* \"AgroPay.sol\":3922:3929  d.buyer */\n      0x00\n      add\n      0x00\n      swap1\n      sload\n      swap1\n      0x0100\n      exp\n      swap1\n      div\n      0xffffffffffffffffffffffffffffffffffffffff\n      and\n        /* \"AgroPay.sol\":3908:3929  msg.sender == d.buyer */\n      0xffffffffffffffffffffffffffffffffffffffff\n      and\n        /* \"AgroPay.sol\":3908:3918  msg.sender */\n      caller\n        /* \"AgroPay.sol\":3908:3929  msg.sender == d.buyer */\n      0xffffffffffffffffffffffffffffffffffffffff\n      and\n      eq\n        /* \"AgroPay.sol\":3900:3944  require(msg.sender == d.buyer, \"ONLY_BUYER\") */\n      tag_130\n      jumpi\n      mload(0x40)\n      0x08c379a000000000000000000000000000000000000000000000000000000000\n      dup2\n      mstore\n      0x04\n      add\n      tag_131\n      swap1\n      tag_80\n      jump\t// in\n    tag_131:\n      mload(0x40)\n      dup1\n      swap2\n      sub\n      swap1\n      revert\n    tag_130:\n        /* \"AgroPay.sol\":3982:3983  d */\n      dup1\n        /* \"AgroPay.sol\":3982:3992  d.deadline */\n      0x04\n      add\n      0x00\n      swap1\n      sload\n      swap1\n      0x0100\n      exp\n      swap1\n      div\n      0xffffffffffffffff\n      and\n        /* \"AgroPay.sol\":3963:3992  block.timestamp <= d.deadline */\n      0xffffffffffffffff\n      and\n        /* \"AgroPay.sol\":3963:3978  block.timestamp */\n      timestamp\n        /* \"AgroPay.sol\":3963:3992  block.timestamp <= d.deadline */\n      gt\n      iszero\n        /* \"AgroPay.sol\":3955:4011  require(block.timestamp <= d.deadline, \"AFTER_DEADLINE\") */\n      tag_132\n      jumpi\n      mload(0x40)\n      0x08c379a000000000000000000000000000000000000000000000000000000000\n      dup2\n      mstore\n      0x04\n      add\n      tag_133\n      swap1\n      tag_134\n      jump\t// in\n    tag_133:\n      mload(0x40)\n      dup1\n      swap2\n      sub\n      swap1\n      revert\n    tag_132:\n        /* \"AgroPay.sol\":4033:4049  Status.Delivered */\n      0x03\n        /* \"AgroPay.sol\":4022:4023  d */\n      dup2\n        /* \"AgroPay.sol\":4022:4030  d.status */\n      0x04\n      add\n      0x08\n        /* \"AgroPay.sol\":4022:4049  d.status = Status.Delivered */\n      0x0100\n      exp\n      dup2\n      sload\n      dup2\n      0xff\n      mul\n      not\n      and\n      swap1\n      dup4\n      0x04\n      dup2\n      gt\n      iszero\n      tag_135\n      jumpi\n      tag_136\n      tag_59\n      jump\t// in\n    tag_136:\n    tag_135:\n      mul\n      or\n      swap1\n      sstore\n      pop\n        /* \"AgroPay.sol\":4075:4081  dealId */\n      dup2\n        /* \"AgroPay.sol\":4065:4082  Delivered(dealId) */\n      0xfcc296b8bdd64e3f1d1faadef50cb2d6550f645316330fe57cb1dd7e0612ead0\n      mload(0x40)\n      mload(0x40)\n      dup1\n      swap2\n      sub\n      swap1\n      log2\n        /* \"AgroPay.sol\":4093:4125  _pay(d.token, d.seller, d.price) */\n      tag_137\n        /* \"AgroPay.sol\":4098:4099  d */\n      dup2\n        /* \"AgroPay.sol\":4098:4105  d.token */\n      0x02\n      add\n      0x00\n      swap1\n      sload\n      swap1\n      0x0100\n      exp\n      swap1\n      div\n      0xffffffffffffffffffffffffffffffffffffffff\n      and\n        /* \"AgroPay.sol\":4107:4108  d */\n      dup3\n        /* \"AgroPay.sol\":4107:4115  d.seller */\n      0x01\n      add\n      0x00\n      swap1\n      sload\n      swap1\n      0x0100\n      exp\n      swap1\n      div\n      0xffffffffffffffffffffffffffffffffffffffff\n      and\n        /* \"AgroPay.sol\":4117:4118  d */\n      dup4\n        /* \"AgroPay.sol\":4117:4124  d.price */\n      0x03\n      add\n      sload\n        /* \"AgroPay.sol\":4093:4097  _pay */\n      tag_84\n        /* \"AgroPay.sol\":4093:4125  _pay(d.token, d.seller, d.price) */\n      jump\t// in\n    tag_137:\n        /* \"AgroPay.sol\":4150:4156  dealId */\n      dup2\n        /* \"AgroPay.sol\":4141:4176  Released(dealId, d.price, d.seller) */\n      0xdf4272fe23c514e87c5a27bf91662b78c3ffa601cda0803f8135331bce958ef1\n        /* \"AgroPay.sol\":4158:4159  d */\n      dup3\n        /* \"AgroPay.sol\":4158:4165  d.price */\n      0x03\n      add\n      sload\n        /* \"AgroPay.sol\":4167:4168  d */\n      dup4\n        /* \"AgroPay.sol\":4167:4175  d.seller */\n      0x01\n      add\n      0x00\n      swap1\n      sload\n      swap1\n      0x0100\n      exp\n      swap1\n      div\n      0xffffffffffffffffffffffffffffffffffffffff\n      and\n        /* \"AgroPay.sol\":4141:4176  Released(dealId, d.price, d.seller) */\n      mload(0x40)\n      tag_138\n      swap3\n      swap2\n      swap1\n      tag_86\n      jump\t// in\n    tag_138:\n      mload(0x40)\n      dup1\n      swap2\n      sub\n      swap1\n      log2\n        /* \"AgroPay.sol\":3789:4184  {... */\n      pop\n        /* \"AgroPay.sol\":3739:4184  function confirmDelivery(uint256 dealId) external {... */\n      pop\n      jump\t// out\n        /* \"AgroPay.sol\":1985:2333  function _pay(address token, address to, uint256 amount) internal {... */\n    tag_84:\n        /* \"AgroPay.sol\":2076:2077  0 */\n      0x00\n        /* \"AgroPay.sol\":2066:2072  amount */\n      dup2\n        /* \"AgroPay.sol\":2066:2077  amount == 0 */\n      sub\n        /* \"AgroPay.sol\":2062:2086  if (amount == 0) return; */\n      iszero\n        /* \"AgroPay.sol\":2079:2086  return; */\n      tag_139\n        /* \"AgroPay.sol\":2062:2086  if (amount == 0) return; */\n      jumpi\n        /* \"AgroPay.sol\":2117:2118  0 */\n      0x00\n        /* \"AgroPay.sol\":2100:2119  token == address(0) */\n      0xffffffffffffffffffffffffffffffffffffffff\n      and\n        /* \"AgroPay.sol\":2100:2105  token */\n      dup4\n        /* \"AgroPay.sol\":2100:2119  token == address(0) */\n      0xffffffffffffffffffffffffffffffffffffffff\n      and\n      sub\n        /* \"AgroPay.sol\":2096:2326  if (token == address(0)) {... */\n      tag_141\n      jumpi\n        /* \"AgroPay.sol\":2137:2144  bool ok */\n      0x00\n        /* \"AgroPay.sol\":2150:2152  to */\n      dup3\n        /* \"AgroPay.sol\":2150:2157  to.call */\n      0xffffffffffffffffffffffffffffffffffffffff\n      and\n        /* \"AgroPay.sol\":2165:2171  amount */\n      dup3\n        /* \"AgroPay.sol\":2150:2176  to.call{value: amount}(\"\") */\n      mload(0x40)\n      tag_142\n      swap1\n      tag_143\n      jump\t// in\n    tag_142:\n      0x00\n      mload(0x40)\n      dup1\n      dup4\n      sub\n      dup2\n      dup6\n      dup8\n      gas\n      call\n      swap3\n      pop\n      pop\n      pop\n      returndatasize\n      dup1\n      0x00\n      dup2\n      eq\n      tag_146\n      jumpi\n      mload(0x40)\n      swap2\n      pop\n      and(add(returndatasize, 0x3f), not(0x1f))\n      dup3\n      add\n      0x40\n      mstore\n      returndatasize\n      dup3\n      mstore\n      returndatasize\n      0x00\n      0x20\n      dup5\n      add\n      returndatacopy\n      jump(tag_145)\n    tag_146:\n      0x60\n      swap2\n      pop\n    tag_145:\n      pop\n        /* \"AgroPay.sol\":2136:2176  (bool ok, ) = to.call{value: amount}(\"\") */\n      pop\n      swap1\n      pop\n        /* \"AgroPay.sol\":2199:2201  ok */\n      dup1\n        /* \"AgroPay.sol\":2191:2219  require(ok, \"ETH_SEND_FAIL\") */\n      tag_147\n      jumpi\n      mload(0x40)\n      0x08c379a000000000000000000000000000000000000000000000000000000000\n      dup2\n      mstore\n      0x04\n      add\n      tag_148\n      swap1\n      tag_149\n      jump\t// in\n    tag_148:\n      mload(0x40)\n      dup1\n      swap2\n      sub\n      swap1\n      revert\n    tag_147:\n        /* \"AgroPay.sol\":2121:2231  {... */\n      pop\n        /* \"AgroPay.sol\":2096:2326  if (token == address(0)) {... */\n      jump(tag_150)\n    tag_141:\n        /* \"AgroPay.sol\":2267:2272  token */\n      dup3\n        /* \"AgroPay.sol\":2260:2282  IERC20(token).transfer */\n      0xffffffffffffffffffffffffffffffffffffffff\n      and\n      0xa9059cbb\n        /* \"AgroPay.sol\":2283:2285  to */\n      dup4\n        /* \"AgroPay.sol\":2287:2293  amount */\n      dup4\n        /* \"AgroPay.sol\":2260:2294  IERC20(token).transfer(to, amount) */\n      mload(0x40)\n      dup4\n      0xffffffff\n      and\n      0xe0\n      shl\n      dup2\n      mstore\n      0x04\n      add\n      tag_151\n      swap3\n      swap2\n      swap1\n      tag_152\n      jump\t// in\n    tag_151:\n      0x20\n      mload(0x40)\n      dup1\n      dup4\n      sub\n      dup2\n      0x00\n      dup8\n      gas\n      call\n      iszero\n      dup1\n      iszero\n      tag_154\n      jumpi\n      returndatasize\n      0x00\n      dup1\n      returndatacopy\n      revert(0x00, returndatasize)\n    tag_154:\n      pop\n      pop\n      pop\n      pop\n      mload(0x40)\n      returndatasize\n      not(0x1f)\n      0x1f\n      dup3\n      add\n      and\n      dup3\n      add\n      dup1\n      0x40\n      mstore\n      pop\n      dup2\n      add\n      swap1\n      tag_155\n      swap2\n      swap1\n      tag_156\n      jump\t// in\n    tag_155:\n        /* \"AgroPay.sol\":2252:2314  require(IERC20(token).transfer(to, amount), \"ERC20_SEND_FAIL\") */\n      tag_157\n      jumpi\n      mload(0x40)\n      0x08c379a000000000000000000000000000000000000000000000000000000000\n      dup2\n      mstore\n      0x04\n      add\n      tag_158\n      swap1\n      tag_159\n      jump\t// in\n    tag_158:\n      mload(0x40)\n      dup1\n      swap2\n      sub\n      swap1\n      revert\n    tag_157:\n        /* \"AgroPay.sol\":2096:2326  if (token == address(0)) {... */\n    tag_150:\n        /* \"AgroPay.sol\":1985:2333  function _pay(address token, address to, uint256 amount) internal {... */\n    tag_139:\n      pop\n      pop\n      pop\n      jump\t// out\n        /* \"AgroPay.sol\":1676:1977  function _pull(address token, address from, uint256 amount) internal {... */\n    tag_97:\n        /* \"AgroPay.sol\":1777:1778  0 */\n      0x00\n        /* \"AgroPay.sol\":1760:1779  token == address(0) */\n      0xffffffffffffffffffffffffffffffffffffffff\n      and\n        /* \"AgroPay.sol\":1760:1765  token */\n      dup4\n        /* \"AgroPay.sol\":1760:1779  token == address(0) */\n      0xffffffffffffffffffffffffffffffffffffffff\n      and\n      sub\n        /* \"AgroPay.sol\":1756:1970  if (token == address(0)) {... */\n      tag_161\n      jumpi\n        /* \"AgroPay.sol\":1817:1823  amount */\n      dup1\n        /* \"AgroPay.sol\":1804:1813  msg.value */\n      callvalue\n        /* \"AgroPay.sol\":1804:1823  msg.value == amount */\n      eq\n        /* \"AgroPay.sol\":1796:1842  require(msg.value == amount, \"BAD_ETH_AMOUNT\") */\n      tag_162\n      jumpi\n      mload(0x40)\n      0x08c379a000000000000000000000000000000000000000000000000000000000\n      dup2\n      mstore\n      0x04\n      add\n      tag_163\n      swap1\n      tag_164\n      jump\t// in\n    tag_163:\n      mload(0x40)\n      dup1\n      swap2\n      sub\n      swap1\n      revert\n    tag_162:\n        /* \"AgroPay.sol\":1756:1970  if (token == address(0)) {... */\n      jump(tag_165)\n    tag_161:\n        /* \"AgroPay.sol\":1890:1895  token */\n      dup3\n        /* \"AgroPay.sol\":1883:1909  IERC20(token).transferFrom */\n      0xffffffffffffffffffffffffffffffffffffffff\n      and\n      0x23b872dd\n        /* \"AgroPay.sol\":1910:1914  from */\n      dup4\n        /* \"AgroPay.sol\":1924:1928  this */\n      address\n        /* \"AgroPay.sol\":1931:1937  amount */\n      dup5\n        /* \"AgroPay.sol\":1883:1938  IERC20(token).transferFrom(from, address(this), amount) */\n      mload(0x40)\n      dup5\n      0xffffffff\n      and\n      0xe0\n      shl\n      dup2\n      mstore\n      0x04\n      add\n      tag_166\n      swap4\n      swap3\n      swap2\n      swap1\n      tag_167\n      jump\t// in\n    tag_166:\n      0x20\n      mload(0x40)\n      dup1\n      dup4\n      sub\n      dup2\n      0x00\n      dup8\n      gas\n      call\n      iszero\n      dup1\n      iszero\n      tag_169\n      jumpi\n      returndatasize\n      0x00\n      dup1\n      returndatacopy\n      revert(0x00, returndatasize)\n    tag_169:\n      pop\n      pop\n      pop\n      pop\n      mload(0x40)\n      returndatasize\n      not(0x1f)\n      0x1f\n      dup3\n      add\n      and\n      dup3\n      add\n      dup1\n      0x40\n      mstore\n      pop\n      dup2\n      add\n      swap1\n      tag_170\n      swap2\n      swap1\n      tag_156\n      jump\t// in\n    tag_170:\n        /* \"AgroPay.sol\":1875:1958  require(IERC20(token).transferFrom(from, address(this), amount), \"ERC20_PULL_FAIL\") */\n      tag_171\n      jumpi\n      mload(0x40)\n      0x08c379a000000000000000000000000000000000000000000000000000000000\n      dup2\n      mstore\n      0x04\n      add\n      tag_172\n      swap1\n      tag_173\n      jump\t// in\n    tag_172:\n      mload(0x40)\n      dup1\n      swap2\n      sub\n      swap1\n      revert\n    tag_171:\n        /* \"AgroPay.sol\":1756:1970  if (token == address(0)) {... */\n    tag_165:\n        /* \"AgroPay.sol\":1676:1977  function _pull(address token, address from, uint256 amount) internal {... */\n      pop\n      pop\n      pop\n      jump\t// out\n    tag_55:\n      mload(0x40)\n      dup1\n      0x0100\n      add\n      0x40\n      mstore\n      dup1\n      and(0xffffffffffffffffffffffffffffffffffffffff, 0x00)\n      dup2\n      mstore\n      0x20\n      add\n      and(0xffffffffffffffffffffffffffffffffffffffff, 0x00)\n      dup2\n      mstore\n      0x20\n      add\n      and(0xffffffffffffffffffffffffffffffffffffffff, 0x00)\n      dup2\n      mstore\n      0x20\n      add\n      0x00\n      dup2\n      mstore\n      0x20\n      add\n      and(0xffffffffffffffff, 0x00)\n      dup2\n      mstore\n      0x20\n      add\n      0x00\n      0x04\n      dup2\n      gt\n      iszero\n      tag_174\n      jumpi\n      tag_175\n      tag_59\n      jump\t// in\n    tag_175:\n    tag_174:\n      dup2\n      mstore\n      0x20\n      add\n      0x60\n      dup2\n      mstore\n      0x20\n      add\n      0x00\n      dup2\n      mstore\n      pop\n      swap1\n      jump\t// out\n        /* \"#utility.yul\":88:205   */\n    tag_177:\n        /* \"#utility.yul\":197:198   */\n      0x00\n        /* \"#utility.yul\":194:195   */\n      dup1\n        /* \"#utility.yul\":187:199   */\n      revert\n        /* \"#utility.yul\":211:328   */\n    tag_178:\n        /* \"#utility.yul\":320:321   */\n      0x00\n        /* \"#utility.yul\":317:318   */\n      dup1\n        /* \"#utility.yul\":310:322   */\n      revert\n        /* \"#utility.yul\":334:411   */\n    tag_179:\n        /* \"#utility.yul\":371:378   */\n      0x00\n        /* \"#utility.yul\":400:405   */\n      dup2\n        /* \"#utility.yul\":389:405   */\n      swap1\n      pop\n        /* \"#utility.yul\":334:411   */\n      swap2\n      swap1\n      pop\n      jump\t// out\n        /* \"#utility.yul\":417:539   */\n    tag_180:\n        /* \"#utility.yul\":490:514   */\n      tag_266\n        /* \"#utility.yul\":508:513   */\n      dup2\n        /* \"#utility.yul\":490:514   */\n      tag_179\n      jump\t// in\n    tag_266:\n        /* \"#utility.yul\":483:488   */\n      dup2\n        /* \"#utility.yul\":480:515   */\n      eq\n        /* \"#utility.yul\":470:533   */\n      tag_267\n      jumpi\n        /* \"#utility.yul\":529:530   */\n      0x00\n        /* \"#utility.yul\":526:527   */\n      dup1\n        /* \"#utility.yul\":519:531   */\n      revert\n        /* \"#utility.yul\":470:533   */\n    tag_267:\n        /* \"#utility.yul\":417:539   */\n      pop\n      jump\t// out\n        /* \"#utility.yul\":545:684   */\n    tag_181:\n        /* \"#utility.yul\":591:596   */\n      0x00\n        /* \"#utility.yul\":629:635   */\n      dup2\n        /* \"#utility.yul\":616:636   */\n      calldataload\n        /* \"#utility.yul\":607:636   */\n      swap1\n      pop\n        /* \"#utility.yul\":645:678   */\n      tag_269\n        /* \"#utility.yul\":672:677   */\n      dup2\n        /* \"#utility.yul\":645:678   */\n      tag_180\n      jump\t// in\n    tag_269:\n        /* \"#utility.yul\":545:684   */\n      swap3\n      swap2\n      pop\n      pop\n      jump\t// out\n        /* \"#utility.yul\":690:1019   */\n    tag_16:\n        /* \"#utility.yul\":749:755   */\n      0x00\n        /* \"#utility.yul\":798:800   */\n      0x20\n        /* \"#utility.yul\":786:795   */\n      dup3\n        /* \"#utility.yul\":777:784   */\n      dup5\n        /* \"#utility.yul\":773:796   */\n      sub\n        /* \"#utility.yul\":769:801   */\n      slt\n        /* \"#utility.yul\":766:885   */\n      iszero\n      tag_271\n      jumpi\n        /* \"#utility.yul\":804:883   */\n      tag_272\n      tag_177\n      jump\t// in\n    tag_272:\n        /* \"#utility.yul\":766:885   */\n    tag_271:\n        /* \"#utility.yul\":924:925   */\n      0x00\n        /* \"#utility.yul\":949:1002   */\n      tag_273\n        /* \"#utility.yul\":994:1001   */\n      dup5\n        /* \"#utility.yul\":985:991   */\n      dup3\n        /* \"#utility.yul\":974:983   */\n      dup6\n        /* \"#utility.yul\":970:992   */\n      add\n        /* \"#utility.yul\":949:1002   */\n      tag_181\n      jump\t// in\n    tag_273:\n        /* \"#utility.yul\":939:1002   */\n      swap2\n      pop\n        /* \"#utility.yul\":895:1012   */\n      pop\n        /* \"#utility.yul\":690:1019   */\n      swap3\n      swap2\n      pop\n      pop\n      jump\t// out\n        /* \"#utility.yul\":1025:1151   */\n    tag_182:\n        /* \"#utility.yul\":1062:1069   */\n      0x00\n        /* \"#utility.yul\":1102:1144   */\n      0xffffffffffffffffffffffffffffffffffffffff\n        /* \"#utility.yul\":1095:1100   */\n      dup3\n        /* \"#utility.yul\":1091:1145   */\n      and\n        /* \"#utility.yul\":1080:1145   */\n      swap1\n      pop\n        /* \"#utility.yul\":1025:1151   */\n      swap2\n      swap1\n      pop\n      jump\t// out\n        /* \"#utility.yul\":1157:1253   */\n    tag_183:\n        /* \"#utility.yul\":1194:1201   */\n      0x00\n        /* \"#utility.yul\":1223:1247   */\n      tag_276\n        /* \"#utility.yul\":1241:1246   */\n      dup3\n        /* \"#utility.yul\":1223:1247   */\n      tag_182\n      jump\t// in\n    tag_276:\n        /* \"#utility.yul\":1212:1247   */\n      swap1\n      pop\n        /* \"#utility.yul\":1157:1253   */\n      swap2\n      swap1\n      pop\n      jump\t// out\n        /* \"#utility.yul\":1259:1377   */\n    tag_184:\n        /* \"#utility.yul\":1346:1370   */\n      tag_278\n        /* \"#utility.yul\":1364:1369   */\n      dup2\n        /* \"#utility.yul\":1346:1370   */\n      tag_183\n      jump\t// in\n    tag_278:\n        /* \"#utility.yul\":1341:1344   */\n      dup3\n        /* \"#utility.yul\":1334:1371   */\n      mstore\n        /* \"#utility.yul\":1259:1377   */\n      pop\n      pop\n      jump\t// out\n        /* \"#utility.yul\":1383:1501   */\n    tag_185:\n        /* \"#utility.yul\":1470:1494   */\n      tag_280\n        /* \"#utility.yul\":1488:1493   */\n      dup2\n        /* \"#utility.yul\":1470:1494   */\n      tag_179\n      jump\t// in\n    tag_280:\n        /* \"#utility.yul\":1465:1468   */\n      dup3\n        /* \"#utility.yul\":1458:1495   */\n      mstore\n        /* \"#utility.yul\":1383:1501   */\n      pop\n      pop\n      jump\t// out\n        /* \"#utility.yul\":1507:1608   */\n    tag_186:\n        /* \"#utility.yul\":1543:1550   */\n      0x00\n        /* \"#utility.yul\":1583:1601   */\n      0xffffffffffffffff\n        /* \"#utility.yul\":1576:1581   */\n      dup3\n        /* \"#utility.yul\":1572:1602   */\n      and\n        /* \"#utility.yul\":1561:1602   */\n      swap1\n      pop\n        /* \"#utility.yul\":1507:1608   */\n      swap2\n      swap1\n      pop\n      jump\t// out\n        /* \"#utility.yul\":1614:1729   */\n    tag_187:\n        /* \"#utility.yul\":1699:1722   */\n      tag_283\n        /* \"#utility.yul\":1716:1721   */\n      dup2\n        /* \"#utility.yul\":1699:1722   */\n      tag_186\n      jump\t// in\n    tag_283:\n        /* \"#utility.yul\":1694:1697   */\n      dup3\n        /* \"#utility.yul\":1687:1723   */\n      mstore\n        /* \"#utility.yul\":1614:1729   */\n      pop\n      pop\n      jump\t// out\n        /* \"#utility.yul\":1735:1915   */\n    tag_59:\n        /* \"#utility.yul\":1783:1860   */\n      0x4e487b7100000000000000000000000000000000000000000000000000000000\n        /* \"#utility.yul\":1780:1781   */\n      0x00\n        /* \"#utility.yul\":1773:1861   */\n      mstore\n        /* \"#utility.yul\":1880:1884   */\n      0x21\n        /* \"#utility.yul\":1877:1878   */\n      0x04\n        /* \"#utility.yul\":1870:1885   */\n      mstore\n        /* \"#utility.yul\":1904:1908   */\n      0x24\n        /* \"#utility.yul\":1901:1902   */\n      0x00\n        /* \"#utility.yul\":1894:1909   */\n      revert\n        /* \"#utility.yul\":1921:2035   */\n    tag_188:\n        /* \"#utility.yul\":2003:2004   */\n      0x05\n        /* \"#utility.yul\":1996:2001   */\n      dup2\n        /* \"#utility.yul\":1993:2005   */\n      lt\n        /* \"#utility.yul\":1983:2029   */\n      tag_286\n      jumpi\n        /* \"#utility.yul\":2009:2027   */\n      tag_287\n      tag_59\n      jump\t// in\n    tag_287:\n        /* \"#utility.yul\":1983:2029   */\n    tag_286:\n        /* \"#utility.yul\":1921:2035   */\n      pop\n      jump\t// out\n        /* \"#utility.yul\":2041:2170   */\n    tag_189:\n        /* \"#utility.yul\":2087:2094   */\n      0x00\n        /* \"#utility.yul\":2116:2121   */\n      dup2\n        /* \"#utility.yul\":2105:2121   */\n      swap1\n      pop\n        /* \"#utility.yul\":2122:2164   */\n      tag_289\n        /* \"#utility.yul\":2158:2163   */\n      dup3\n        /* \"#utility.yul\":2122:2164   */\n      tag_188\n      jump\t// in\n    tag_289:\n        /* \"#utility.yul\":2041:2170   */\n      swap2\n      swap1\n      pop\n      jump\t// out\n        /* \"#utility.yul\":2176:2305   */\n    tag_190:\n        /* \"#utility.yul\":2233:2242   */\n      0x00\n        /* \"#utility.yul\":2266:2299   */\n      tag_291\n        /* \"#utility.yul\":2293:2298   */\n      dup3\n        /* \"#utility.yul\":2266:2299   */\n      tag_189\n      jump\t// in\n    tag_291:\n        /* \"#utility.yul\":2253:2299   */\n      swap1\n      pop\n        /* \"#utility.yul\":2176:2305   */\n      swap2\n      swap1\n      pop\n      jump\t// out\n        /* \"#utility.yul\":2311:2456   */\n    tag_191:\n        /* \"#utility.yul\":2405:2449   */\n      tag_293\n        /* \"#utility.yul\":2443:2448   */\n      dup2\n        /* \"#utility.yul\":2405:2449   */\n      tag_190\n      jump\t// in\n    tag_293:\n        /* \"#utility.yul\":2400:2403   */\n      dup3\n        /* \"#utility.yul\":2393:2450   */\n      mstore\n        /* \"#utility.yul\":2311:2456   */\n      pop\n      pop\n      jump\t// out\n        /* \"#utility.yul\":2462:2561   */\n    tag_192:\n        /* \"#utility.yul\":2514:2520   */\n      0x00\n        /* \"#utility.yul\":2548:2553   */\n      dup2\n        /* \"#utility.yul\":2542:2554   */\n      mload\n        /* \"#utility.yul\":2532:2554   */\n      swap1\n      pop\n        /* \"#utility.yul\":2462:2561   */\n      swap2\n      swap1\n      pop\n      jump\t// out\n        /* \"#utility.yul\":2567:2736   */\n    tag_193:\n        /* \"#utility.yul\":2651:2662   */\n      0x00\n        /* \"#utility.yul\":2685:2691   */\n      dup3\n        /* \"#utility.yul\":2680:2683   */\n      dup3\n        /* \"#utility.yul\":2673:2692   */\n      mstore\n        /* \"#utility.yul\":2725:2729   */\n      0x20\n        /* \"#utility.yul\":2720:2723   */\n      dup3\n        /* \"#utility.yul\":2716:2730   */\n      add\n        /* \"#utility.yul\":2701:2730   */\n      swap1\n      pop\n        /* \"#utility.yul\":2567:2736   */\n      swap3\n      swap2\n      pop\n      pop\n      jump\t// out\n        /* \"#utility.yul\":2742:2988   */\n    tag_194:\n        /* \"#utility.yul\":2823:2824   */\n      0x00\n        /* \"#utility.yul\":2833:2946   */\n    tag_297:\n        /* \"#utility.yul\":2847:2853   */\n      dup4\n        /* \"#utility.yul\":2844:2845   */\n      dup2\n        /* \"#utility.yul\":2841:2854   */\n      lt\n        /* \"#utility.yul\":2833:2946   */\n      iszero\n      tag_299\n      jumpi\n        /* \"#utility.yul\":2932:2933   */\n      dup1\n        /* \"#utility.yul\":2927:2930   */\n      dup3\n        /* \"#utility.yul\":2923:2934   */\n      add\n        /* \"#utility.yul\":2917:2935   */\n      mload\n        /* \"#utility.yul\":2913:2914   */\n      dup2\n        /* \"#utility.yul\":2908:2911   */\n      dup5\n        /* \"#utility.yul\":2904:2915   */\n      add\n        /* \"#utility.yul\":2897:2936   */\n      mstore\n        /* \"#utility.yul\":2869:2871   */\n      0x20\n        /* \"#utility.yul\":2866:2867   */\n      dup2\n        /* \"#utility.yul\":2862:2872   */\n      add\n        /* \"#utility.yul\":2857:2872   */\n      swap1\n      pop\n        /* \"#utility.yul\":2833:2946   */\n      jump(tag_297)\n    tag_299:\n        /* \"#utility.yul\":2980:2981   */\n      0x00\n        /* \"#utility.yul\":2971:2977   */\n      dup5\n        /* \"#utility.yul\":2966:2969   */\n      dup5\n        /* \"#utility.yul\":2962:2978   */\n      add\n        /* \"#utility.yul\":2955:2982   */\n      mstore\n        /* \"#utility.yul\":2804:2988   */\n      pop\n        /* \"#utility.yul\":2742:2988   */\n      pop\n      pop\n      pop\n      jump\t// out\n        /* \"#utility.yul\":2994:3096   */\n    tag_195:\n        /* \"#utility.yul\":3035:3041   */\n      0x00\n        /* \"#utility.yul\":3086:3088   */\n      0x1f\n        /* \"#utility.yul\":3082:3089   */\n      not\n        /* \"#utility.yul\":3077:3079   */\n      0x1f\n        /* \"#utility.yul\":3070:3075   */\n      dup4\n        /* \"#utility.yul\":3066:3080   */\n      add\n        /* \"#utility.yul\":3062:3090   */\n      and\n        /* \"#utility.yul\":3052:3090   */\n      swap1\n      pop\n        /* \"#utility.yul\":2994:3096   */\n      swap2\n      swap1\n      pop\n      jump\t// out\n        /* \"#utility.yul\":3102:3479   */\n    tag_196:\n        /* \"#utility.yul\":3190:3193   */\n      0x00\n        /* \"#utility.yul\":3218:3257   */\n      tag_302\n        /* \"#utility.yul\":3251:3256   */\n      dup3\n        /* \"#utility.yul\":3218:3257   */\n      tag_192\n      jump\t// in\n    tag_302:\n        /* \"#utility.yul\":3273:3344   */\n      tag_303\n        /* \"#utility.yul\":3337:3343   */\n      dup2\n        /* \"#utility.yul\":3332:3335   */\n      dup6\n        /* \"#utility.yul\":3273:3344   */\n      tag_193\n      jump\t// in\n    tag_303:\n        /* \"#utility.yul\":3266:3344   */\n      swap4\n      pop\n        /* \"#utility.yul\":3353:3418   */\n      tag_304\n        /* \"#utility.yul\":3411:3417   */\n      dup2\n        /* \"#utility.yul\":3406:3409   */\n      dup6\n        /* \"#utility.yul\":3399:3403   */\n      0x20\n        /* \"#utility.yul\":3392:3397   */\n      dup7\n        /* \"#utility.yul\":3388:3404   */\n      add\n        /* \"#utility.yul\":3353:3418   */\n      tag_194\n      jump\t// in\n    tag_304:\n        /* \"#utility.yul\":3443:3472   */\n      tag_305\n        /* \"#utility.yul\":3465:3471   */\n      dup2\n        /* \"#utility.yul\":3443:3472   */\n      tag_195\n      jump\t// in\n    tag_305:\n        /* \"#utility.yul\":3438:3441   */\n      dup5\n        /* \"#utility.yul\":3434:3473   */\n      add\n        /* \"#utility.yul\":3427:3473   */\n      swap2\n      pop\n        /* \"#utility.yul\":3194:3479   */\n      pop\n        /* \"#utility.yul\":3102:3479   */\n      swap3\n      swap2\n      pop\n      pop\n      jump\t// out\n        /* \"#utility.yul\":3485:4583   */\n    tag_19:\n        /* \"#utility.yul\":3799:3803   */\n      0x00\n        /* \"#utility.yul\":3837:3840   */\n      0x0100\n        /* \"#utility.yul\":3826:3835   */\n      dup3\n        /* \"#utility.yul\":3822:3841   */\n      add\n        /* \"#utility.yul\":3814:3841   */\n      swap1\n      pop\n        /* \"#utility.yul\":3851:3922   */\n      tag_307\n        /* \"#utility.yul\":3919:3920   */\n      0x00\n        /* \"#utility.yul\":3908:3917   */\n      dup4\n        /* \"#utility.yul\":3904:3921   */\n      add\n        /* \"#utility.yul\":3895:3901   */\n      dup12\n        /* \"#utility.yul\":3851:3922   */\n      tag_184\n      jump\t// in\n    tag_307:\n        /* \"#utility.yul\":3932:4004   */\n      tag_308\n        /* \"#utility.yul\":4000:4002   */\n      0x20\n        /* \"#utility.yul\":3989:3998   */\n      dup4\n        /* \"#utility.yul\":3985:4003   */\n      add\n        /* \"#utility.yul\":3976:3982   */\n      dup11\n        /* \"#utility.yul\":3932:4004   */\n      tag_184\n      jump\t// in\n    tag_308:\n        /* \"#utility.yul\":4014:4086   */\n      tag_309\n        /* \"#utility.yul\":4082:4084   */\n      0x40\n        /* \"#utility.yul\":4071:4080   */\n      dup4\n        /* \"#utility.yul\":4067:4085   */\n      add\n        /* \"#utility.yul\":4058:4064   */\n      dup10\n        /* \"#utility.yul\":4014:4086   */\n      tag_184\n      jump\t// in\n    tag_309:\n        /* \"#utility.yul\":4096:4168   */\n      tag_310\n        /* \"#utility.yul\":4164:4166   */\n      0x60\n        /* \"#utility.yul\":4153:4162   */\n      dup4\n        /* \"#utility.yul\":4149:4167   */\n      add\n        /* \"#utility.yul\":4140:4146   */\n      dup9\n        /* \"#utility.yul\":4096:4168   */\n      tag_185\n      jump\t// in\n    tag_310:\n        /* \"#utility.yul\":4178:4249   */\n      tag_311\n        /* \"#utility.yul\":4244:4247   */\n      0x80\n        /* \"#utility.yul\":4233:4242   */\n      dup4\n        /* \"#utility.yul\":4229:4248   */\n      add\n        /* \"#utility.yul\":4220:4226   */\n      dup8\n        /* \"#utility.yul\":4178:4249   */\n      tag_187\n      jump\t// in\n    tag_311:\n        /* \"#utility.yul\":4259:4339   */\n      tag_312\n        /* \"#utility.yul\":4334:4337   */\n      0xa0\n        /* \"#utility.yul\":4323:4332   */\n      dup4\n        /* \"#utility.yul\":4319:4338   */\n      add\n        /* \"#utility.yul\":4310:4316   */\n      dup7\n        /* \"#utility.yul\":4259:4339   */\n      tag_191\n      jump\t// in\n    tag_312:\n        /* \"#utility.yul\":4387:4396   */\n      dup2\n        /* \"#utility.yul\":4381:4385   */\n      dup2\n        /* \"#utility.yul\":4377:4397   */\n      sub\n        /* \"#utility.yul\":4371:4374   */\n      0xc0\n        /* \"#utility.yul\":4360:4369   */\n      dup4\n        /* \"#utility.yul\":4356:4375   */\n      add\n        /* \"#utility.yul\":4349:4398   */\n      mstore\n        /* \"#utility.yul\":4415:4493   */\n      tag_313\n        /* \"#utility.yul\":4488:4492   */\n      dup2\n        /* \"#utility.yul\":4479:4485   */\n      dup6\n        /* \"#utility.yul\":4415:4493   */\n      tag_196\n      jump\t// in\n    tag_313:\n        /* \"#utility.yul\":4407:4493   */\n      swap1\n      pop\n        /* \"#utility.yul\":4503:4576   */\n      tag_314\n        /* \"#utility.yul\":4571:4574   */\n      0xe0\n        /* \"#utility.yul\":4560:4569   */\n      dup4\n        /* \"#utility.yul\":4556:4575   */\n      add\n        /* \"#utility.yul\":4547:4553   */\n      dup5\n        /* \"#utility.yul\":4503:4576   */\n      tag_185\n      jump\t// in\n    tag_314:\n        /* \"#utility.yul\":3485:4583   */\n      swap10\n      swap9\n      pop\n      pop\n      pop\n      pop\n      pop\n      pop\n      pop\n      pop\n      pop\n      jump\t// out\n        /* \"#utility.yul\":4589:4811   */\n    tag_24:\n        /* \"#utility.yul\":4682:4686   */\n      0x00\n        /* \"#utility.yul\":4720:4722   */\n      0x20\n        /* \"#utility.yul\":4709:4718   */\n      dup3\n        /* \"#utility.yul\":4705:4723   */\n      add\n        /* \"#utility.yul\":4697:4723   */\n      swap1\n      pop\n        /* \"#utility.yul\":4733:4804   */\n      tag_316\n        /* \"#utility.yul\":4801:4802   */\n      0x00\n        /* \"#utility.yul\":4790:4799   */\n      dup4\n        /* \"#utility.yul\":4786:4803   */\n      add\n        /* \"#utility.yul\":4777:4783   */\n      dup5\n        /* \"#utility.yul\":4733:4804   */\n      tag_185\n      jump\t// in\n    tag_316:\n        /* \"#utility.yul\":4589:4811   */\n      swap3\n      swap2\n      pop\n      pop\n      jump\t// out\n        /* \"#utility.yul\":4817:4925   */\n    tag_197:\n        /* \"#utility.yul\":4894:4918   */\n      tag_318\n        /* \"#utility.yul\":4912:4917   */\n      dup2\n        /* \"#utility.yul\":4894:4918   */\n      tag_183\n      jump\t// in\n    tag_318:\n        /* \"#utility.yul\":4889:4892   */\n      dup3\n        /* \"#utility.yul\":4882:4919   */\n      mstore\n        /* \"#utility.yul\":4817:4925   */\n      pop\n      pop\n      jump\t// out\n        /* \"#utility.yul\":4931:5039   */\n    tag_198:\n        /* \"#utility.yul\":5008:5032   */\n      tag_320\n        /* \"#utility.yul\":5026:5031   */\n      dup2\n        /* \"#utility.yul\":5008:5032   */\n      tag_179\n      jump\t// in\n    tag_320:\n        /* \"#utility.yul\":5003:5006   */\n      dup3\n        /* \"#utility.yul\":4996:5033   */\n      mstore\n        /* \"#utility.yul\":4931:5039   */\n      pop\n      pop\n      jump\t// out\n        /* \"#utility.yul\":5045:5150   */\n    tag_199:\n        /* \"#utility.yul\":5120:5143   */\n      tag_322\n        /* \"#utility.yul\":5137:5142   */\n      dup2\n        /* \"#utility.yul\":5120:5143   */\n      tag_186\n      jump\t// in\n    tag_322:\n        /* \"#utility.yul\":5115:5118   */\n      dup3\n        /* \"#utility.yul\":5108:5144   */\n      mstore\n        /* \"#utility.yul\":5045:5150   */\n      pop\n      pop\n      jump\t// out\n        /* \"#utility.yul\":5156:5291   */\n    tag_200:\n        /* \"#utility.yul\":5240:5284   */\n      tag_324\n        /* \"#utility.yul\":5278:5283   */\n      dup2\n        /* \"#utility.yul\":5240:5284   */\n      tag_190\n      jump\t// in\n    tag_324:\n        /* \"#utility.yul\":5235:5238   */\n      dup3\n        /* \"#utility.yul\":5228:5285   */\n      mstore\n        /* \"#utility.yul\":5156:5291   */\n      pop\n      pop\n      jump\t// out\n        /* \"#utility.yul\":5297:5456   */\n    tag_201:\n        /* \"#utility.yul\":5371:5382   */\n      0x00\n        /* \"#utility.yul\":5405:5411   */\n      dup3\n        /* \"#utility.yul\":5400:5403   */\n      dup3\n        /* \"#utility.yul\":5393:5412   */\n      mstore\n        /* \"#utility.yul\":5445:5449   */\n      0x20\n        /* \"#utility.yul\":5440:5443   */\n      dup3\n        /* \"#utility.yul\":5436:5450   */\n      add\n        /* \"#utility.yul\":5421:5450   */\n      swap1\n      pop\n        /* \"#utility.yul\":5297:5456   */\n      swap3\n      swap2\n      pop\n      pop\n      jump\t// out\n        /* \"#utility.yul\":5462:5819   */\n    tag_202:\n        /* \"#utility.yul\":5540:5543   */\n      0x00\n        /* \"#utility.yul\":5568:5607   */\n      tag_327\n        /* \"#utility.yul\":5601:5606   */\n      dup3\n        /* \"#utility.yul\":5568:5607   */\n      tag_192\n      jump\t// in\n    tag_327:\n        /* \"#utility.yul\":5623:5684   */\n      tag_328\n        /* \"#utility.yul\":5677:5683   */\n      dup2\n        /* \"#utility.yul\":5672:5675   */\n      dup6\n        /* \"#utility.yul\":5623:5684   */\n      tag_201\n      jump\t// in\n    tag_328:\n        /* \"#utility.yul\":5616:5684   */\n      swap4\n      pop\n        /* \"#utility.yul\":5693:5758   */\n      tag_329\n        /* \"#utility.yul\":5751:5757   */\n      dup2\n        /* \"#utility.yul\":5746:5749   */\n      dup6\n        /* \"#utility.yul\":5739:5743   */\n      0x20\n        /* \"#utility.yul\":5732:5737   */\n      dup7\n        /* \"#utility.yul\":5728:5744   */\n      add\n        /* \"#utility.yul\":5693:5758   */\n      tag_194\n      jump\t// in\n    tag_329:\n        /* \"#utility.yul\":5783:5812   */\n      tag_330\n        /* \"#utility.yul\":5805:5811   */\n      dup2\n        /* \"#utility.yul\":5783:5812   */\n      tag_195\n      jump\t// in\n    tag_330:\n        /* \"#utility.yul\":5778:5781   */\n      dup5\n        /* \"#utility.yul\":5774:5813   */\n      add\n        /* \"#utility.yul\":5767:5813   */\n      swap2\n      pop\n        /* \"#utility.yul\":5544:5819   */\n      pop\n        /* \"#utility.yul\":5462:5819   */\n      swap3\n      swap2\n      pop\n      pop\n      jump\t// out\n        /* \"#utility.yul\":5881:7548   */\n    tag_203:\n        /* \"#utility.yul\":5990:5993   */\n      0x00\n        /* \"#utility.yul\":6026:6032   */\n      0x0100\n        /* \"#utility.yul\":6021:6024   */\n      dup4\n        /* \"#utility.yul\":6017:6033   */\n      add\n        /* \"#utility.yul\":6116:6120   */\n      0x00\n        /* \"#utility.yul\":6109:6114   */\n      dup4\n        /* \"#utility.yul\":6105:6121   */\n      add\n        /* \"#utility.yul\":6099:6122   */\n      mload\n        /* \"#utility.yul\":6135:6198   */\n      tag_332\n        /* \"#utility.yul\":6192:6196   */\n      0x00\n        /* \"#utility.yul\":6187:6190   */\n      dup7\n        /* \"#utility.yul\":6183:6197   */\n      add\n        /* \"#utility.yul\":6169:6181   */\n      dup3\n        /* \"#utility.yul\":6135:6198   */\n      tag_197\n      jump\t// in\n    tag_332:\n        /* \"#utility.yul\":6043:6208   */\n      pop\n        /* \"#utility.yul\":6292:6296   */\n      0x20\n        /* \"#utility.yul\":6285:6290   */\n      dup4\n        /* \"#utility.yul\":6281:6297   */\n      add\n        /* \"#utility.yul\":6275:6298   */\n      mload\n        /* \"#utility.yul\":6311:6374   */\n      tag_333\n        /* \"#utility.yul\":6368:6372   */\n      0x20\n        /* \"#utility.yul\":6363:6366   */\n      dup7\n        /* \"#utility.yul\":6359:6373   */\n      add\n        /* \"#utility.yul\":6345:6357   */\n      dup3\n        /* \"#utility.yul\":6311:6374   */\n      tag_197\n      jump\t// in\n    tag_333:\n        /* \"#utility.yul\":6218:6384   */\n      pop\n        /* \"#utility.yul\":6467:6471   */\n      0x40\n        /* \"#utility.yul\":6460:6465   */\n      dup4\n        /* \"#utility.yul\":6456:6472   */\n      add\n        /* \"#utility.yul\":6450:6473   */\n      mload\n        /* \"#utility.yul\":6486:6549   */\n      tag_334\n        /* \"#utility.yul\":6543:6547   */\n      0x40\n        /* \"#utility.yul\":6538:6541   */\n      dup7\n        /* \"#utility.yul\":6534:6548   */\n      add\n        /* \"#utility.yul\":6520:6532   */\n      dup3\n        /* \"#utility.yul\":6486:6549   */\n      tag_197\n      jump\t// in\n    tag_334:\n        /* \"#utility.yul\":6394:6559   */\n      pop\n        /* \"#utility.yul\":6642:6646   */\n      0x60\n        /* \"#utility.yul\":6635:6640   */\n      dup4\n        /* \"#utility.yul\":6631:6647   */\n      add\n        /* \"#utility.yul\":6625:6648   */\n      mload\n        /* \"#utility.yul\":6661:6724   */\n      tag_335\n        /* \"#utility.yul\":6718:6722   */\n      0x60\n        /* \"#utility.yul\":6713:6716   */\n      dup7\n        /* \"#utility.yul\":6709:6723   */\n      add\n        /* \"#utility.yul\":6695:6707   */\n      dup3\n        /* \"#utility.yul\":6661:6724   */\n      tag_198\n      jump\t// in\n    tag_335:\n        /* \"#utility.yul\":6569:6734   */\n      pop\n        /* \"#utility.yul\":6820:6824   */\n      0x80\n        /* \"#utility.yul\":6813:6818   */\n      dup4\n        /* \"#utility.yul\":6809:6825   */\n      add\n        /* \"#utility.yul\":6803:6826   */\n      mload\n        /* \"#utility.yul\":6839:6900   */\n      tag_336\n        /* \"#utility.yul\":6894:6898   */\n      0x80\n        /* \"#utility.yul\":6889:6892   */\n      dup7\n        /* \"#utility.yul\":6885:6899   */\n      add\n        /* \"#utility.yul\":6871:6883   */\n      dup3\n        /* \"#utility.yul\":6839:6900   */\n      tag_199\n      jump\t// in\n    tag_336:\n        /* \"#utility.yul\":6744:6910   */\n      pop\n        /* \"#utility.yul\":6994:6998   */\n      0xa0\n        /* \"#utility.yul\":6987:6992   */\n      dup4\n        /* \"#utility.yul\":6983:6999   */\n      add\n        /* \"#utility.yul\":6977:7000   */\n      mload\n        /* \"#utility.yul\":7013:7083   */\n      tag_337\n        /* \"#utility.yul\":7077:7081   */\n      0xa0\n        /* \"#utility.yul\":7072:7075   */\n      dup7\n        /* \"#utility.yul\":7068:7082   */\n      add\n        /* \"#utility.yul\":7054:7066   */\n      dup3\n        /* \"#utility.yul\":7013:7083   */\n      tag_200\n      jump\t// in\n    tag_337:\n        /* \"#utility.yul\":6920:7093   */\n      pop\n        /* \"#utility.yul\":7180:7184   */\n      0xc0\n        /* \"#utility.yul\":7173:7178   */\n      dup4\n        /* \"#utility.yul\":7169:7185   */\n      add\n        /* \"#utility.yul\":7163:7186   */\n      mload\n        /* \"#utility.yul\":7233:7236   */\n      dup5\n        /* \"#utility.yul\":7227:7231   */\n      dup3\n        /* \"#utility.yul\":7223:7237   */\n      sub\n        /* \"#utility.yul\":7216:7220   */\n      0xc0\n        /* \"#utility.yul\":7211:7214   */\n      dup7\n        /* \"#utility.yul\":7207:7221   */\n      add\n        /* \"#utility.yul\":7200:7238   */\n      mstore\n        /* \"#utility.yul\":7259:7332   */\n      tag_338\n        /* \"#utility.yul\":7327:7331   */\n      dup3\n        /* \"#utility.yul\":7313:7325   */\n      dup3\n        /* \"#utility.yul\":7259:7332   */\n      tag_202\n      jump\t// in\n    tag_338:\n        /* \"#utility.yul\":7251:7332   */\n      swap2\n      pop\n        /* \"#utility.yul\":7103:7343   */\n      pop\n        /* \"#utility.yul\":7429:7433   */\n      0xe0\n        /* \"#utility.yul\":7422:7427   */\n      dup4\n        /* \"#utility.yul\":7418:7434   */\n      add\n        /* \"#utility.yul\":7412:7435   */\n      mload\n        /* \"#utility.yul\":7448:7511   */\n      tag_339\n        /* \"#utility.yul\":7505:7509   */\n      0xe0\n        /* \"#utility.yul\":7500:7503   */\n      dup7\n        /* \"#utility.yul\":7496:7510   */\n      add\n        /* \"#utility.yul\":7482:7494   */\n      dup3\n        /* \"#utility.yul\":7448:7511   */\n      tag_198\n      jump\t// in\n    tag_339:\n        /* \"#utility.yul\":7353:7521   */\n      pop\n        /* \"#utility.yul\":7538:7542   */\n      dup1\n        /* \"#utility.yul\":7531:7542   */\n      swap2\n      pop\n        /* \"#utility.yul\":5995:7548   */\n      pop\n        /* \"#utility.yul\":5881:7548   */\n      swap3\n      swap2\n      pop\n      pop\n      jump\t// out\n        /* \"#utility.yul\":7554:7907   */\n    tag_30:\n        /* \"#utility.yul\":7687:7691   */\n      0x00\n        /* \"#utility.yul\":7725:7727   */\n      0x20\n        /* \"#utility.yul\":7714:7723   */\n      dup3\n        /* \"#utility.yul\":7710:7728   */\n      add\n        /* \"#utility.yul\":7702:7728   */\n      swap1\n      pop\n        /* \"#utility.yul\":7774:7783   */\n      dup2\n        /* \"#utility.yul\":7768:7772   */\n      dup2\n        /* \"#utility.yul\":7764:7784   */\n      sub\n        /* \"#utility.yul\":7760:7761   */\n      0x00\n        /* \"#utility.yul\":7749:7758   */\n      dup4\n        /* \"#utility.yul\":7745:7762   */\n      add\n        /* \"#utility.yul\":7738:7785   */\n      mstore\n        /* \"#utility.yul\":7802:7900   */\n      tag_341\n        /* \"#utility.yul\":7895:7899   */\n      dup2\n        /* \"#utility.yul\":7886:7892   */\n      dup5\n        /* \"#utility.yul\":7802:7900   */\n      tag_203\n      jump\t// in\n    tag_341:\n        /* \"#utility.yul\":7794:7900   */\n      swap1\n      pop\n        /* \"#utility.yul\":7554:7907   */\n      swap3\n      swap2\n      pop\n      pop\n      jump\t// out\n        /* \"#utility.yul\":7913:8035   */\n    tag_204:\n        /* \"#utility.yul\":7986:8010   */\n      tag_343\n        /* \"#utility.yul\":8004:8009   */\n      dup2\n        /* \"#utility.yul\":7986:8010   */\n      tag_183\n      jump\t// in\n    tag_343:\n        /* \"#utility.yul\":7979:7984   */\n      dup2\n        /* \"#utility.yul\":7976:8011   */\n      eq\n        /* \"#utility.yul\":7966:8029   */\n      tag_344\n      jumpi\n        /* \"#utility.yul\":8025:8026   */\n      0x00\n        /* \"#utility.yul\":8022:8023   */\n      dup1\n        /* \"#utility.yul\":8015:8027   */\n      revert\n        /* \"#utility.yul\":7966:8029   */\n    tag_344:\n        /* \"#utility.yul\":7913:8035   */\n      pop\n      jump\t// out\n        /* \"#utility.yul\":8041:8180   */\n    tag_205:\n        /* \"#utility.yul\":8087:8092   */\n      0x00\n        /* \"#utility.yul\":8125:8131   */\n      dup2\n        /* \"#utility.yul\":8112:8132   */\n      calldataload\n        /* \"#utility.yul\":8103:8132   */\n      swap1\n      pop\n        /* \"#utility.yul\":8141:8174   */\n      tag_346\n        /* \"#utility.yul\":8168:8173   */\n      dup2\n        /* \"#utility.yul\":8141:8174   */\n      tag_204\n      jump\t// in\n    tag_346:\n        /* \"#utility.yul\":8041:8180   */\n      swap3\n      swap2\n      pop\n      pop\n      jump\t// out\n        /* \"#utility.yul\":8186:8303   */\n    tag_206:\n        /* \"#utility.yul\":8295:8296   */\n      0x00\n        /* \"#utility.yul\":8292:8293   */\n      dup1\n        /* \"#utility.yul\":8285:8297   */\n      revert\n        /* \"#utility.yul\":8309:8426   */\n    tag_207:\n        /* \"#utility.yul\":8418:8419   */\n      0x00\n        /* \"#utility.yul\":8415:8416   */\n      dup1\n        /* \"#utility.yul\":8408:8420   */\n      revert\n        /* \"#utility.yul\":8432:8549   */\n    tag_208:\n        /* \"#utility.yul\":8541:8542   */\n      0x00\n        /* \"#utility.yul\":8538:8539   */\n      dup1\n        /* \"#utility.yul\":8531:8543   */\n      revert\n        /* \"#utility.yul\":8569:9122   */\n    tag_209:\n        /* \"#utility.yul\":8627:8635   */\n      0x00\n        /* \"#utility.yul\":8637:8643   */\n      dup1\n        /* \"#utility.yul\":8687:8690   */\n      dup4\n        /* \"#utility.yul\":8680:8684   */\n      0x1f\n        /* \"#utility.yul\":8672:8678   */\n      dup5\n        /* \"#utility.yul\":8668:8685   */\n      add\n        /* \"#utility.yul\":8664:8691   */\n      slt\n        /* \"#utility.yul\":8654:8776   */\n      tag_351\n      jumpi\n        /* \"#utility.yul\":8695:8774   */\n      tag_352\n      tag_206\n      jump\t// in\n    tag_352:\n        /* \"#utility.yul\":8654:8776   */\n    tag_351:\n        /* \"#utility.yul\":8808:8814   */\n      dup3\n        /* \"#utility.yul\":8795:8815   */\n      calldataload\n        /* \"#utility.yul\":8785:8815   */\n      swap1\n      pop\n        /* \"#utility.yul\":8838:8856   */\n      0xffffffffffffffff\n        /* \"#utility.yul\":8830:8836   */\n      dup2\n        /* \"#utility.yul\":8827:8857   */\n      gt\n        /* \"#utility.yul\":8824:8941   */\n      iszero\n      tag_353\n      jumpi\n        /* \"#utility.yul\":8860:8939   */\n      tag_354\n      tag_207\n      jump\t// in\n    tag_354:\n        /* \"#utility.yul\":8824:8941   */\n    tag_353:\n        /* \"#utility.yul\":8974:8978   */\n      0x20\n        /* \"#utility.yul\":8966:8972   */\n      dup4\n        /* \"#utility.yul\":8962:8979   */\n      add\n        /* \"#utility.yul\":8950:8979   */\n      swap2\n      pop\n        /* \"#utility.yul\":9028:9031   */\n      dup4\n        /* \"#utility.yul\":9020:9024   */\n      0x01\n        /* \"#utility.yul\":9012:9018   */\n      dup3\n        /* \"#utility.yul\":9008:9025   */\n      mul\n        /* \"#utility.yul\":8998:9006   */\n      dup4\n        /* \"#utility.yul\":8994:9026   */\n      add\n        /* \"#utility.yul\":8991:9032   */\n      gt\n        /* \"#utility.yul\":8988:9116   */\n      iszero\n      tag_355\n      jumpi\n        /* \"#utility.yul\":9035:9114   */\n      tag_356\n      tag_208\n      jump\t// in\n    tag_356:\n        /* \"#utility.yul\":8988:9116   */\n    tag_355:\n        /* \"#utility.yul\":8569:9122   */\n      swap3\n      pop\n      swap3\n      swap1\n      pop\n      jump\t// out\n        /* \"#utility.yul\":9128:9248   */\n    tag_210:\n        /* \"#utility.yul\":9200:9223   */\n      tag_358\n        /* \"#utility.yul\":9217:9222   */\n      dup2\n        /* \"#utility.yul\":9200:9223   */\n      tag_186\n      jump\t// in\n    tag_358:\n        /* \"#utility.yul\":9193:9198   */\n      dup2\n        /* \"#utility.yul\":9190:9224   */\n      eq\n        /* \"#utility.yul\":9180:9242   */\n      tag_359\n      jumpi\n        /* \"#utility.yul\":9238:9239   */\n      0x00\n        /* \"#utility.yul\":9235:9236   */\n      dup1\n        /* \"#utility.yul\":9228:9240   */\n      revert\n        /* \"#utility.yul\":9180:9242   */\n    tag_359:\n        /* \"#utility.yul\":9128:9248   */\n      pop\n      jump\t// out\n        /* \"#utility.yul\":9254:9391   */\n    tag_211:\n        /* \"#utility.yul\":9299:9304   */\n      0x00\n        /* \"#utility.yul\":9337:9343   */\n      dup2\n        /* \"#utility.yul\":9324:9344   */\n      calldataload\n        /* \"#utility.yul\":9315:9344   */\n      swap1\n      pop\n        /* \"#utility.yul\":9353:9385   */\n      tag_361\n        /* \"#utility.yul\":9379:9384   */\n      dup2\n        /* \"#utility.yul\":9353:9385   */\n      tag_210\n      jump\t// in\n    tag_361:\n        /* \"#utility.yul\":9254:9391   */\n      swap3\n      swap2\n      pop\n      pop\n      jump\t// out\n        /* \"#utility.yul\":9397:10798   */\n    tag_41:\n        /* \"#utility.yul\":9521:9527   */\n      0x00\n        /* \"#utility.yul\":9529:9535   */\n      dup1\n        /* \"#utility.yul\":9537:9543   */\n      0x00\n        /* \"#utility.yul\":9545:9551   */\n      dup1\n        /* \"#utility.yul\":9553:9559   */\n      0x00\n        /* \"#utility.yul\":9561:9567   */\n      dup1\n        /* \"#utility.yul\":9569:9575   */\n      0x00\n        /* \"#utility.yul\":9577:9583   */\n      dup1\n        /* \"#utility.yul\":9626:9629   */\n      0xe0\n        /* \"#utility.yul\":9614:9623   */\n      dup10\n        /* \"#utility.yul\":9605:9612   */\n      dup12\n        /* \"#utility.yul\":9601:9624   */\n      sub\n        /* \"#utility.yul\":9597:9630   */\n      slt\n        /* \"#utility.yul\":9594:9714   */\n      iszero\n      tag_363\n      jumpi\n        /* \"#utility.yul\":9633:9712   */\n      tag_364\n      tag_177\n      jump\t// in\n    tag_364:\n        /* \"#utility.yul\":9594:9714   */\n    tag_363:\n        /* \"#utility.yul\":9753:9754   */\n      0x00\n        /* \"#utility.yul\":9778:9831   */\n      tag_365\n        /* \"#utility.yul\":9823:9830   */\n      dup12\n        /* \"#utility.yul\":9814:9820   */\n      dup3\n        /* \"#utility.yul\":9803:9812   */\n      dup13\n        /* \"#utility.yul\":9799:9821   */\n      add\n        /* \"#utility.yul\":9778:9831   */\n      tag_205\n      jump\t// in\n    tag_365:\n        /* \"#utility.yul\":9768:9831   */\n      swap9\n      pop\n        /* \"#utility.yul\":9724:9841   */\n      pop\n        /* \"#utility.yul\":9880:9882   */\n      0x20\n        /* \"#utility.yul\":9906:9959   */\n      tag_366\n        /* \"#utility.yul\":9951:9958   */\n      dup12\n        /* \"#utility.yul\":9942:9948   */\n      dup3\n        /* \"#utility.yul\":9931:9940   */\n      dup13\n        /* \"#utility.yul\":9927:9949   */\n      add\n        /* \"#utility.yul\":9906:9959   */\n      tag_205\n      jump\t// in\n    tag_366:\n        /* \"#utility.yul\":9896:9959   */\n      swap8\n      pop\n        /* \"#utility.yul\":9851:9969   */\n      pop\n        /* \"#utility.yul\":10036:10038   */\n      0x40\n        /* \"#utility.yul\":10025:10034   */\n      dup10\n        /* \"#utility.yul\":10021:10039   */\n      add\n        /* \"#utility.yul\":10008:10040   */\n      calldataload\n        /* \"#utility.yul\":10067:10085   */\n      0xffffffffffffffff\n        /* \"#utility.yul\":10059:10065   */\n      dup2\n        /* \"#utility.yul\":10056:10086   */\n      gt\n        /* \"#utility.yul\":10053:10170   */\n      iszero\n      tag_367\n      jumpi\n        /* \"#utility.yul\":10089:10168   */\n      tag_368\n      tag_178\n      jump\t// in\n    tag_368:\n        /* \"#utility.yul\":10053:10170   */\n    tag_367:\n        /* \"#utility.yul\":10202:10267   */\n      tag_369\n        /* \"#utility.yul\":10259:10266   */\n      dup12\n        /* \"#utility.yul\":10250:10256   */\n      dup3\n        /* \"#utility.yul\":10239:10248   */\n      dup13\n        /* \"#utility.yul\":10235:10257   */\n      add\n        /* \"#utility.yul\":10202:10267   */\n      tag_209\n      jump\t// in\n    tag_369:\n        /* \"#utility.yul\":10184:10267   */\n      swap7\n      pop\n      swap7\n      pop\n        /* \"#utility.yul\":9979:10277   */\n      pop\n        /* \"#utility.yul\":10316:10318   */\n      0x60\n        /* \"#utility.yul\":10342:10395   */\n      tag_370\n        /* \"#utility.yul\":10387:10394   */\n      dup12\n        /* \"#utility.yul\":10378:10384   */\n      dup3\n        /* \"#utility.yul\":10367:10376   */\n      dup13\n        /* \"#utility.yul\":10363:10385   */\n      add\n        /* \"#utility.yul\":10342:10395   */\n      tag_181\n      jump\t// in\n    tag_370:\n        /* \"#utility.yul\":10332:10395   */\n      swap5\n      pop\n        /* \"#utility.yul\":10287:10405   */\n      pop\n        /* \"#utility.yul\":10444:10447   */\n      0x80\n        /* \"#utility.yul\":10471:10524   */\n      tag_371\n        /* \"#utility.yul\":10516:10523   */\n      dup12\n        /* \"#utility.yul\":10507:10513   */\n      dup3\n        /* \"#utility.yul\":10496:10505   */\n      dup13\n        /* \"#utility.yul\":10492:10514   */\n      add\n        /* \"#utility.yul\":10471:10524   */\n      tag_181\n      jump\t// in\n    tag_371:\n        /* \"#utility.yul\":10461:10524   */\n      swap4\n      pop\n        /* \"#utility.yul\":10415:10534   */\n      pop\n        /* \"#utility.yul\":10573:10576   */\n      0xa0\n        /* \"#utility.yul\":10600:10652   */\n      tag_372\n        /* \"#utility.yul\":10644:10651   */\n      dup12\n        /* \"#utility.yul\":10635:10641   */\n      dup3\n        /* \"#utility.yul\":10624:10633   */\n      dup13\n        /* \"#utility.yul\":10620:10642   */\n      add\n        /* \"#utility.yul\":10600:10652   */\n      tag_211\n      jump\t// in\n    tag_372:\n        /* \"#utility.yul\":10590:10652   */\n      swap3\n      pop\n        /* \"#utility.yul\":10544:10662   */\n      pop\n        /* \"#utility.yul\":10701:10704   */\n      0xc0\n        /* \"#utility.yul\":10728:10781   */\n      tag_373\n        /* \"#utility.yul\":10773:10780   */\n      dup12\n        /* \"#utility.yul\":10764:10770   */\n      dup3\n        /* \"#utility.yul\":10753:10762   */\n      dup13\n        /* \"#utility.yul\":10749:10771   */\n      add\n        /* \"#utility.yul\":10728:10781   */\n      tag_205\n      jump\t// in\n    tag_373:\n        /* \"#utility.yul\":10718:10781   */\n      swap2\n      pop\n        /* \"#utility.yul\":10672:10791   */\n      pop\n        /* \"#utility.yul\":9397:10798   */\n      swap3\n      swap6\n      swap9\n      pop\n      swap3\n      swap6\n      swap9\n      swap1\n      swap4\n      swap7\n      pop\n      jump\t// out\n        /* \"#utility.yul\":10804:10984   */\n    tag_212:\n        /* \"#utility.yul\":10852:10929   */\n      0x4e487b7100000000000000000000000000000000000000000000000000000000\n        /* \"#utility.yul\":10849:10850   */\n      0x00\n        /* \"#utility.yul\":10842:10930   */\n      mstore\n        /* \"#utility.yul\":10949:10953   */\n      0x22\n        /* \"#utility.yul\":10946:10947   */\n      0x04\n        /* \"#utility.yul\":10939:10954   */\n      mstore\n        /* \"#utility.yul\":10973:10977   */\n      0x24\n        /* \"#utility.yul\":10970:10971   */\n      0x00\n        /* \"#utility.yul\":10963:10978   */\n      revert\n        /* \"#utility.yul\":10990:11310   */\n    tag_49:\n        /* \"#utility.yul\":11034:11040   */\n      0x00\n        /* \"#utility.yul\":11071:11072   */\n      0x02\n        /* \"#utility.yul\":11065:11069   */\n      dup3\n        /* \"#utility.yul\":11061:11073   */\n      div\n        /* \"#utility.yul\":11051:11073   */\n      swap1\n      pop\n        /* \"#utility.yul\":11118:11119   */\n      0x01\n        /* \"#utility.yul\":11112:11116   */\n      dup3\n        /* \"#utility.yul\":11108:11120   */\n      and\n        /* \"#utility.yul\":11139:11157   */\n      dup1\n        /* \"#utility.yul\":11129:11210   */\n      tag_376\n      jumpi\n        /* \"#utility.yul\":11195:11199   */\n      0x7f\n        /* \"#utility.yul\":11187:11193   */\n      dup3\n        /* \"#utility.yul\":11183:11200   */\n      and\n        /* \"#utility.yul\":11173:11200   */\n      swap2\n      pop\n        /* \"#utility.yul\":11129:11210   */\n    tag_376:\n        /* \"#utility.yul\":11257:11259   */\n      0x20\n        /* \"#utility.yul\":11249:11255   */\n      dup3\n        /* \"#utility.yul\":11246:11260   */\n      lt\n        /* \"#utility.yul\":11226:11244   */\n      dup2\n        /* \"#utility.yul\":11223:11261   */\n      sub\n        /* \"#utility.yul\":11220:11304   */\n      tag_377\n      jumpi\n        /* \"#utility.yul\":11276:11294   */\n      tag_378\n      tag_212\n      jump\t// in\n    tag_378:\n        /* \"#utility.yul\":11220:11304   */\n    tag_377:\n        /* \"#utility.yul\":11041:11310   */\n      pop\n        /* \"#utility.yul\":10990:11310   */\n      swap2\n      swap1\n      pop\n      jump\t// out\n        /* \"#utility.yul\":11316:11476   */\n    tag_213:\n        /* \"#utility.yul\":11456:11468   */\n      0x4241445f53544154555300000000000000000000000000000000000000000000\n        /* \"#utility.yul\":11452:11453   */\n      0x00\n        /* \"#utility.yul\":11444:11450   */\n      dup3\n        /* \"#utility.yul\":11440:11454   */\n      add\n        /* \"#utility.yul\":11433:11469   */\n      mstore\n        /* \"#utility.yul\":11316:11476   */\n      pop\n      jump\t// out\n        /* \"#utility.yul\":11482:11848   */\n    tag_214:\n        /* \"#utility.yul\":11624:11627   */\n      0x00\n        /* \"#utility.yul\":11645:11712   */\n      tag_381\n        /* \"#utility.yul\":11709:11711   */\n      0x0a\n        /* \"#utility.yul\":11704:11707   */\n      dup4\n        /* \"#utility.yul\":11645:11712   */\n      tag_193\n      jump\t// in\n    tag_381:\n        /* \"#utility.yul\":11638:11712   */\n      swap2\n      pop\n        /* \"#utility.yul\":11721:11814   */\n      tag_382\n        /* \"#utility.yul\":11810:11813   */\n      dup3\n        /* \"#utility.yul\":11721:11814   */\n      tag_213\n      jump\t// in\n    tag_382:\n        /* \"#utility.yul\":11839:11841   */\n      0x20\n        /* \"#utility.yul\":11834:11837   */\n      dup3\n        /* \"#utility.yul\":11830:11842   */\n      add\n        /* \"#utility.yul\":11823:11842   */\n      swap1\n      pop\n        /* \"#utility.yul\":11482:11848   */\n      swap2\n      swap1\n      pop\n      jump\t// out\n        /* \"#utility.yul\":11854:12273   */\n    tag_74:\n        /* \"#utility.yul\":12020:12024   */\n      0x00\n        /* \"#utility.yul\":12058:12060   */\n      0x20\n        /* \"#utility.yul\":12047:12056   */\n      dup3\n        /* \"#utility.yul\":12043:12061   */\n      add\n        /* \"#utility.yul\":12035:12061   */\n      swap1\n      pop\n        /* \"#utility.yul\":12107:12116   */\n      dup2\n        /* \"#utility.yul\":12101:12105   */\n      dup2\n        /* \"#utility.yul\":12097:12117   */\n      sub\n        /* \"#utility.yul\":12093:12094   */\n      0x00\n        /* \"#utility.yul\":12082:12091   */\n      dup4\n        /* \"#utility.yul\":12078:12095   */\n      add\n        /* \"#utility.yul\":12071:12118   */\n      mstore\n        /* \"#utility.yul\":12135:12266   */\n      tag_384\n        /* \"#utility.yul\":12261:12265   */\n      dup2\n        /* \"#utility.yul\":12135:12266   */\n      tag_214\n      jump\t// in\n    tag_384:\n        /* \"#utility.yul\":12127:12266   */\n      swap1\n      pop\n        /* \"#utility.yul\":11854:12273   */\n      swap2\n      swap1\n      pop\n      jump\t// out\n        /* \"#utility.yul\":12279:12444   */\n    tag_215:\n        /* \"#utility.yul\":12419:12436   */\n      0x4245464f52455f444541444c494e450000000000000000000000000000000000\n        /* \"#utility.yul\":12415:12416   */\n      0x00\n        /* \"#utility.yul\":12407:12413   */\n      dup3\n        /* \"#utility.yul\":12403:12417   */\n      add\n        /* \"#utility.yul\":12396:12437   */\n      mstore\n        /* \"#utility.yul\":12279:12444   */\n      pop\n      jump\t// out\n        /* \"#utility.yul\":12450:12816   */\n    tag_216:\n        /* \"#utility.yul\":12592:12595   */\n      0x00\n        /* \"#utility.yul\":12613:12680   */\n      tag_387\n        /* \"#utility.yul\":12677:12679   */\n      0x0f\n        /* \"#utility.yul\":12672:12675   */\n      dup4\n        /* \"#utility.yul\":12613:12680   */\n      tag_193\n      jump\t// in\n    tag_387:\n        /* \"#utility.yul\":12606:12680   */\n      swap2\n      pop\n        /* \"#utility.yul\":12689:12782   */\n      tag_388\n        /* \"#utility.yul\":12778:12781   */\n      dup3\n        /* \"#utility.yul\":12689:12782   */\n      tag_215\n      jump\t// in\n    tag_388:\n        /* \"#utility.yul\":12807:12809   */\n      0x20\n        /* \"#utility.yul\":12802:12805   */\n      dup3\n        /* \"#utility.yul\":12798:12810   */\n      add\n        /* \"#utility.yul\":12791:12810   */\n      swap1\n      pop\n        /* \"#utility.yul\":12450:12816   */\n      swap2\n      swap1\n      pop\n      jump\t// out\n        /* \"#utility.yul\":12822:13241   */\n    tag_77:\n        /* \"#utility.yul\":12988:12992   */\n      0x00\n        /* \"#utility.yul\":13026:13028   */\n      0x20\n        /* \"#utility.yul\":13015:13024   */\n      dup3\n        /* \"#utility.yul\":13011:13029   */\n      add\n        /* \"#utility.yul\":13003:13029   */\n      swap1\n      pop\n        /* \"#utility.yul\":13075:13084   */\n      dup2\n        /* \"#utility.yul\":13069:13073   */\n      dup2\n        /* \"#utility.yul\":13065:13085   */\n      sub\n        /* \"#utility.yul\":13061:13062   */\n      0x00\n        /* \"#utility.yul\":13050:13059   */\n      dup4\n        /* \"#utility.yul\":13046:13063   */\n      add\n        /* \"#utility.yul\":13039:13086   */\n      mstore\n        /* \"#utility.yul\":13103:13234   */\n      tag_390\n        /* \"#utility.yul\":13229:13233   */\n      dup2\n        /* \"#utility.yul\":13103:13234   */\n      tag_216\n      jump\t// in\n    tag_390:\n        /* \"#utility.yul\":13095:13234   */\n      swap1\n      pop\n        /* \"#utility.yul\":12822:13241   */\n      swap2\n      swap1\n      pop\n      jump\t// out\n        /* \"#utility.yul\":13247:13407   */\n    tag_217:\n        /* \"#utility.yul\":13387:13399   */\n      0x4f4e4c595f425559455200000000000000000000000000000000000000000000\n        /* \"#utility.yul\":13383:13384   */\n      0x00\n        /* \"#utility.yul\":13375:13381   */\n      dup3\n        /* \"#utility.yul\":13371:13385   */\n      add\n        /* \"#utility.yul\":13364:13400   */\n      mstore\n        /* \"#utility.yul\":13247:13407   */\n      pop\n      jump\t// out\n        /* \"#utility.yul\":13413:13779   */\n    tag_218:\n        /* \"#utility.yul\":13555:13558   */\n      0x00\n        /* \"#utility.yul\":13576:13643   */\n      tag_393\n        /* \"#utility.yul\":13640:13642   */\n      0x0a\n        /* \"#utility.yul\":13635:13638   */\n      dup4\n        /* \"#utility.yul\":13576:13643   */\n      tag_193\n      jump\t// in\n    tag_393:\n        /* \"#utility.yul\":13569:13643   */\n      swap2\n      pop\n        /* \"#utility.yul\":13652:13745   */\n      tag_394\n        /* \"#utility.yul\":13741:13744   */\n      dup3\n        /* \"#utility.yul\":13652:13745   */\n      tag_217\n      jump\t// in\n    tag_394:\n        /* \"#utility.yul\":13770:13772   */\n      0x20\n        /* \"#utility.yul\":13765:13768   */\n      dup3\n        /* \"#utility.yul\":13761:13773   */\n      add\n        /* \"#utility.yul\":13754:13773   */\n      swap1\n      pop\n        /* \"#utility.yul\":13413:13779   */\n      swap2\n      swap1\n      pop\n      jump\t// out\n        /* \"#utility.yul\":13785:14204   */\n    tag_80:\n        /* \"#utility.yul\":13951:13955   */\n      0x00\n        /* \"#utility.yul\":13989:13991   */\n      0x20\n        /* \"#utility.yul\":13978:13987   */\n      dup3\n        /* \"#utility.yul\":13974:13992   */\n      add\n        /* \"#utility.yul\":13966:13992   */\n      swap1\n      pop\n        /* \"#utility.yul\":14038:14047   */\n      dup2\n        /* \"#utility.yul\":14032:14036   */\n      dup2\n        /* \"#utility.yul\":14028:14048   */\n      sub\n        /* \"#utility.yul\":14024:14025   */\n      0x00\n        /* \"#utility.yul\":14013:14022   */\n      dup4\n        /* \"#utility.yul\":14009:14026   */\n      add\n        /* \"#utility.yul\":14002:14049   */\n      mstore\n        /* \"#utility.yul\":14066:14197   */\n      tag_396\n        /* \"#utility.yul\":14192:14196   */\n      dup2\n        /* \"#utility.yul\":14066:14197   */\n      tag_218\n      jump\t// in\n    tag_396:\n        /* \"#utility.yul\":14058:14197   */\n      swap1\n      pop\n        /* \"#utility.yul\":13785:14204   */\n      swap2\n      swap1\n      pop\n      jump\t// out\n        /* \"#utility.yul\":14210:14542   */\n    tag_86:\n        /* \"#utility.yul\":14331:14335   */\n      0x00\n        /* \"#utility.yul\":14369:14371   */\n      0x40\n        /* \"#utility.yul\":14358:14367   */\n      dup3\n        /* \"#utility.yul\":14354:14372   */\n      add\n        /* \"#utility.yul\":14346:14372   */\n      swap1\n      pop\n        /* \"#utility.yul\":14382:14453   */\n      tag_398\n        /* \"#utility.yul\":14450:14451   */\n      0x00\n        /* \"#utility.yul\":14439:14448   */\n      dup4\n        /* \"#utility.yul\":14435:14452   */\n      add\n        /* \"#utility.yul\":14426:14432   */\n      dup6\n        /* \"#utility.yul\":14382:14453   */\n      tag_185\n      jump\t// in\n    tag_398:\n        /* \"#utility.yul\":14463:14535   */\n      tag_399\n        /* \"#utility.yul\":14531:14533   */\n      0x20\n        /* \"#utility.yul\":14520:14529   */\n      dup4\n        /* \"#utility.yul\":14516:14534   */\n      add\n        /* \"#utility.yul\":14507:14513   */\n      dup5\n        /* \"#utility.yul\":14463:14535   */\n      tag_184\n      jump\t// in\n    tag_399:\n        /* \"#utility.yul\":14210:14542   */\n      swap4\n      swap3\n      pop\n      pop\n      pop\n      jump\t// out\n        /* \"#utility.yul\":14548:14704   */\n    tag_219:\n        /* \"#utility.yul\":14688:14696   */\n      0x414444525f300000000000000000000000000000000000000000000000000000\n        /* \"#utility.yul\":14684:14685   */\n      0x00\n        /* \"#utility.yul\":14676:14682   */\n      dup3\n        /* \"#utility.yul\":14672:14686   */\n      add\n        /* \"#utility.yul\":14665:14697   */\n      mstore\n        /* \"#utility.yul\":14548:14704   */\n      pop\n      jump\t// out\n        /* \"#utility.yul\":14710:15075   */\n    tag_220:\n        /* \"#utility.yul\":14852:14855   */\n      0x00\n        /* \"#utility.yul\":14873:14939   */\n      tag_402\n        /* \"#utility.yul\":14937:14938   */\n      0x06\n        /* \"#utility.yul\":14932:14935   */\n      dup4\n        /* \"#utility.yul\":14873:14939   */\n      tag_193\n      jump\t// in\n    tag_402:\n        /* \"#utility.yul\":14866:14939   */\n      swap2\n      pop\n        /* \"#utility.yul\":14948:15041   */\n      tag_403\n        /* \"#utility.yul\":15037:15040   */\n      dup3\n        /* \"#utility.yul\":14948:15041   */\n      tag_219\n      jump\t// in\n    tag_403:\n        /* \"#utility.yul\":15066:15068   */\n      0x20\n        /* \"#utility.yul\":15061:15064   */\n      dup3\n        /* \"#utility.yul\":15057:15069   */\n      add\n        /* \"#utility.yul\":15050:15069   */\n      swap1\n      pop\n        /* \"#utility.yul\":14710:15075   */\n      swap2\n      swap1\n      pop\n      jump\t// out\n        /* \"#utility.yul\":15081:15500   */\n    tag_105:\n        /* \"#utility.yul\":15247:15251   */\n      0x00\n        /* \"#utility.yul\":15285:15287   */\n      0x20\n        /* \"#utility.yul\":15274:15283   */\n      dup3\n        /* \"#utility.yul\":15270:15288   */\n      add\n        /* \"#utility.yul\":15262:15288   */\n      swap1\n      pop\n        /* \"#utility.yul\":15334:15343   */\n      dup2\n        /* \"#utility.yul\":15328:15332   */\n      dup2\n        /* \"#utility.yul\":15324:15344   */\n      sub\n        /* \"#utility.yul\":15320:15321   */\n      0x00\n        /* \"#utility.yul\":15309:15318   */\n      dup4\n        /* \"#utility.yul\":15305:15322   */\n      add\n        /* \"#utility.yul\":15298:15345   */\n      mstore\n        /* \"#utility.yul\":15362:15493   */\n      tag_405\n        /* \"#utility.yul\":15488:15492   */\n      dup2\n        /* \"#utility.yul\":15362:15493   */\n      tag_220\n      jump\t// in\n    tag_405:\n        /* \"#utility.yul\":15354:15493   */\n      swap1\n      pop\n        /* \"#utility.yul\":15081:15500   */\n      swap2\n      swap1\n      pop\n      jump\t// out\n        /* \"#utility.yul\":15506:15664   */\n    tag_221:\n        /* \"#utility.yul\":15646:15656   */\n      0x5a45524f5f56414c000000000000000000000000000000000000000000000000\n        /* \"#utility.yul\":15642:15643   */\n      0x00\n        /* \"#utility.yul\":15634:15640   */\n      dup3\n        /* \"#utility.yul\":15630:15644   */\n      add\n        /* \"#utility.yul\":15623:15657   */\n      mstore\n        /* \"#utility.yul\":15506:15664   */\n      pop\n      jump\t// out\n        /* \"#utility.yul\":15670:16035   */\n    tag_222:\n        /* \"#utility.yul\":15812:15815   */\n      0x00\n        /* \"#utility.yul\":15833:15899   */\n      tag_408\n        /* \"#utility.yul\":15897:15898   */\n      0x08\n        /* \"#utility.yul\":15892:15895   */\n      dup4\n        /* \"#utility.yul\":15833:15899   */\n      tag_193\n      jump\t// in\n    tag_408:\n        /* \"#utility.yul\":15826:15899   */\n      swap2\n      pop\n        /* \"#utility.yul\":15908:16001   */\n      tag_409\n        /* \"#utility.yul\":15997:16000   */\n      dup3\n        /* \"#utility.yul\":15908:16001   */\n      tag_221\n      jump\t// in\n    tag_409:\n        /* \"#utility.yul\":16026:16028   */\n      0x20\n        /* \"#utility.yul\":16021:16024   */\n      dup3\n        /* \"#utility.yul\":16017:16029   */\n      add\n        /* \"#utility.yul\":16010:16029   */\n      swap1\n      pop\n        /* \"#utility.yul\":15670:16035   */\n      swap2\n      swap1\n      pop\n      jump\t// out\n        /* \"#utility.yul\":16041:16460   */\n    tag_109:\n        /* \"#utility.yul\":16207:16211   */\n      0x00\n        /* \"#utility.yul\":16245:16247   */\n      0x20\n        /* \"#utility.yul\":16234:16243   */\n      dup3\n        /* \"#utility.yul\":16230:16248   */\n      add\n        /* \"#utility.yul\":16222:16248   */\n      swap1\n      pop\n        /* \"#utility.yul\":16294:16303   */\n      dup2\n        /* \"#utility.yul\":16288:16292   */\n      dup2\n        /* \"#utility.yul\":16284:16304   */\n      sub\n        /* \"#utility.yul\":16280:16281   */\n      0x00\n        /* \"#utility.yul\":16269:16278   */\n      dup4\n        /* \"#utility.yul\":16265:16282   */\n      add\n        /* \"#utility.yul\":16258:16305   */\n      mstore\n        /* \"#utility.yul\":16322:16453   */\n      tag_411\n        /* \"#utility.yul\":16448:16452   */\n      dup2\n        /* \"#utility.yul\":16322:16453   */\n      tag_222\n      jump\t// in\n    tag_411:\n        /* \"#utility.yul\":16314:16453   */\n      swap1\n      pop\n        /* \"#utility.yul\":16041:16460   */\n      swap2\n      swap1\n      pop\n      jump\t// out\n        /* \"#utility.yul\":16466:16628   */\n    tag_223:\n        /* \"#utility.yul\":16606:16620   */\n      0x4241445f444541444c494e450000000000000000000000000000000000000000\n        /* \"#utility.yul\":16602:16603   */\n      0x00\n        /* \"#utility.yul\":16594:16600   */\n      dup3\n        /* \"#utility.yul\":16590:16604   */\n      add\n        /* \"#utility.yul\":16583:16621   */\n      mstore\n        /* \"#utility.yul\":16466:16628   */\n      pop\n      jump\t// out\n        /* \"#utility.yul\":16634:17000   */\n    tag_224:\n        /* \"#utility.yul\":16776:16779   */\n      0x00\n        /* \"#utility.yul\":16797:16864   */\n      tag_414\n        /* \"#utility.yul\":16861:16863   */\n      0x0c\n        /* \"#utility.yul\":16856:16859   */\n      dup4\n        /* \"#utility.yul\":16797:16864   */\n      tag_193\n      jump\t// in\n    tag_414:\n        /* \"#utility.yul\":16790:16864   */\n      swap2\n      pop\n        /* \"#utility.yul\":16873:16966   */\n      tag_415\n        /* \"#utility.yul\":16962:16965   */\n      dup3\n        /* \"#utility.yul\":16873:16966   */\n      tag_223\n      jump\t// in\n    tag_415:\n        /* \"#utility.yul\":16991:16993   */\n      0x20\n        /* \"#utility.yul\":16986:16989   */\n      dup3\n        /* \"#utility.yul\":16982:16994   */\n      add\n        /* \"#utility.yul\":16975:16994   */\n      swap1\n      pop\n        /* \"#utility.yul\":16634:17000   */\n      swap2\n      swap1\n      pop\n      jump\t// out\n        /* \"#utility.yul\":17006:17425   */\n    tag_112:\n        /* \"#utility.yul\":17172:17176   */\n      0x00\n        /* \"#utility.yul\":17210:17212   */\n      0x20\n        /* \"#utility.yul\":17199:17208   */\n      dup3\n        /* \"#utility.yul\":17195:17213   */\n      add\n        /* \"#utility.yul\":17187:17213   */\n      swap1\n      pop\n        /* \"#utility.yul\":17259:17268   */\n      dup2\n        /* \"#utility.yul\":17253:17257   */\n      dup2\n        /* \"#utility.yul\":17249:17269   */\n      sub\n        /* \"#utility.yul\":17245:17246   */\n      0x00\n        /* \"#utility.yul\":17234:17243   */\n      dup4\n        /* \"#utility.yul\":17230:17247   */\n      add\n        /* \"#utility.yul\":17223:17270   */\n      mstore\n        /* \"#utility.yul\":17287:17418   */\n      tag_417\n        /* \"#utility.yul\":17413:17417   */\n      dup2\n        /* \"#utility.yul\":17287:17418   */\n      tag_224\n      jump\t// in\n    tag_417:\n        /* \"#utility.yul\":17279:17418   */\n      swap1\n      pop\n        /* \"#utility.yul\":17006:17425   */\n      swap2\n      swap1\n      pop\n      jump\t// out\n        /* \"#utility.yul\":17431:17611   */\n    tag_225:\n        /* \"#utility.yul\":17479:17556   */\n      0x4e487b7100000000000000000000000000000000000000000000000000000000\n        /* \"#utility.yul\":17476:17477   */\n      0x00\n        /* \"#utility.yul\":17469:17557   */\n      mstore\n        /* \"#utility.yul\":17576:17580   */\n      0x11\n        /* \"#utility.yul\":17573:17574   */\n      0x04\n        /* \"#utility.yul\":17566:17581   */\n      mstore\n        /* \"#utility.yul\":17600:17604   */\n      0x24\n        /* \"#utility.yul\":17597:17598   */\n      0x00\n        /* \"#utility.yul\":17590:17605   */\n      revert\n        /* \"#utility.yul\":17617:17850   */\n    tag_114:\n        /* \"#utility.yul\":17656:17659   */\n      0x00\n        /* \"#utility.yul\":17679:17703   */\n      tag_420\n        /* \"#utility.yul\":17697:17702   */\n      dup3\n        /* \"#utility.yul\":17679:17703   */\n      tag_179\n      jump\t// in\n    tag_420:\n        /* \"#utility.yul\":17670:17703   */\n      swap2\n      pop\n        /* \"#utility.yul\":17725:17791   */\n      0xffffffffffffffffffffffffffffffffffffffffffffffffffffffffffffffff\n        /* \"#utility.yul\":17718:17723   */\n      dup3\n        /* \"#utility.yul\":17715:17792   */\n      sub\n        /* \"#utility.yul\":17712:17815   */\n      tag_421\n      jumpi\n        /* \"#utility.yul\":17795:17813   */\n      tag_422\n      tag_225\n      jump\t// in\n    tag_422:\n        /* \"#utility.yul\":17712:17815   */\n    tag_421:\n        /* \"#utility.yul\":17842:17843   */\n      0x01\n        /* \"#utility.yul\":17835:17840   */\n      dup3\n        /* \"#utility.yul\":17831:17844   */\n      add\n        /* \"#utility.yul\":17824:17844   */\n      swap1\n      pop\n        /* \"#utility.yul\":17617:17850   */\n      swap2\n      swap1\n      pop\n      jump\t// out\n        /* \"#utility.yul\":17856:18036   */\n    tag_226:\n        /* \"#utility.yul\":17904:17981   */\n      0x4e487b7100000000000000000000000000000000000000000000000000000000\n        /* \"#utility.yul\":17901:17902   */\n      0x00\n        /* \"#utility.yul\":17894:17982   */\n      mstore\n        /* \"#utility.yul\":18001:18005   */\n      0x41\n        /* \"#utility.yul\":17998:17999   */\n      0x04\n        /* \"#utility.yul\":17991:18006   */\n      mstore\n        /* \"#utility.yul\":18025:18029   */\n      0x24\n        /* \"#utility.yul\":18022:18023   */\n      0x00\n        /* \"#utility.yul\":18015:18030   */\n      revert\n        /* \"#utility.yul\":18042:18183   */\n    tag_227:\n        /* \"#utility.yul\":18091:18095   */\n      0x00\n        /* \"#utility.yul\":18114:18117   */\n      dup2\n        /* \"#utility.yul\":18106:18117   */\n      swap1\n      pop\n        /* \"#utility.yul\":18137:18140   */\n      dup2\n        /* \"#utility.yul\":18134:18135   */\n      0x00\n        /* \"#utility.yul\":18127:18141   */\n      mstore\n        /* \"#utility.yul\":18171:18175   */\n      0x20\n        /* \"#utility.yul\":18168:18169   */\n      0x00\n        /* \"#utility.yul\":18158:18176   */\n      keccak256\n        /* \"#utility.yul\":18150:18176   */\n      swap1\n      pop\n        /* \"#utility.yul\":18042:18183   */\n      swap2\n      swap1\n      pop\n      jump\t// out\n        /* \"#utility.yul\":18189:18282   */\n    tag_228:\n        /* \"#utility.yul\":18226:18232   */\n      0x00\n        /* \"#utility.yul\":18273:18275   */\n      0x20\n        /* \"#utility.yul\":18268:18270   */\n      0x1f\n        /* \"#utility.yul\":18261:18266   */\n      dup4\n        /* \"#utility.yul\":18257:18271   */\n      add\n        /* \"#utility.yul\":18253:18276   */\n      div\n        /* \"#utility.yul\":18243:18276   */\n      swap1\n      pop\n        /* \"#utility.yul\":18189:18282   */\n      swap2\n      swap1\n      pop\n      jump\t// out\n        /* \"#utility.yul\":18288:18395   */\n    tag_229:\n        /* \"#utility.yul\":18332:18340   */\n      0x00\n        /* \"#utility.yul\":18382:18387   */\n      dup3\n        /* \"#utility.yul\":18376:18380   */\n      dup3\n        /* \"#utility.yul\":18372:18388   */\n      shl\n        /* \"#utility.yul\":18351:18388   */\n      swap1\n      pop\n        /* \"#utility.yul\":18288:18395   */\n      swap3\n      swap2\n      pop\n      pop\n      jump\t// out\n        /* \"#utility.yul\":18401:18794   */\n    tag_230:\n        /* \"#utility.yul\":18470:18476   */\n      0x00\n        /* \"#utility.yul\":18520:18521   */\n      0x08\n        /* \"#utility.yul\":18508:18518   */\n      dup4\n        /* \"#utility.yul\":18504:18522   */\n      mul\n        /* \"#utility.yul\":18543:18640   */\n      tag_428\n        /* \"#utility.yul\":18573:18639   */\n      0xffffffffffffffffffffffffffffffffffffffffffffffffffffffffffffffff\n        /* \"#utility.yul\":18562:18571   */\n      dup3\n        /* \"#utility.yul\":18543:18640   */\n      tag_229\n      jump\t// in\n    tag_428:\n        /* \"#utility.yul\":18661:18700   */\n      tag_429\n        /* \"#utility.yul\":18691:18699   */\n      dup7\n        /* \"#utility.yul\":18680:18689   */\n      dup4\n        /* \"#utility.yul\":18661:18700   */\n      tag_229\n      jump\t// in\n    tag_429:\n        /* \"#utility.yul\":18649:18700   */\n      swap6\n      pop\n        /* \"#utility.yul\":18733:18737   */\n      dup1\n        /* \"#utility.yul\":18729:18738   */\n      not\n        /* \"#utility.yul\":18722:18727   */\n      dup5\n        /* \"#utility.yul\":18718:18739   */\n      and\n        /* \"#utility.yul\":18709:18739   */\n      swap4\n      pop\n        /* \"#utility.yul\":18782:18786   */\n      dup1\n        /* \"#utility.yul\":18772:18780   */\n      dup7\n        /* \"#utility.yul\":18768:18787   */\n      and\n        /* \"#utility.yul\":18761:18766   */\n      dup5\n        /* \"#utility.yul\":18758:18788   */\n      or\n        /* \"#utility.yul\":18748:18788   */\n      swap3\n      pop\n        /* \"#utility.yul\":18477:18794   */\n      pop\n      pop\n        /* \"#utility.yul\":18401:18794   */\n      swap4\n      swap3\n      pop\n      pop\n      pop\n      jump\t// out\n        /* \"#utility.yul\":18800:18860   */\n    tag_231:\n        /* \"#utility.yul\":18828:18831   */\n      0x00\n        /* \"#utility.yul\":18849:18854   */\n      dup2\n        /* \"#utility.yul\":18842:18854   */\n      swap1\n      pop\n        /* \"#utility.yul\":18800:18860   */\n      swap2\n      swap1\n      pop\n      jump\t// out\n        /* \"#utility.yul\":18866:19008   */\n    tag_232:\n        /* \"#utility.yul\":18916:18925   */\n      0x00\n        /* \"#utility.yul\":18949:19002   */\n      tag_432\n        /* \"#utility.yul\":18967:19001   */\n      tag_433\n        /* \"#utility.yul\":18976:19000   */\n      tag_434\n        /* \"#utility.yul\":18994:18999   */\n      dup5\n        /* \"#utility.yul\":18976:19000   */\n      tag_179\n      jump\t// in\n    tag_434:\n        /* \"#utility.yul\":18967:19001   */\n      tag_231\n      jump\t// in\n    tag_433:\n        /* \"#utility.yul\":18949:19002   */\n      tag_179\n      jump\t// in\n    tag_432:\n        /* \"#utility.yul\":18936:19002   */\n      swap1\n      pop\n        /* \"#utility.yul\":18866:19008   */\n      swap2\n      swap1\n      pop\n      jump\t// out\n        /* \"#utility.yul\":19014:19089   */\n    tag_233:\n        /* \"#utility.yul\":19057:19060   */\n      0x00\n        /* \"#utility.yul\":19078:19083   */\n      dup2\n        /* \"#utility.yul\":19071:19083   */\n      swap1\n      pop\n        /* \"#utility.yul\":19014:19089   */\n      swap2\n      swap1\n      pop\n      jump\t// out\n        /* \"#utility.yul\":19095:19364   */\n    tag_234:\n        /* \"#utility.yul\":19205:19244   */\n      tag_437\n        /* \"#utility.yul\":19236:19243   */\n      dup4\n        /* \"#utility.yul\":19205:19244   */\n      tag_232\n      jump\t// in\n    tag_437:\n        /* \"#utility.yul\":19266:19357   */\n      tag_438\n        /* \"#utility.yul\":19315:19356   */\n      tag_439\n        /* \"#utility.yul\":19339:19355   */\n      dup3\n        /* \"#utility.yul\":19315:19356   */\n      tag_233\n      jump\t// in\n    tag_439:\n        /* \"#utility.yul\":19307:19313   */\n      dup5\n        /* \"#utility.yul\":19300:19304   */\n      dup5\n        /* \"#utility.yul\":19294:19305   */\n      sload\n        /* \"#utility.yul\":19266:19357   */\n      tag_230\n      jump\t// in\n    tag_438:\n        /* \"#utility.yul\":19260:19264   */\n      dup3\n        /* \"#utility.yul\":19253:19358   */\n      sstore\n        /* \"#utility.yul\":19171:19364   */\n      pop\n        /* \"#utility.yul\":19095:19364   */\n      pop\n      pop\n      pop\n      jump\t// out\n        /* \"#utility.yul\":19370:19443   */\n    tag_235:\n        /* \"#utility.yul\":19415:19418   */\n      0x00\n        /* \"#utility.yul\":19370:19443   */\n      swap1\n      jump\t// out\n        /* \"#utility.yul\":19449:19638   */\n    tag_236:\n        /* \"#utility.yul\":19526:19558   */\n      tag_442\n      tag_235\n      jump\t// in\n    tag_442:\n        /* \"#utility.yul\":19567:19632   */\n      tag_443\n        /* \"#utility.yul\":19625:19631   */\n      dup2\n        /* \"#utility.yul\":19617:19623   */\n      dup5\n        /* \"#utility.yul\":19611:19615   */\n      dup5\n        /* \"#utility.yul\":19567:19632   */\n      tag_234\n      jump\t// in\n    tag_443:\n        /* \"#utility.yul\":19502:19638   */\n      pop\n        /* \"#utility.yul\":19449:19638   */\n      pop\n      pop\n      jump\t// out\n        /* \"#utility.yul\":19644:19830   */\n    tag_237:\n        /* \"#utility.yul\":19704:19824   */\n    tag_445:\n        /* \"#utility.yul\":19721:19724   */\n      dup2\n        /* \"#utility.yul\":19714:19719   */\n      dup2\n        /* \"#utility.yul\":19711:19725   */\n      lt\n        /* \"#utility.yul\":19704:19824   */\n      iszero\n      tag_447\n      jumpi\n        /* \"#utility.yul\":19775:19814   */\n      tag_448\n        /* \"#utility.yul\":19812:19813   */\n      0x00\n        /* \"#utility.yul\":19805:19810   */\n      dup3\n        /* \"#utility.yul\":19775:19814   */\n      tag_236\n      jump\t// in\n    tag_448:\n        /* \"#utility.yul\":19748:19749   */\n      0x01\n        /* \"#utility.yul\":19741:19746   */\n      dup2\n        /* \"#utility.yul\":19737:19750   */\n      add\n        /* \"#utility.yul\":19728:19750   */\n      swap1\n      pop\n        /* \"#utility.yul\":19704:19824   */\n      jump(tag_445)\n    tag_447:\n        /* \"#utility.yul\":19644:19830   */\n      pop\n      pop\n      jump\t// out\n        /* \"#utility.yul\":19836:20379   */\n    tag_238:\n        /* \"#utility.yul\":19937:19939   */\n      0x1f\n        /* \"#utility.yul\":19932:19935   */\n      dup3\n        /* \"#utility.yul\":19929:19940   */\n      gt\n        /* \"#utility.yul\":19926:20372   */\n      iszero\n      tag_450\n      jumpi\n        /* \"#utility.yul\":19971:20009   */\n      tag_451\n        /* \"#utility.yul\":20003:20008   */\n      dup2\n        /* \"#utility.yul\":19971:20009   */\n      tag_227\n      jump\t// in\n    tag_451:\n        /* \"#utility.yul\":20055:20084   */\n      tag_452\n        /* \"#utility.yul\":20073:20083   */\n      dup5\n        /* \"#utility.yul\":20055:20084   */\n      tag_228\n      jump\t// in\n    tag_452:\n        /* \"#utility.yul\":20045:20053   */\n      dup2\n        /* \"#utility.yul\":20041:20085   */\n      add\n        /* \"#utility.yul\":20238:20240   */\n      0x20\n        /* \"#utility.yul\":20226:20236   */\n      dup6\n        /* \"#utility.yul\":20223:20241   */\n      lt\n        /* \"#utility.yul\":20220:20269   */\n      iszero\n      tag_453\n      jumpi\n        /* \"#utility.yul\":20259:20267   */\n      dup2\n        /* \"#utility.yul\":20244:20267   */\n      swap1\n      pop\n        /* \"#utility.yul\":20220:20269   */\n    tag_453:\n        /* \"#utility.yul\":20282:20362   */\n      tag_454\n        /* \"#utility.yul\":20338:20360   */\n      tag_455\n        /* \"#utility.yul\":20356:20359   */\n      dup6\n        /* \"#utility.yul\":20338:20360   */\n      tag_228\n      jump\t// in\n    tag_455:\n        /* \"#utility.yul\":20328:20336   */\n      dup4\n        /* \"#utility.yul\":20324:20361   */\n      add\n        /* \"#utility.yul\":20311:20322   */\n      dup3\n        /* \"#utility.yul\":20282:20362   */\n      tag_237\n      jump\t// in\n    tag_454:\n        /* \"#utility.yul\":19941:20372   */\n      pop\n      pop\n        /* \"#utility.yul\":19926:20372   */\n    tag_450:\n        /* \"#utility.yul\":19836:20379   */\n      pop\n      pop\n      pop\n      jump\t// out\n        /* \"#utility.yul\":20385:20502   */\n    tag_239:\n        /* \"#utility.yul\":20439:20447   */\n      0x00\n        /* \"#utility.yul\":20489:20494   */\n      dup3\n        /* \"#utility.yul\":20483:20487   */\n      dup3\n        /* \"#utility.yul\":20479:20495   */\n      shr\n        /* \"#utility.yul\":20458:20495   */\n      swap1\n      pop\n        /* \"#utility.yul\":20385:20502   */\n      swap3\n      swap2\n      pop\n      pop\n      jump\t// out\n        /* \"#utility.yul\":20508:20677   */\n    tag_240:\n        /* \"#utility.yul\":20552:20558   */\n      0x00\n        /* \"#utility.yul\":20585:20636   */\n      tag_458\n        /* \"#utility.yul\":20633:20634   */\n      0x00\n        /* \"#utility.yul\":20629:20635   */\n      not\n        /* \"#utility.yul\":20621:20626   */\n      dup5\n        /* \"#utility.yul\":20618:20619   */\n      0x08\n        /* \"#utility.yul\":20614:20627   */\n      mul\n        /* \"#utility.yul\":20585:20636   */\n      tag_239\n      jump\t// in\n    tag_458:\n        /* \"#utility.yul\":20581:20637   */\n      not\n        /* \"#utility.yul\":20666:20670   */\n      dup1\n        /* \"#utility.yul\":20660:20664   */\n      dup4\n        /* \"#utility.yul\":20656:20671   */\n      and\n        /* \"#utility.yul\":20646:20671   */\n      swap2\n      pop\n        /* \"#utility.yul\":20559:20677   */\n      pop\n        /* \"#utility.yul\":20508:20677   */\n      swap3\n      swap2\n      pop\n      pop\n      jump\t// out\n        /* \"#utility.yul\":20682:20977   */\n    tag_241:\n        /* \"#utility.yul\":20758:20762   */\n      0x00\n        /* \"#utility.yul\":20904:20933   */\n      tag_460\n        /* \"#utility.yul\":20929:20932   */\n      dup4\n        /* \"#utility.yul\":20923:20927   */\n      dup4\n        /* \"#utility.yul\":20904:20933   */\n      tag_240\n      jump\t// in\n    tag_460:\n        /* \"#utility.yul\":20896:20933   */\n      swap2\n      pop\n        /* \"#utility.yul\":20966:20969   */\n      dup3\n        /* \"#utility.yul\":20963:20964   */\n      0x02\n        /* \"#utility.yul\":20959:20970   */\n      mul\n        /* \"#utility.yul\":20953:20957   */\n      dup3\n        /* \"#utility.yul\":20950:20971   */\n      or\n        /* \"#utility.yul\":20942:20971   */\n      swap1\n      pop\n        /* \"#utility.yul\":20682:20977   */\n      swap3\n      swap2\n      pop\n      pop\n      jump\t// out\n        /* \"#utility.yul\":20982:22377   */\n    tag_120:\n        /* \"#utility.yul\":21099:21136   */\n      tag_462\n        /* \"#utility.yul\":21132:21135   */\n      dup3\n        /* \"#utility.yul\":21099:21136   */\n      tag_192\n      jump\t// in\n    tag_462:\n        /* \"#utility.yul\":21201:21219   */\n      0xffffffffffffffff\n        /* \"#utility.yul\":21193:21199   */\n      dup2\n        /* \"#utility.yul\":21190:21220   */\n      gt\n        /* \"#utility.yul\":21187:21243   */\n      iszero\n      tag_463\n      jumpi\n        /* \"#utility.yul\":21223:21241   */\n      tag_464\n      tag_226\n      jump\t// in\n    tag_464:\n        /* \"#utility.yul\":21187:21243   */\n    tag_463:\n        /* \"#utility.yul\":21267:21305   */\n      tag_465\n        /* \"#utility.yul\":21299:21303   */\n      dup3\n        /* \"#utility.yul\":21293:21304   */\n      sload\n        /* \"#utility.yul\":21267:21305   */\n      tag_49\n      jump\t// in\n    tag_465:\n        /* \"#utility.yul\":21352:21419   */\n      tag_466\n        /* \"#utility.yul\":21412:21418   */\n      dup3\n        /* \"#utility.yul\":21404:21410   */\n      dup3\n        /* \"#utility.yul\":21398:21402   */\n      dup6\n        /* \"#utility.yul\":21352:21419   */\n      tag_238\n      jump\t// in\n    tag_466:\n        /* \"#utility.yul\":21446:21447   */\n      0x00\n        /* \"#utility.yul\":21470:21474   */\n      0x20\n        /* \"#utility.yul\":21457:21474   */\n      swap1\n      pop\n        /* \"#utility.yul\":21502:21504   */\n      0x1f\n        /* \"#utility.yul\":21494:21500   */\n      dup4\n        /* \"#utility.yul\":21491:21505   */\n      gt\n        /* \"#utility.yul\":21519:21520   */\n      0x01\n        /* \"#utility.yul\":21514:22132   */\n      dup2\n      eq\n      tag_468\n      jumpi\n        /* \"#utility.yul\":22176:22177   */\n      0x00\n        /* \"#utility.yul\":22193:22199   */\n      dup5\n        /* \"#utility.yul\":22190:22267   */\n      iszero\n      tag_469\n      jumpi\n        /* \"#utility.yul\":22242:22251   */\n      dup3\n        /* \"#utility.yul\":22237:22240   */\n      dup8\n        /* \"#utility.yul\":22233:22252   */\n      add\n        /* \"#utility.yul\":22227:22253   */\n      mload\n        /* \"#utility.yul\":22218:22253   */\n      swap1\n      pop\n        /* \"#utility.yul\":22190:22267   */\n    tag_469:\n        /* \"#utility.yul\":22293:22360   */\n      tag_470\n        /* \"#utility.yul\":22353:22359   */\n      dup6\n        /* \"#utility.yul\":22346:22351   */\n      dup3\n        /* \"#utility.yul\":22293:22360   */\n      tag_241\n      jump\t// in\n    tag_470:\n        /* \"#utility.yul\":22287:22291   */\n      dup7\n        /* \"#utility.yul\":22280:22361   */\n      sstore\n        /* \"#utility.yul\":22149:22371   */\n      pop\n        /* \"#utility.yul\":21484:22371   */\n      jump(tag_467)\n        /* \"#utility.yul\":21514:22132   */\n    tag_468:\n        /* \"#utility.yul\":21566:21570   */\n      0x1f\n        /* \"#utility.yul\":21562:21571   */\n      not\n        /* \"#utility.yul\":21554:21560   */\n      dup5\n        /* \"#utility.yul\":21550:21572   */\n      and\n        /* \"#utility.yul\":21600:21637   */\n      tag_471\n        /* \"#utility.yul\":21632:21636   */\n      dup7\n        /* \"#utility.yul\":21600:21637   */\n      tag_227\n      jump\t// in\n    tag_471:\n        /* \"#utility.yul\":21659:21660   */\n      0x00\n        /* \"#utility.yul\":21673:21881   */\n    tag_472:\n        /* \"#utility.yul\":21687:21694   */\n      dup3\n        /* \"#utility.yul\":21684:21685   */\n      dup2\n        /* \"#utility.yul\":21681:21695   */\n      lt\n        /* \"#utility.yul\":21673:21881   */\n      iszero\n      tag_474\n      jumpi\n        /* \"#utility.yul\":21766:21775   */\n      dup5\n        /* \"#utility.yul\":21761:21764   */\n      dup10\n        /* \"#utility.yul\":21757:21776   */\n      add\n        /* \"#utility.yul\":21751:21777   */\n      mload\n        /* \"#utility.yul\":21743:21749   */\n      dup3\n        /* \"#utility.yul\":21736:21778   */\n      sstore\n        /* \"#utility.yul\":21817:21818   */\n      0x01\n        /* \"#utility.yul\":21809:21815   */\n      dup3\n        /* \"#utility.yul\":21805:21819   */\n      add\n        /* \"#utility.yul\":21795:21819   */\n      swap2\n      pop\n        /* \"#utility.yul\":21864:21866   */\n      0x20\n        /* \"#utility.yul\":21853:21862   */\n      dup6\n        /* \"#utility.yul\":21849:21867   */\n      add\n        /* \"#utility.yul\":21836:21867   */\n      swap5\n      pop\n        /* \"#utility.yul\":21710:21714   */\n      0x20\n        /* \"#utility.yul\":21707:21708   */\n      dup2\n        /* \"#utility.yul\":21703:21715   */\n      add\n        /* \"#utility.yul\":21698:21715   */\n      swap1\n      pop\n        /* \"#utility.yul\":21673:21881   */\n      jump(tag_472)\n    tag_474:\n        /* \"#utility.yul\":21909:21915   */\n      dup7\n        /* \"#utility.yul\":21900:21907   */\n      dup4\n        /* \"#utility.yul\":21897:21916   */\n      lt\n        /* \"#utility.yul\":21894:22073   */\n      iszero\n      tag_475\n      jumpi\n        /* \"#utility.yul\":21967:21976   */\n      dup5\n        /* \"#utility.yul\":21962:21965   */\n      dup10\n        /* \"#utility.yul\":21958:21977   */\n      add\n        /* \"#utility.yul\":21952:21978   */\n      mload\n        /* \"#utility.yul\":22010:22058   */\n      tag_476\n        /* \"#utility.yul\":22052:22056   */\n      0x1f\n        /* \"#utility.yul\":22044:22050   */\n      dup10\n        /* \"#utility.yul\":22040:22057   */\n      and\n        /* \"#utility.yul\":22029:22038   */\n      dup3\n        /* \"#utility.yul\":22010:22058   */\n      tag_240\n      jump\t// in\n    tag_476:\n        /* \"#utility.yul\":22002:22008   */\n      dup4\n        /* \"#utility.yul\":21995:22059   */\n      sstore\n        /* \"#utility.yul\":21917:22073   */\n      pop\n        /* \"#utility.yul\":21894:22073   */\n    tag_475:\n        /* \"#utility.yul\":22119:22120   */\n      0x01\n        /* \"#utility.yul\":22115:22116   */\n      0x02\n        /* \"#utility.yul\":22107:22113   */\n      dup9\n        /* \"#utility.yul\":22103:22117   */\n      mul\n        /* \"#utility.yul\":22099:22121   */\n      add\n        /* \"#utility.yul\":22093:22097   */\n      dup9\n        /* \"#utility.yul\":22086:22122   */\n      sstore\n        /* \"#utility.yul\":21521:22132   */\n      pop\n      pop\n      pop\n        /* \"#utility.yul\":21484:22371   */\n    tag_467:\n      pop\n        /* \"#utility.yul\":21074:22377   */\n      pop\n      pop\n      pop\n        /* \"#utility.yul\":20982:22377   */\n      pop\n      pop\n      jump\t// out\n        /* \"#utility.yul\":22383:22529   */\n    tag_242:\n        /* \"#utility.yul\":22480:22486   */\n      dup3\n        /* \"#utility.yul\":22475:22478   */\n      dup2\n        /* \"#utility.yul\":22470:22473   */\n      dup4\n        /* \"#utility.yul\":22457:22487   */\n      calldatacopy\n        /* \"#utility.yul\":22521:22522   */\n      0x00\n        /* \"#utility.yul\":22512:22518   */\n      dup4\n        /* \"#utility.yul\":22507:22510   */\n      dup4\n        /* \"#utility.yul\":22503:22519   */\n      add\n        /* \"#utility.yul\":22496:22523   */\n      mstore\n        /* \"#utility.yul\":22383:22529   */\n      pop\n      pop\n      pop\n      jump\t// out\n        /* \"#utility.yul\":22559:22876   */\n    tag_243:\n        /* \"#utility.yul\":22657:22660   */\n      0x00\n        /* \"#utility.yul\":22678:22749   */\n      tag_479\n        /* \"#utility.yul\":22742:22748   */\n      dup4\n        /* \"#utility.yul\":22737:22740   */\n      dup6\n        /* \"#utility.yul\":22678:22749   */\n      tag_193\n      jump\t// in\n    tag_479:\n        /* \"#utility.yul\":22671:22749   */\n      swap4\n      pop\n        /* \"#utility.yul\":22759:22815   */\n      tag_480\n        /* \"#utility.yul\":22808:22814   */\n      dup4\n        /* \"#utility.yul\":22803:22806   */\n      dup6\n        /* \"#utility.yul\":22796:22801   */\n      dup5\n        /* \"#utility.yul\":22759:22815   */\n      tag_242\n      jump\t// in\n    tag_480:\n        /* \"#utility.yul\":22840:22869   */\n      tag_481\n        /* \"#utility.yul\":22862:22868   */\n      dup4\n        /* \"#utility.yul\":22840:22869   */\n      tag_195\n      jump\t// in\n    tag_481:\n        /* \"#utility.yul\":22835:22838   */\n      dup5\n        /* \"#utility.yul\":22831:22870   */\n      add\n        /* \"#utility.yul\":22824:22870   */\n      swap1\n      pop\n        /* \"#utility.yul\":22559:22876   */\n      swap4\n      swap3\n      pop\n      pop\n      pop\n      jump\t// out\n        /* \"#utility.yul\":22882:23653   */\n    tag_122:\n        /* \"#utility.yul\":23115:23119   */\n      0x00\n        /* \"#utility.yul\":23153:23156   */\n      0xa0\n        /* \"#utility.yul\":23142:23151   */\n      dup3\n        /* \"#utility.yul\":23138:23157   */\n      add\n        /* \"#utility.yul\":23130:23157   */\n      swap1\n      pop\n        /* \"#utility.yul\":23167:23238   */\n      tag_483\n        /* \"#utility.yul\":23235:23236   */\n      0x00\n        /* \"#utility.yul\":23224:23233   */\n      dup4\n        /* \"#utility.yul\":23220:23237   */\n      add\n        /* \"#utility.yul\":23211:23217   */\n      dup10\n        /* \"#utility.yul\":23167:23238   */\n      tag_184\n      jump\t// in\n    tag_483:\n        /* \"#utility.yul\":23248:23320   */\n      tag_484\n        /* \"#utility.yul\":23316:23318   */\n      0x20\n        /* \"#utility.yul\":23305:23314   */\n      dup4\n        /* \"#utility.yul\":23301:23319   */\n      add\n        /* \"#utility.yul\":23292:23298   */\n      dup9\n        /* \"#utility.yul\":23248:23320   */\n      tag_185\n      jump\t// in\n    tag_484:\n        /* \"#utility.yul\":23330:23400   */\n      tag_485\n        /* \"#utility.yul\":23396:23398   */\n      0x40\n        /* \"#utility.yul\":23385:23394   */\n      dup4\n        /* \"#utility.yul\":23381:23399   */\n      add\n        /* \"#utility.yul\":23372:23378   */\n      dup8\n        /* \"#utility.yul\":23330:23400   */\n      tag_187\n      jump\t// in\n    tag_485:\n        /* \"#utility.yul\":23447:23456   */\n      dup2\n        /* \"#utility.yul\":23441:23445   */\n      dup2\n        /* \"#utility.yul\":23437:23457   */\n      sub\n        /* \"#utility.yul\":23432:23434   */\n      0x60\n        /* \"#utility.yul\":23421:23430   */\n      dup4\n        /* \"#utility.yul\":23417:23435   */\n      add\n        /* \"#utility.yul\":23410:23458   */\n      mstore\n        /* \"#utility.yul\":23475:23563   */\n      tag_486\n        /* \"#utility.yul\":23558:23562   */\n      dup2\n        /* \"#utility.yul\":23549:23555   */\n      dup6\n        /* \"#utility.yul\":23541:23547   */\n      dup8\n        /* \"#utility.yul\":23475:23563   */\n      tag_243\n      jump\t// in\n    tag_486:\n        /* \"#utility.yul\":23467:23563   */\n      swap1\n      pop\n        /* \"#utility.yul\":23573:23646   */\n      tag_487\n        /* \"#utility.yul\":23641:23644   */\n      0x80\n        /* \"#utility.yul\":23630:23639   */\n      dup4\n        /* \"#utility.yul\":23626:23645   */\n      add\n        /* \"#utility.yul\":23617:23623   */\n      dup5\n        /* \"#utility.yul\":23573:23646   */\n      tag_185\n      jump\t// in\n    tag_487:\n        /* \"#utility.yul\":22882:23653   */\n      swap8\n      swap7\n      pop\n      pop\n      pop\n      pop\n      pop\n      pop\n      pop\n      jump\t// out\n        /* \"#utility.yul\":23659:23823   */\n    tag_244:\n        /* \"#utility.yul\":23799:23815   */\n      0x41465445525f444541444c494e45000000000000000000000000000000000000\n        /* \"#utility.yul\":23795:23796   */\n      0x00\n        /* \"#utility.yul\":23787:23793   */\n      dup3\n        /* \"#utility.yul\":23783:23797   */\n      add\n        /* \"#utility.yul\":23776:23816   */\n      mstore\n        /* \"#utility.yul\":23659:23823   */\n      pop\n      jump\t// out\n        /* \"#utility.yul\":23829:24195   */\n    tag_245:\n        /* \"#utility.yul\":23971:23974   */\n      0x00\n        /* \"#utility.yul\":23992:24059   */\n      tag_490\n        /* \"#utility.yul\":24056:24058   */\n      0x0e\n        /* \"#utility.yul\":24051:24054   */\n      dup4\n        /* \"#utility.yul\":23992:24059   */\n      tag_193\n      jump\t// in\n    tag_490:\n        /* \"#utility.yul\":23985:24059   */\n      swap2\n      pop\n        /* \"#utility.yul\":24068:24161   */\n      tag_491\n        /* \"#utility.yul\":24157:24160   */\n      dup3\n        /* \"#utility.yul\":24068:24161   */\n      tag_244\n      jump\t// in\n    tag_491:\n        /* \"#utility.yul\":24186:24188   */\n      0x20\n        /* \"#utility.yul\":24181:24184   */\n      dup3\n        /* \"#utility.yul\":24177:24189   */\n      add\n        /* \"#utility.yul\":24170:24189   */\n      swap1\n      pop\n        /* \"#utility.yul\":23829:24195   */\n      swap2\n      swap1\n      pop\n      jump\t// out\n        /* \"#utility.yul\":24201:24620   */\n    tag_134:\n        /* \"#utility.yul\":24367:24371   */\n      0x00\n        /* \"#utility.yul\":24405:24407   */\n      0x20\n        /* \"#utility.yul\":24394:24403   */\n      dup3\n        /* \"#utility.yul\":24390:24408   */\n      add\n        /* \"#utility.yul\":24382:24408   */\n      swap1\n      pop\n        /* \"#utility.yul\":24454:24463   */\n      dup2\n        /* \"#utility.yul\":24448:24452   */\n      dup2\n        /* \"#utility.yul\":24444:24464   */\n      sub\n        /* \"#utility.yul\":24440:24441   */\n      0x00\n        /* \"#utility.yul\":24429:24438   */\n      dup4\n        /* \"#utility.yul\":24425:24442   */\n      add\n        /* \"#utility.yul\":24418:24465   */\n      mstore\n        /* \"#utility.yul\":24482:24613   */\n      tag_493\n        /* \"#utility.yul\":24608:24612   */\n      dup2\n        /* \"#utility.yul\":24482:24613   */\n      tag_245\n      jump\t// in\n    tag_493:\n        /* \"#utility.yul\":24474:24613   */\n      swap1\n      pop\n        /* \"#utility.yul\":24201:24620   */\n      swap2\n      swap1\n      pop\n      jump\t// out\n        /* \"#utility.yul\":24626:24773   */\n    tag_246:\n        /* \"#utility.yul\":24727:24738   */\n      0x00\n        /* \"#utility.yul\":24764:24767   */\n      dup2\n        /* \"#utility.yul\":24749:24767   */\n      swap1\n      pop\n        /* \"#utility.yul\":24626:24773   */\n      swap3\n      swap2\n      pop\n      pop\n      jump\t// out\n        /* \"#utility.yul\":24779:24893   */\n    tag_247:\n      pop\n      jump\t// out\n        /* \"#utility.yul\":24899:25297   */\n    tag_248:\n        /* \"#utility.yul\":25058:25061   */\n      0x00\n        /* \"#utility.yul\":25079:25162   */\n      tag_497\n        /* \"#utility.yul\":25160:25161   */\n      0x00\n        /* \"#utility.yul\":25155:25158   */\n      dup4\n        /* \"#utility.yul\":25079:25162   */\n      tag_246\n      jump\t// in\n    tag_497:\n        /* \"#utility.yul\":25072:25162   */\n      swap2\n      pop\n        /* \"#utility.yul\":25171:25264   */\n      tag_498\n        /* \"#utility.yul\":25260:25263   */\n      dup3\n        /* \"#utility.yul\":25171:25264   */\n      tag_247\n      jump\t// in\n    tag_498:\n        /* \"#utility.yul\":25289:25290   */\n      0x00\n        /* \"#utility.yul\":25284:25287   */\n      dup3\n        /* \"#utility.yul\":25280:25291   */\n      add\n        /* \"#utility.yul\":25273:25291   */\n      swap1\n      pop\n        /* \"#utility.yul\":24899:25297   */\n      swap2\n      swap1\n      pop\n      jump\t// out\n        /* \"#utility.yul\":25303:25682   */\n    tag_143:\n        /* \"#utility.yul\":25487:25490   */\n      0x00\n        /* \"#utility.yul\":25509:25656   */\n      tag_500\n        /* \"#utility.yul\":25652:25655   */\n      dup3\n        /* \"#utility.yul\":25509:25656   */\n      tag_248\n      jump\t// in\n    tag_500:\n        /* \"#utility.yul\":25502:25656   */\n      swap2\n      pop\n        /* \"#utility.yul\":25673:25676   */\n      dup2\n        /* \"#utility.yul\":25666:25676   */\n      swap1\n      pop\n        /* \"#utility.yul\":25303:25682   */\n      swap2\n      swap1\n      pop\n      jump\t// out\n        /* \"#utility.yul\":25688:25851   */\n    tag_249:\n        /* \"#utility.yul\":25828:25843   */\n      0x4554485f53454e445f4641494c00000000000000000000000000000000000000\n        /* \"#utility.yul\":25824:25825   */\n      0x00\n        /* \"#utility.yul\":25816:25822   */\n      dup3\n        /* \"#utility.yul\":25812:25826   */\n      add\n        /* \"#utility.yul\":25805:25844   */\n      mstore\n        /* \"#utility.yul\":25688:25851   */\n      pop\n      jump\t// out\n        /* \"#utility.yul\":25857:26223   */\n    tag_250:\n        /* \"#utility.yul\":25999:26002   */\n      0x00\n        /* \"#utility.yul\":26020:26087   */\n      tag_503\n        /* \"#utility.yul\":26084:26086   */\n      0x0d\n        /* \"#utility.yul\":26079:26082   */\n      dup4\n        /* \"#utility.yul\":26020:26087   */\n      tag_193\n      jump\t// in\n    tag_503:\n        /* \"#utility.yul\":26013:26087   */\n      swap2\n      pop\n        /* \"#utility.yul\":26096:26189   */\n      tag_504\n        /* \"#utility.yul\":26185:26188   */\n      dup3\n        /* \"#utility.yul\":26096:26189   */\n      tag_249\n      jump\t// in\n    tag_504:\n        /* \"#utility.yul\":26214:26216   */\n      0x20\n        /* \"#utility.yul\":26209:26212   */\n      dup3\n        /* \"#utility.yul\":26205:26217   */\n      add\n        /* \"#utility.yul\":26198:26217   */\n      swap1\n      pop\n        /* \"#utility.yul\":25857:26223   */\n      swap2\n      swap1\n      pop\n      jump\t// out\n        /* \"#utility.yul\":26229:26648   */\n    tag_149:\n        /* \"#utility.yul\":26395:26399   */\n      0x00\n        /* \"#utility.yul\":26433:26435   */\n      0x20\n        /* \"#utility.yul\":26422:26431   */\n      dup3\n        /* \"#utility.yul\":26418:26436   */\n      add\n        /* \"#utility.yul\":26410:26436   */\n      swap1\n      pop\n        /* \"#utility.yul\":26482:26491   */\n      dup2\n        /* \"#utility.yul\":26476:26480   */\n      dup2\n        /* \"#utility.yul\":26472:26492   */\n      sub\n        /* \"#utility.yul\":26468:26469   */\n      0x00\n        /* \"#utility.yul\":26457:26466   */\n      dup4\n        /* \"#utility.yul\":26453:26470   */\n      add\n        /* \"#utility.yul\":26446:26493   */\n      mstore\n        /* \"#utility.yul\":26510:26641   */\n      tag_506\n        /* \"#utility.yul\":26636:26640   */\n      dup2\n        /* \"#utility.yul\":26510:26641   */\n      tag_250\n      jump\t// in\n    tag_506:\n        /* \"#utility.yul\":26502:26641   */\n      swap1\n      pop\n        /* \"#utility.yul\":26229:26648   */\n      swap2\n      swap1\n      pop\n      jump\t// out\n        /* \"#utility.yul\":26654:26986   */\n    tag_152:\n        /* \"#utility.yul\":26775:26779   */\n      0x00\n        /* \"#utility.yul\":26813:26815   */\n      0x40\n        /* \"#utility.yul\":26802:26811   */\n      dup3\n        /* \"#utility.yul\":26798:26816   */\n      add\n        /* \"#utility.yul\":26790:26816   */\n      swap1\n      pop\n        /* \"#utility.yul\":26826:26897   */\n      tag_508\n        /* \"#utility.yul\":26894:26895   */\n      0x00\n        /* \"#utility.yul\":26883:26892   */\n      dup4\n        /* \"#utility.yul\":26879:26896   */\n      add\n        /* \"#utility.yul\":26870:26876   */\n      dup6\n        /* \"#utility.yul\":26826:26897   */\n      tag_184\n      jump\t// in\n    tag_508:\n        /* \"#utility.yul\":26907:26979   */\n      tag_509\n        /* \"#utility.yul\":26975:26977   */\n      0x20\n        /* \"#utility.yul\":26964:26973   */\n      dup4\n        /* \"#utility.yul\":26960:26978   */\n      add\n        /* \"#utility.yul\":26951:26957   */\n      dup5\n        /* \"#utility.yul\":26907:26979   */\n      tag_185\n      jump\t// in\n    tag_509:\n        /* \"#utility.yul\":26654:26986   */\n      swap4\n      swap3\n      pop\n      pop\n      pop\n      jump\t// out\n        /* \"#utility.yul\":26992:27082   */\n    tag_251:\n        /* \"#utility.yul\":27026:27033   */\n      0x00\n        /* \"#utility.yul\":27069:27074   */\n      dup2\n        /* \"#utility.yul\":27062:27075   */\n      iszero\n        /* \"#utility.yul\":27055:27076   */\n      iszero\n        /* \"#utility.yul\":27044:27076   */\n      swap1\n      pop\n        /* \"#utility.yul\":26992:27082   */\n      swap2\n      swap1\n      pop\n      jump\t// out\n        /* \"#utility.yul\":27088:27204   */\n    tag_252:\n        /* \"#utility.yul\":27158:27179   */\n      tag_512\n        /* \"#utility.yul\":27173:27178   */\n      dup2\n        /* \"#utility.yul\":27158:27179   */\n      tag_251\n      jump\t// in\n    tag_512:\n        /* \"#utility.yul\":27151:27156   */\n      dup2\n        /* \"#utility.yul\":27148:27180   */\n      eq\n        /* \"#utility.yul\":27138:27198   */\n      tag_513\n      jumpi\n        /* \"#utility.yul\":27194:27195   */\n      0x00\n        /* \"#utility.yul\":27191:27192   */\n      dup1\n        /* \"#utility.yul\":27184:27196   */\n      revert\n        /* \"#utility.yul\":27138:27198   */\n    tag_513:\n        /* \"#utility.yul\":27088:27204   */\n      pop\n      jump\t// out\n        /* \"#utility.yul\":27210:27347   */\n    tag_253:\n        /* \"#utility.yul\":27264:27269   */\n      0x00\n        /* \"#utility.yul\":27295:27301   */\n      dup2\n        /* \"#utility.yul\":27289:27302   */\n      mload\n        /* \"#utility.yul\":27280:27302   */\n      swap1\n      pop\n        /* \"#utility.yul\":27311:27341   */\n      tag_515\n        /* \"#utility.yul\":27335:27340   */\n      dup2\n        /* \"#utility.yul\":27311:27341   */\n      tag_252\n      jump\t// in\n    tag_515:\n        /* \"#utility.yul\":27210:27347   */\n      swap3\n      swap2\n      pop\n      pop\n      jump\t// out\n        /* \"#utility.yul\":27353:27698   */\n    tag_156:\n        /* \"#utility.yul\":27420:27426   */\n      0x00\n        /* \"#utility.yul\":27469:27471   */\n      0x20\n        /* \"#utility.yul\":27457:27466   */\n      dup3\n        /* \"#utility.yul\":27448:27455   */\n      dup5\n        /* \"#utility.yul\":27444:27467   */\n      sub\n        /* \"#utility.yul\":27440:27472   */\n      slt\n        /* \"#utility.yul\":27437:27556   */\n      iszero\n      tag_517\n      jumpi\n        /* \"#utility.yul\":27475:27554   */\n      tag_518\n      tag_177\n      jump\t// in\n    tag_518:\n        /* \"#utility.yul\":27437:27556   */\n    tag_517:\n        /* \"#utility.yul\":27595:27596   */\n      0x00\n        /* \"#utility.yul\":27620:27681   */\n      tag_519\n        /* \"#utility.yul\":27673:27680   */\n      dup5\n        /* \"#utility.yul\":27664:27670   */\n      dup3\n        /* \"#utility.yul\":27653:27662   */\n      dup6\n        /* \"#utility.yul\":27649:27671   */\n      add\n        /* \"#utility.yul\":27620:27681   */\n      tag_253\n      jump\t// in\n    tag_519:\n        /* \"#utility.yul\":27610:27681   */\n      swap2\n      pop\n        /* \"#utility.yul\":27566:27691   */\n      pop\n        /* \"#utility.yul\":27353:27698   */\n      swap3\n      swap2\n      pop\n      pop\n      jump\t// out\n        /* \"#utility.yul\":27704:27869   */\n    tag_254:\n        /* \"#utility.yul\":27844:27861   */\n      0x45524332305f53454e445f4641494c0000000000000000000000000000000000\n        /* \"#utility.yul\":27840:27841   */\n      0x00\n        /* \"#utility.yul\":27832:27838   */\n      dup3\n        /* \"#utility.yul\":27828:27842   */\n      add\n        /* \"#utility.yul\":27821:27862   */\n      mstore\n        /* \"#utility.yul\":27704:27869   */\n      pop\n      jump\t// out\n        /* \"#utility.yul\":27875:28241   */\n    tag_255:\n        /* \"#utility.yul\":28017:28020   */\n      0x00\n        /* \"#utility.yul\":28038:28105   */\n      tag_522\n        /* \"#utility.yul\":28102:28104   */\n      0x0f\n        /* \"#utility.yul\":28097:28100   */\n      dup4\n        /* \"#utility.yul\":28038:28105   */\n      tag_193\n      jump\t// in\n    tag_522:\n        /* \"#utility.yul\":28031:28105   */\n      swap2\n      pop\n        /* \"#utility.yul\":28114:28207   */\n      tag_523\n        /* \"#utility.yul\":28203:28206   */\n      dup3\n        /* \"#utility.yul\":28114:28207   */\n      tag_254\n      jump\t// in\n    tag_523:\n        /* \"#utility.yul\":28232:28234   */\n      0x20\n        /* \"#utility.yul\":28227:28230   */\n      dup3\n        /* \"#utility.yul\":28223:28235   */\n      add\n        /* \"#utility.yul\":28216:28235   */\n      swap1\n      pop\n        /* \"#utility.yul\":27875:28241   */\n      swap2\n      swap1\n      pop\n      jump\t// out\n        /* \"#utility.yul\":28247:28666   */\n    tag_159:\n        /* \"#utility.yul\":28413:28417   */\n      0x00\n        /* \"#utility.yul\":28451:28453   */\n      0x20\n        /* \"#utility.yul\":28440:28449   */\n      dup3\n        /* \"#utility.yul\":28436:28454   */\n      add\n        /* \"#utility.yul\":28428:28454   */\n      swap1\n      pop\n        /* \"#utility.yul\":28500:28509   */\n      dup2\n        /* \"#utility.yul\":28494:28498   */\n      dup2\n        /* \"#utility.yul\":28490:28510   */\n      sub\n        /* \"#utility.yul\":28486:28487   */\n      0x00\n        /* \"#utility.yul\":28475:28484   */\n      dup4\n        /* \"#utility.yul\":28471:28488   */\n      add\n        /* \"#utility.yul\":28464:28511   */\n      mstore\n        /* \"#utility.yul\":28528:28659   */\n      tag_525\n        /* \"#utility.yul\":28654:28658   */\n      dup2\n        /* \"#utility.yul\":28528:28659   */\n      tag_255\n      jump\t// in\n    tag_525:\n        /* \"#utility.yul\":28520:28659   */\n      swap1\n      pop\n        /* \"#utility.yul\":28247:28666   */\n      swap2\n      swap1\n      pop\n      jump\t// out\n        /* \"#utility.yul\":28672:28836   */\n    tag_256:\n        /* \"#utility.yul\":28812:28828   */\n      0x4241445f4554485f414d4f554e54000000000000000000000000000000000000\n        /* \"#utility.yul\":28808:28809   */\n      0x00\n        /* \"#utility.yul\":28800:28806   */\n      dup3\n        /* \"#utility.yul\":28796:28810   */\n      add\n        /* \"#utility.yul\":28789:28829   */\n      mstore\n        /* \"#utility.yul\":28672:28836   */\n      pop\n      jump\t// out\n        /* \"#utility.yul\":28842:29208   */\n    tag_257:\n        /* \"#utility.yul\":28984:28987   */\n      0x00\n        /* \"#utility.yul\":29005:29072   */\n      tag_528\n        /* \"#utility.yul\":29069:29071   */\n      0x0e\n        /* \"#utility.yul\":29064:29067   */\n      dup4\n        /* \"#utility.yul\":29005:29072   */\n      tag_193\n      jump\t// in\n    tag_528:\n        /* \"#utility.yul\":28998:29072   */\n      swap2\n      pop\n        /* \"#utility.yul\":29081:29174   */\n      tag_529\n        /* \"#utility.yul\":29170:29173   */\n      dup3\n        /* \"#utility.yul\":29081:29174   */\n      tag_256\n      jump\t// in\n    tag_529:\n        /* \"#utility.yul\":29199:29201   */\n      0x20\n        /* \"#utility.yul\":29194:29197   */\n      dup3\n        /* \"#utility.yul\":29190:29202   */\n      add\n        /* \"#utility.yul\":29183:29202   */\n      swap1\n      pop\n        /* \"#utility.yul\":28842:29208   */\n      swap2\n      swap1\n      pop\n      jump\t// out\n        /* \"#utility.yul\":29214:29633   */\n    tag_164:\n        /* \"#utility.yul\":29380:29384   */\n      0x00\n        /* \"#utility.yul\":29418:29420   */\n      0x20\n        /* \"#utility.yul\":29407:29416   */\n      dup3\n        /* \"#utility.yul\":29403:29421   */\n      add\n        /* \"#utility.yul\":29395:29421   */\n      swap1\n      pop\n        /* \"#utility.yul\":29467:29476   */\n      dup2\n        /* \"#utility.yul\":29461:29465   */\n      dup2\n        /* \"#utility.yul\":29457:29477   */\n      sub\n        /* \"#utility.yul\":29453:29454   */\n      0x00\n        /* \"#utility.yul\":29442:29451   */\n      dup4\n        /* \"#utility.yul\":29438:29455   */\n      add\n        /* \"#utility.yul\":29431:29478   */\n      mstore\n        /* \"#utility.yul\":29495:29626   */\n      tag_531\n        /* \"#utility.yul\":29621:29625   */\n      dup2\n        /* \"#utility.yul\":29495:29626   */\n      tag_257\n      jump\t// in\n    tag_531:\n        /* \"#utility.yul\":29487:29626   */\n      swap1\n      pop\n        /* \"#utility.yul\":29214:29633   */\n      swap2\n      swap1\n      pop\n      jump\t// out\n        /* \"#utility.yul\":29639:30081   */\n    tag_167:\n        /* \"#utility.yul\":29788:29792   */\n      0x00\n        /* \"#utility.yul\":29826:29828   */\n      0x60\n        /* \"#utility.yul\":29815:29824   */\n      dup3\n        /* \"#utility.yul\":29811:29829   */\n      add\n        /* \"#utility.yul\":29803:29829   */\n      swap1\n      pop\n        /* \"#utility.yul\":29839:29910   */\n      tag_533\n        /* \"#utility.yul\":29907:29908   */\n      0x00\n        /* \"#utility.yul\":29896:29905   */\n      dup4\n        /* \"#utility.yul\":29892:29909   */\n      add\n        /* \"#utility.yul\":29883:29889   */\n      dup7\n        /* \"#utility.yul\":29839:29910   */\n      tag_184\n      jump\t// in\n    tag_533:\n        /* \"#utility.yul\":29920:29992   */\n      tag_534\n        /* \"#utility.yul\":29988:29990   */\n      0x20\n        /* \"#utility.yul\":29977:29986   */\n      dup4\n        /* \"#utility.yul\":29973:29991   */\n      add\n        /* \"#utility.yul\":29964:29970   */\n      dup6\n        /* \"#utility.yul\":29920:29992   */\n      tag_184\n      jump\t// in\n    tag_534:\n        /* \"#utility.yul\":30002:30074   */\n      tag_535\n        /* \"#utility.yul\":30070:30072   */\n      0x40\n        /* \"#utility.yul\":30059:30068   */\n      dup4\n        /* \"#utility.yul\":30055:30073   */\n      add\n        /* \"#utility.yul\":30046:30052   */\n      dup5\n        /* \"#utility.yul\":30002:30074   */\n      tag_185\n      jump\t// in\n    tag_535:\n        /* \"#utility.yul\":29639:30081   */\n      swap5\n      swap4\n      pop\n      pop\n      pop\n      pop\n      jump\t// out\n        /* \"#utility.yul\":30087:30252   */\n    tag_258:\n        /* \"#utility.yul\":30227:30244   */\n      0x45524332305f50554c4c5f4641494c0000000000000000000000000000000000\n        /* \"#utility.yul\":30223:30224   */\n      0x00\n        /* \"#utility.yul\":30215:30221   */\n      dup3\n        /* \"#utility.yul\":30211:30225   */\n      add\n        /* \"#utility.yul\":30204:30245   */\n      mstore\n        /* \"#utility.yul\":30087:30252   */\n      pop\n      jump\t// out\n        /* \"#utility.yul\":30258:30624   */\n    tag_259:\n        /* \"#utility.yul\":30400:30403   */\n      0x00\n        /* \"#utility.yul\":30421:30488   */\n      tag_538\n        /* \"#utility.yul\":30485:30487   */\n      0x0f\n        /* \"#utility.yul\":30480:30483   */\n      dup4\n        /* \"#utility.yul\":30421:30488   */\n      tag_193\n      jump\t// in\n    tag_538:\n        /* \"#utility.yul\":30414:30488   */\n      swap2\n      pop\n        /* \"#utility.yul\":30497:30590   */\n      tag_539\n        /* \"#utility.yul\":30586:30589   */\n      dup3\n        /* \"#utility.yul\":30497:30590   */\n      tag_258\n      jump\t// in\n    tag_539:\n        /* \"#utility.yul\":30615:30617   */\n      0x20\n        /* \"#utility.yul\":30610:30613   */\n      dup3\n        /* \"#utility.yul\":30606:30618   */\n      add\n        /* \"#utility.yul\":30599:30618   */\n      swap1\n      pop\n        /* \"#utility.yul\":30258:30624   */\n      swap2\n      swap1\n      pop\n      jump\t// out\n        /* \"#utility.yul\":30630:31049   */\n    tag_173:\n        /* \"#utility.yul\":30796:30800   */\n      0x00\n        /* \"#utility.yul\":30834:30836   */\n      0x20\n        /* \"#utility.yul\":30823:30832   */\n      dup3\n        /* \"#utility.yul\":30819:30837   */\n      add\n        /* \"#utility.yul\":30811:30837   */\n      swap1\n      pop\n        /* \"#utility.yul\":30883:30892   */\n      dup2\n        /* \"#utility.yul\":30877:30881   */\n      dup2\n        /* \"#utility.yul\":30873:30893   */\n      sub\n        /* \"#utility.yul\":30869:30870   */\n      0x00\n        /* \"#utility.yul\":30858:30867   */\n      dup4\n        /* \"#utility.yul\":30854:30871   */\n      add\n        /* \"#utility.yul\":30847:30894   */\n      mstore\n        /* \"#utility.yul\":30911:31042   */\n      tag_541\n        /* \"#utility.yul\":31037:31041   */\n      dup2\n        /* \"#utility.yul\":30911:31042   */\n      tag_259\n      jump\t// in\n    tag_541:\n        /* \"#utility.yul\":30903:31042   */\n      swap1\n      pop\n        /* \"#utility.yul\":30630:31049   */\n      swap2\n      swap1\n      pop\n      jump\t// out\n\n    auxdata: 0xa26469706673582212200fe936e449d17a5992baa59d40e9af1379ea065c3bd16dd644b5ddb6671165c264736f6c63430008180033\n}\n",
				"bytecode": {
					"linkReferences": {},
					"object": "608060405260015f55348015610013575f80fd5b506122a8806100215f395ff3fe608060405260043610610073575f3560e01c8063c5f6346d1161004d578063c5f6346d14610127578063ca1d209d1461014f578063dd3c05e71461016b578063fd84cb97146101a75761007a565b806303988f841461007e5780634d9879e3146100c157806382fd5bac146100eb5761007a565b3661007a57005b5f80fd5b348015610089575f80fd5b506100a4600480360381019061009f91906113e1565b6101cf565b6040516100b8989796959493929190611579565b60405180910390f35b3480156100cc575f80fd5b506100d5610316565b6040516100e291906115fc565b60405180910390f35b3480156100f6575f80fd5b50610111600480360381019061010c91906113e1565b61031b565b60405161011e9190611746565b60405180910390f35b348015610132575f80fd5b5061014d600480360381019061014891906113e1565b610555565b005b610169600480360381019061016491906113e1565b6107b9565b005b348015610176575f80fd5b50610191600480360381019061018c919061181b565b610974565b60405161019e91906115fc565b60405180910390f35b3480156101b2575f80fd5b506101cd60048036038101906101c891906113e1565b610d90565b005b6001602052805f5260405f205f91509050805f015f9054906101000a900473ffffffffffffffffffffffffffffffffffffffff1690806001015f9054906101000a900473ffffffffffffffffffffffffffffffffffffffff1690806002015f9054906101000a900473ffffffffffffffffffffffffffffffffffffffff1690806003015490806004015f9054906101000a900467ffffffffffffffff16908060040160089054906101000a900460ff169080600501805461028f90611905565b80601f01602080910402602001604051908101604052809291908181526020018280546102bb90611905565b80156103065780601f106102dd57610100808354040283529160200191610306565b820191905f5260205f20905b8154815290600101906020018083116102e957829003601f168201915b5050505050908060060154905088565b5f5481565b61032361130a565b60015f8381526020019081526020015f20604051806101000160405290815f82015f9054906101000a900473ffffffffffffffffffffffffffffffffffffffff1673ffffffffffffffffffffffffffffffffffffffff1673ffffffffffffffffffffffffffffffffffffffff168152602001600182015f9054906101000a900473ffffffffffffffffffffffffffffffffffffffff1673ffffffffffffffffffffffffffffffffffffffff1673ffffffffffffffffffffffffffffffffffffffff168152602001600282015f9054906101000a900473ffffffffffffffffffffffffffffffffffffffff1673ffffffffffffffffffffffffffffffffffffffff1673ffffffffffffffffffffffffffffffffffffffff16815260200160038201548152602001600482015f9054906101000a900467ffffffffffffffff1667ffffffffffffffff1667ffffffffffffffff1681526020016004820160089054906101000a900460ff16600481111561049e5761049d61147c565b5b60048111156104b0576104af61147c565b5b81526020016005820180546104c490611905565b80601f01602080910402602001604051908101604052809291908181526020018280546104f090611905565b801561053b5780601f106105125761010080835404028352916020019161053b565b820191905f5260205f20905b81548152906001019060200180831161051e57829003601f168201915b505050505081526020016006820154815250509050919050565b5f60015f8381526020019081526020015f2090506002600481111561057d5761057c61147c565b5b8160040160089054906101000a900460ff1660048111156105a1576105a061147c565b5b146105e1576040517f08c379a00000000000000000000000000000000000000000000000000000000081526004016105d89061197f565b60405180910390fd5b806004015f9054906101000a900467ffffffffffffffff1667ffffffffffffffff164211610644576040517f08c379a000000000000000000000000000000000000000000000000000000000815260040161063b906119e7565b60405180910390fd5b805f015f9054906101000a900473ffffffffffffffffffffffffffffffffffffffff1673ffffffffffffffffffffffffffffffffffffffff163373ffffffffffffffffffffffffffffffffffffffff16146106d4576040517f08c379a00000000000000000000000000000000000000000000000000000000081526004016106cb90611a4f565b60405180910390fd5b60048160040160086101000a81548160ff021916908360048111156106fc576106fb61147c565b5b0217905550610755816002015f9054906101000a900473ffffffffffffffffffffffffffffffffffffffff16825f015f9054906101000a900473ffffffffffffffffffffffffffffffffffffffff168360030154611024565b817fe5fd53654bc4ea55a3106f8f2bd57252875afee33cc027448099373ae65408f68260030154835f015f9054906101000a900473ffffffffffffffffffffffffffffffffffffffff166040516107ad929190611a6d565b60405180910390a25050565b5f60015f8381526020019081526020015f209050600160048111156107e1576107e061147c565b5b8160040160089054906101000a900460ff1660048111156108055761080461147c565b5b14610845576040517f08c379a000000000000000000000000000000000000000000000000000000000815260040161083c9061197f565b60405180910390fd5b805f015f9054906101000a900473ffffffffffffffffffffffffffffffffffffffff1673ffffffffffffffffffffffffffffffffffffffff163373ffffffffffffffffffffffffffffffffffffffff16146108d5576040517f08c379a00000000000000000000000000000000000000000000000000000000081526004016108cc90611a4f565b60405180910390fd5b610907816002015f9054906101000a900473ffffffffffffffffffffffffffffffffffffffff163383600301546111ce565b60028160040160086101000a81548160ff0219169083600481111561092f5761092e61147c565b5b0217905550817fa1dd612b9278fe0bb5d89ed1f642dc3678d0e558630c5a4a8df212ba2197cdb4826003015460405161096891906115fc565b60405180910390a25050565b5f8073ffffffffffffffffffffffffffffffffffffffff168973ffffffffffffffffffffffffffffffffffffffff16141580156109dd57505f73ffffffffffffffffffffffffffffffffffffffff168873ffffffffffffffffffffffffffffffffffffffff1614155b610a1c576040517f08c379a0000000000000000000000000000000000000000000000000000000008152600401610a1390611ade565b60405180910390fd5b5f84118015610a2a57505f85115b610a69576040517f08c379a0000000000000000000000000000000000000000000000000000000008152600401610a6090611b46565b60405180910390fd5b428367ffffffffffffffff1611610ab5576040517f08c379a0000000000000000000000000000000000000000000000000000000008152600401610aac90611bae565b60405180910390fd5b5f80815480929190610ac690611bf9565b9190505590506040518061010001604052808a73ffffffffffffffffffffffffffffffffffffffff1681526020018973ffffffffffffffffffffffffffffffffffffffff1681526020018373ffffffffffffffffffffffffffffffffffffffff1681526020018581526020018467ffffffffffffffff16815260200160016004811115610b5657610b5561147c565b5b815260200188888080601f0160208091040260200160405190810160405280939291908181526020018383808284375f81840152601f19601f8201169050808301925050505050505081526020018681525060015f8381526020019081526020015f205f820151815f015f6101000a81548173ffffffffffffffffffffffffffffffffffffffff021916908373ffffffffffffffffffffffffffffffffffffffff1602179055506020820151816001015f6101000a81548173ffffffffffffffffffffffffffffffffffffffff021916908373ffffffffffffffffffffffffffffffffffffffff1602179055506040820151816002015f6101000a81548173ffffffffffffffffffffffffffffffffffffffff021916908373ffffffffffffffffffffffffffffffffffffffff160217905550606082015181600301556080820151816004015f6101000a81548167ffffffffffffffff021916908367ffffffffffffffff16021790555060a08201518160040160086101000a81548160ff02191690836004811115610cec57610ceb61147c565b5b021790555060c0820151816005019081610d069190611e0a565b5060e082015181600601559050508773ffffffffffffffffffffffffffffffffffffffff168973ffffffffffffffffffffffffffffffffffffffff16827fe6ffa9eb43ce4abcd42aa4b479372e379b4cef0bfd3d4712b5ffa2773f7d80fe8588888d8d8d604051610d7c96959493929190611f13565b60405180910390a498975050505050505050565b5f60015f8381526020019081526020015f20905060026004811115610db857610db761147c565b5b8160040160089054906101000a900460ff166004811115610ddc57610ddb61147c565b5b14610e1c576040517f08c379a0000000000000000000000000000000000000000000000000000000008152600401610e139061197f565b60405180910390fd5b805f015f9054906101000a900473ffffffffffffffffffffffffffffffffffffffff1673ffffffffffffffffffffffffffffffffffffffff163373ffffffffffffffffffffffffffffffffffffffff1614610eac576040517f08c379a0000000000000000000000000000000000000000000000000000000008152600401610ea390611a4f565b60405180910390fd5b806004015f9054906101000a900467ffffffffffffffff1667ffffffffffffffff16421115610f10576040517f08c379a0000000000000000000000000000000000000000000000000000000008152600401610f0790611fb7565b60405180910390fd5b60038160040160086101000a81548160ff02191690836004811115610f3857610f3761147c565b5b0217905550817ffcc296b8bdd64e3f1d1faadef50cb2d6550f645316330fe57cb1dd7e0612ead060405160405180910390a2610fbf816002015f9054906101000a900473ffffffffffffffffffffffffffffffffffffffff16826001015f9054906101000a900473ffffffffffffffffffffffffffffffffffffffff168360030154611024565b817fdf4272fe23c514e87c5a27bf91662b78c3ffa601cda0803f8135331bce958ef18260030154836001015f9054906101000a900473ffffffffffffffffffffffffffffffffffffffff16604051611018929190611a6d565b60405180910390a25050565b5f8103156111c9575f73ffffffffffffffffffffffffffffffffffffffff168373ffffffffffffffffffffffffffffffffffffffff160361110d575f8273ffffffffffffffffffffffffffffffffffffffff168260405161108490612002565b5f6040518083038185875af1925050503d805f81146110be576040519150601f19603f3d011682016040523d82523d5f602084013e6110c3565b606091505b5050905080611107576040517f08c379a00000000000000000000000000000000000000000000000000000000081526004016110fe90612060565b60405180910390fd5b506111c8565b8273ffffffffffffffffffffffffffffffffffffffff1663a9059cbb83836040518363ffffffff1660e01b815260040161114892919061207e565b6020604051808303815f875af1158015611164573d5f803e3d5ffd5b505050506040513d601f19601f8201168201806040525081019061118891906120da565b6111c7576040517f08c379a00000000000000000000000000000000000000000000000000000000081526004016111be9061214f565b60405180910390fd5b5b5b505050565b5f73ffffffffffffffffffffffffffffffffffffffff168373ffffffffffffffffffffffffffffffffffffffff160361124857803414611243576040517f08c379a000000000000000000000000000000000000000000000000000000000815260040161123a906121b7565b60405180910390fd5b611305565b8273ffffffffffffffffffffffffffffffffffffffff166323b872dd8330846040518463ffffffff1660e01b8152600401611285939291906121d5565b6020604051808303815f875af11580156112a1573d5f803e3d5ffd5b505050506040513d601f19601f820116820180604052508101906112c591906120da565b611304576040517f08c379a00000000000000000000000000000000000000000000000000000000081526004016112fb90612254565b60405180910390fd5b5b505050565b6040518061010001604052805f73ffffffffffffffffffffffffffffffffffffffff1681526020015f73ffffffffffffffffffffffffffffffffffffffff1681526020015f73ffffffffffffffffffffffffffffffffffffffff1681526020015f81526020015f67ffffffffffffffff1681526020015f60048111156113935761139261147c565b5b8152602001606081526020015f81525090565b5f80fd5b5f80fd5b5f819050919050565b6113c0816113ae565b81146113ca575f80fd5b50565b5f813590506113db816113b7565b92915050565b5f602082840312156113f6576113f56113a6565b5b5f611403848285016113cd565b91505092915050565b5f73ffffffffffffffffffffffffffffffffffffffff82169050919050565b5f6114358261140c565b9050919050565b6114458161142b565b82525050565b611454816113ae565b82525050565b5f67ffffffffffffffff82169050919050565b6114768161145a565b82525050565b7f4e487b71000000000000000000000000000000000000000000000000000000005f52602160045260245ffd5b600581106114ba576114b961147c565b5b50565b5f8190506114ca826114a9565b919050565b5f6114d9826114bd565b9050919050565b6114e9816114cf565b82525050565b5f81519050919050565b5f82825260208201905092915050565b5f5b8381101561152657808201518184015260208101905061150b565b5f8484015250505050565b5f601f19601f8301169050919050565b5f61154b826114ef565b61155581856114f9565b9350611565818560208601611509565b61156e81611531565b840191505092915050565b5f6101008201905061158d5f83018b61143c565b61159a602083018a61143c565b6115a7604083018961143c565b6115b4606083018861144b565b6115c1608083018761146d565b6115ce60a08301866114e0565b81810360c08301526115e08185611541565b90506115ef60e083018461144b565b9998505050505050505050565b5f60208201905061160f5f83018461144b565b92915050565b61161e8161142b565b82525050565b61162d816113ae565b82525050565b61163c8161145a565b82525050565b61164b816114cf565b82525050565b5f82825260208201905092915050565b5f61166b826114ef565b6116758185611651565b9350611685818560208601611509565b61168e81611531565b840191505092915050565b5f61010083015f8301516116af5f860182611615565b5060208301516116c26020860182611615565b5060408301516116d56040860182611615565b5060608301516116e86060860182611624565b5060808301516116fb6080860182611633565b5060a083015161170e60a0860182611642565b5060c083015184820360c08601526117268282611661565b91505060e083015161173b60e0860182611624565b508091505092915050565b5f6020820190508181035f83015261175e8184611699565b905092915050565b61176f8161142b565b8114611779575f80fd5b50565b5f8135905061178a81611766565b92915050565b5f80fd5b5f80fd5b5f80fd5b5f8083601f8401126117b1576117b0611790565b5b8235905067ffffffffffffffff8111156117ce576117cd611794565b5b6020830191508360018202830111156117ea576117e9611798565b5b9250929050565b6117fa8161145a565b8114611804575f80fd5b50565b5f81359050611815816117f1565b92915050565b5f805f805f805f8060e0898b031215611837576118366113a6565b5b5f6118448b828c0161177c565b98505060206118558b828c0161177c565b975050604089013567ffffffffffffffff811115611876576118756113aa565b5b6118828b828c0161179c565b965096505060606118958b828c016113cd565b94505060806118a68b828c016113cd565b93505060a06118b78b828c01611807565b92505060c06118c88b828c0161177c565b9150509295985092959890939650565b7f4e487b71000000000000000000000000000000000000000000000000000000005f52602260045260245ffd5b5f600282049050600182168061191c57607f821691505b60208210810361192f5761192e6118d8565b5b50919050565b7f4241445f535441545553000000000000000000000000000000000000000000005f82015250565b5f611969600a836114f9565b915061197482611935565b602082019050919050565b5f6020820190508181035f8301526119968161195d565b9050919050565b7f4245464f52455f444541444c494e4500000000000000000000000000000000005f82015250565b5f6119d1600f836114f9565b91506119dc8261199d565b602082019050919050565b5f6020820190508181035f8301526119fe816119c5565b9050919050565b7f4f4e4c595f4255594552000000000000000000000000000000000000000000005f82015250565b5f611a39600a836114f9565b9150611a4482611a05565b602082019050919050565b5f6020820190508181035f830152611a6681611a2d565b9050919050565b5f604082019050611a805f83018561144b565b611a8d602083018461143c565b9392505050565b7f414444525f3000000000000000000000000000000000000000000000000000005f82015250565b5f611ac86006836114f9565b9150611ad382611a94565b602082019050919050565b5f6020820190508181035f830152611af581611abc565b9050919050565b7f5a45524f5f56414c0000000000000000000000000000000000000000000000005f82015250565b5f611b306008836114f9565b9150611b3b82611afc565b602082019050919050565b5f6020820190508181035f830152611b5d81611b24565b9050919050565b7f4241445f444541444c494e4500000000000000000000000000000000000000005f82015250565b5f611b98600c836114f9565b9150611ba382611b64565b602082019050919050565b5f6020820190508181035f830152611bc581611b8c565b9050919050565b7f4e487b71000000000000000000000000000000000000000000000000000000005f52601160045260245ffd5b5f611c03826113ae565b91507fffffffffffffffffffffffffffffffffffffffffffffffffffffffffffffffff8203611c3557611c34611bcc565b5b600182019050919050565b7f4e487b71000000000000000000000000000000000000000000000000000000005f52604160045260245ffd5b5f819050815f5260205f209050919050565b5f6020601f8301049050919050565b5f82821b905092915050565b5f60088302611cc97fffffffffffffffffffffffffffffffffffffffffffffffffffffffffffffffff82611c8e565b611cd38683611c8e565b95508019841693508086168417925050509392505050565b5f819050919050565b5f611d0e611d09611d04846113ae565b611ceb565b6113ae565b9050919050565b5f819050919050565b611d2783611cf4565b611d3b611d3382611d15565b848454611c9a565b825550505050565b5f90565b611d4f611d43565b611d5a818484611d1e565b505050565b5b81811015611d7d57611d725f82611d47565b600181019050611d60565b5050565b601f821115611dc257611d9381611c6d565b611d9c84611c7f565b81016020851015611dab578190505b611dbf611db785611c7f565b830182611d5f565b50505b505050565b5f82821c905092915050565b5f611de25f1984600802611dc7565b1980831691505092915050565b5f611dfa8383611dd3565b9150826002028217905092915050565b611e13826114ef565b67ffffffffffffffff811115611e2c57611e2b611c40565b5b611e368254611905565b611e41828285611d81565b5f60209050601f831160018114611e72575f8415611e60578287015190505b611e6a8582611def565b865550611ed1565b601f198416611e8086611c6d565b5f5b82811015611ea757848901518255600182019150602085019450602081019050611e82565b86831015611ec45784890151611ec0601f891682611dd3565b8355505b6001600288020188555050505b505050505050565b828183375f83830152505050565b5f611ef283856114f9565b9350611eff838584611ed9565b611f0883611531565b840190509392505050565b5f60a082019050611f265f83018961143c565b611f33602083018861144b565b611f40604083018761146d565b8181036060830152611f53818587611ee7565b9050611f62608083018461144b565b979650505050505050565b7f41465445525f444541444c494e450000000000000000000000000000000000005f82015250565b5f611fa1600e836114f9565b9150611fac82611f6d565b602082019050919050565b5f6020820190508181035f830152611fce81611f95565b9050919050565b5f81905092915050565b50565b5f611fed5f83611fd5565b9150611ff882611fdf565b5f82019050919050565b5f61200c82611fe2565b9150819050919050565b7f4554485f53454e445f4641494c000000000000000000000000000000000000005f82015250565b5f61204a600d836114f9565b915061205582612016565b602082019050919050565b5f6020820190508181035f8301526120778161203e565b9050919050565b5f6040820190506120915f83018561143c565b61209e602083018461144b565b9392505050565b5f8115159050919050565b6120b9816120a5565b81146120c3575f80fd5b50565b5f815190506120d4816120b0565b92915050565b5f602082840312156120ef576120ee6113a6565b5b5f6120fc848285016120c6565b91505092915050565b7f45524332305f53454e445f4641494c00000000000000000000000000000000005f82015250565b5f612139600f836114f9565b915061214482612105565b602082019050919050565b5f6020820190508181035f8301526121668161212d565b9050919050565b7f4241445f4554485f414d4f554e540000000000000000000000000000000000005f82015250565b5f6121a1600e836114f9565b91506121ac8261216d565b602082019050919050565b5f6020820190508181035f8301526121ce81612195565b9050919050565b5f6060820190506121e85f83018661143c565b6121f5602083018561143c565b612202604083018461144b565b949350505050565b7f45524332305f50554c4c5f4641494c00000000000000000000000000000000005f82015250565b5f61223e600f836114f9565b91506122498261220a565b602082019050919050565b5f6020820190508181035f83015261226b81612232565b905091905056fea26469706673582212200fe936e449d17a5992baa59d40e9af1379ea065c3bd16dd644b5ddb6671165c264736f6c63430008180033",
					"opcodes": "PUSH1 0x80 PUSH1 0x40 MSTORE PUSH1 0x1 PUSH0 SSTORE CALLVALUE DUP1 ISZERO PUSH2 0x13 JUMPI PUSH0 DUP1 REVERT JUMPDEST POP PUSH2 0x22A8 DUP1 PUSH2 0x21 PUSH0 CODECOPY PUSH0 RETURN INVALID PUSH1 0x80 PUSH1 0x40 MSTORE PUSH1 0x4 CALLDATASIZE LT PUSH2 0x73 JUMPI PUSH0 CALLDATALOAD PUSH1 0xE0 SHR DUP1 PUSH4 0xC5F6346D GT PUSH2 0x4D JUMPI DUP1 PUSH4 0xC5F6346D EQ PUSH2 0x127 JUMPI DUP1 PUSH4 0xCA1D209D EQ PUSH2 0x14F JUMPI DUP1 PUSH4 0xDD3C05E7 EQ PUSH2 0x16B JUMPI DUP1 PUSH4 0xFD84CB97 EQ PUSH2 0x1A7 JUMPI PUSH2 0x7A JUMP JUMPDEST DUP1 PUSH4 0x3988F84 EQ PUSH2 0x7E JUMPI DUP1 PUSH4 0x4D9879E3 EQ PUSH2 0xC1 JUMPI DUP1 PUSH4 0x82FD5BAC EQ PUSH2 0xEB JUMPI PUSH2 0x7A JUMP JUMPDEST CALLDATASIZE PUSH2 0x7A JUMPI STOP JUMPDEST PUSH0 DUP1 REVERT JUMPDEST CALLVALUE DUP1 ISZERO PUSH2 0x89 JUMPI PUSH0 DUP1 REVERT JUMPDEST POP PUSH2 0xA4 PUSH1 0x4 DUP1 CALLDATASIZE SUB DUP2 ADD SWAP1 PUSH2 0x9F SWAP2 SWAP1 PUSH2 0x13E1 JUMP JUMPDEST PUSH2 0x1CF JUMP JUMPDEST PUSH1 0x40 MLOAD PUSH2 0xB8 SWAP9 SWAP8 SWAP7 SWAP6 SWAP5 SWAP4 SWAP3 SWAP2 SWAP1 PUSH2 0x1579 JUMP JUMPDEST PUSH1 0x40 MLOAD DUP1 SWAP2 SUB SWAP1 RETURN JUMPDEST CALLVALUE DUP1 ISZERO PUSH2 0xCC JUMPI PUSH0 DUP1 REVERT JUMPDEST POP PUSH2 0xD5 PUSH2 0x316 JUMP JUMPDEST PUSH1 0x40 MLOAD PUSH2 0xE2 SWAP2 SWAP1 PUSH2 0x15FC JUMP JUMPDEST PUSH1 0x40 MLOAD DUP1 SWAP2 SUB SWAP1 RETURN JUMPDEST CALLVALUE DUP1 ISZERO PUSH2 0xF6 JUMPI PUSH0 DUP1 REVERT JUMPDEST POP PUSH2 0x111 PUSH1 0x4 DUP1 CALLDATASIZE SUB DUP2 ADD SWAP1 PUSH2 0x10C SWAP2 SWAP1 PUSH2 0x13E1 JUMP JUMPDEST PUSH2 0x31B JUMP JUMPDEST PUSH1 0x40 MLOAD PUSH2 0x11E SWAP2 SWAP1 PUSH2 0x1746 JUMP JUMPDEST PUSH1 0x40 MLOAD DUP1 SWAP2 SUB SWAP1 RETURN JUMPDEST CALLVALUE DUP1 ISZERO PUSH2 0x132 JUMPI PUSH0 DUP1 REVERT JUMPDEST POP PUSH2 0x14D PUSH1 0x4 DUP1 CALLDATASIZE SUB DUP2 ADD SWAP1 PUSH2 0x148 SWAP2 SWAP1 PUSH2 0x13E1 JUMP JUMPDEST PUSH2 0x555 JUMP JUMPDEST STOP JUMPDEST PUSH2 0x169 PUSH1 0x4 DUP1 CALLDATASIZE SUB DUP2 ADD SWAP1 PUSH2 0x164 SWAP2 SWAP1 PUSH2 0x13E1 JUMP JUMPDEST PUSH2 0x7B9 JUMP JUMPDEST STOP JUMPDEST CALLVALUE DUP1 ISZERO PUSH2 0x176 JUMPI PUSH0 DUP1 REVERT JUMPDEST POP PUSH2 0x191 PUSH1 0x4 DUP1 CALLDATASIZE SUB DUP2 ADD SWAP1 PUSH2 0x18C SWAP2 SWAP1 PUSH2 0x181B JUMP JUMPDEST PUSH2 0x974 JUMP JUMPDEST PUSH1 0x40 MLOAD PUSH2 0x19E SWAP2 SWAP1 PUSH2 0x15FC JUMP JUMPDEST PUSH1 0x40 MLOAD DUP1 SWAP2 SUB SWAP1 RETURN JUMPDEST CALLVALUE DUP1 ISZERO PUSH2 0x1B2 JUMPI PUSH0 DUP1 REVERT JUMPDEST POP PUSH2 0x1CD PUSH1 0x4 DUP1 CALLDATASIZE SUB DUP2 ADD SWAP1 PUSH2 0x1C8 SWAP2 SWAP1 PUSH2 0x13E1 JUMP JUMPDEST PUSH2 0xD90 JUMP JUMPDEST STOP JUMPDEST PUSH1 0x1 PUSH1 0x20 MSTORE DUP1 PUSH0 MSTORE PUSH1 0x40 PUSH0 KECCAK256 PUSH0 SWAP2 POP SWAP1 POP DUP1 PUSH0 ADD PUSH0 SWAP1 SLOAD SWAP1 PUSH2 0x100 EXP SWAP1 DIV PUSH20 0xFFFFFFFFFFFFFFFFFFFFFFFFFFFFFFFFFFFFFFFF AND SWAP1 DUP1 PUSH1 0x1 ADD PUSH0 SWAP1 SLOAD SWAP1 PUSH2 0x100 EXP SWAP1 DIV PUSH20 0xFFFFFFFFFFFFFFFFFFFFFFFFFFFFFFFFFFFFFFFF AND SWAP1 DUP1 PUSH1 0x2 ADD PUSH0 SWAP1 SLOAD SWAP1 PUSH2 0x100 EXP SWAP1 DIV PUSH20 0xFFFFFFFFFFFFFFFFFFFFFFFFFFFFFFFFFFFFFFFF AND SWAP1 DUP1 PUSH1 0x3 ADD SLOAD SWAP1 DUP1 PUSH1 0x4 ADD PUSH0 SWAP1 SLOAD SWAP1 PUSH2 0x100 EXP SWAP1 DIV PUSH8 0xFFFFFFFFFFFFFFFF AND SWAP1 DUP1 PUSH1 0x4 ADD PUSH1 0x8 SWAP1 SLOAD SWAP1 PUSH2 0x100 EXP SWAP1 DIV PUSH1 0xFF AND SWAP1 DUP1 PUSH1 0x5 ADD DUP1 SLOAD PUSH2 0x28F SWAP1 PUSH2 0x1905 JUMP JUMPDEST DUP1 PUSH1 0x1F ADD PUSH1 0x20 DUP1 SWAP2 DIV MUL PUSH1 0x20 ADD PUSH1 0x40 MLOAD SWAP1 DUP2 ADD PUSH1 0x40 MSTORE DUP1 SWAP3 SWAP2 SWAP1 DUP2 DUP2 MSTORE PUSH1 0x20 ADD DUP3 DUP1 SLOAD PUSH2 0x2BB SWAP1 PUSH2 0x1905 JUMP JUMPDEST DUP1 ISZERO PUSH2 0x306 JUMPI DUP1 PUSH1 0x1F LT PUSH2 0x2DD JUMPI PUSH2 0x100 DUP1 DUP4 SLOAD DIV MUL DUP4 MSTORE SWAP2 PUSH1 0x20 ADD SWAP2 PUSH2 0x306 JUMP JUMPDEST DUP3 ADD SWAP2 SWAP1 PUSH0 MSTORE PUSH1 0x20 PUSH0 KECCAK256 SWAP1 JUMPDEST DUP2 SLOAD DUP2 MSTORE SWAP1 PUSH1 0x1 ADD SWAP1 PUSH1 0x20 ADD DUP1 DUP4 GT PUSH2 0x2E9 JUMPI DUP3 SWAP1 SUB PUSH1 0x1F AND DUP3 ADD SWAP2 JUMPDEST POP POP POP POP POP SWAP1 DUP1 PUSH1 0x6 ADD SLOAD SWAP1 POP DUP9 JUMP JUMPDEST PUSH0 SLOAD DUP2 JUMP JUMPDEST PUSH2 0x323 PUSH2 0x130A JUMP JUMPDEST PUSH1 0x1 PUSH0 DUP4 DUP2 MSTORE PUSH1 0x20 ADD SWAP1 DUP2 MSTORE PUSH1 0x20 ADD PUSH0 KECCAK256 PUSH1 0x40 MLOAD DUP1 PUSH2 0x100 ADD PUSH1 0x40 MSTORE SWAP1 DUP2 PUSH0 DUP3 ADD PUSH0 SWAP1 SLOAD SWAP1 PUSH2 0x100 EXP SWAP1 DIV PUSH20 0xFFFFFFFFFFFFFFFFFFFFFFFFFFFFFFFFFFFFFFFF AND PUSH20 0xFFFFFFFFFFFFFFFFFFFFFFFFFFFFFFFFFFFFFFFF AND PUSH20 0xFFFFFFFFFFFFFFFFFFFFFFFFFFFFFFFFFFFFFFFF AND DUP2 MSTORE PUSH1 0x20 ADD PUSH1 0x1 DUP3 ADD PUSH0 SWAP1 SLOAD SWAP1 PUSH2 0x100 EXP SWAP1 DIV PUSH20 0xFFFFFFFFFFFFFFFFFFFFFFFFFFFFFFFFFFFFFFFF AND PUSH20 0xFFFFFFFFFFFFFFFFFFFFFFFFFFFFFFFFFFFFFFFF AND PUSH20 0xFFFFFFFFFFFFFFFFFFFFFFFFFFFFFFFFFFFFFFFF AND DUP2 MSTORE PUSH1 0x20 ADD PUSH1 0x2 DUP3 ADD PUSH0 SWAP1 SLOAD SWAP1 PUSH2 0x100 EXP SWAP1 DIV PUSH20 0xFFFFFFFFFFFFFFFFFFFFFFFFFFFFFFFFFFFFFFFF AND PUSH20 0xFFFFFFFFFFFFFFFFFFFFFFFFFFFFFFFFFFFFFFFF AND PUSH20 0xFFFFFFFFFFFFFFFFFFFFFFFFFFFFFFFFFFFFFFFF AND DUP2 MSTORE PUSH1 0x20 ADD PUSH1 0x3 DUP3 ADD SLOAD DUP2 MSTORE PUSH1 0x20 ADD PUSH1 0x4 DUP3 ADD PUSH0 SWAP1 SLOAD SWAP1 PUSH2 0x100 EXP SWAP1 DIV PUSH8 0xFFFFFFFFFFFFFFFF AND PUSH8 0xFFFFFFFFFFFFFFFF AND PUSH8 0xFFFFFFFFFFFFFFFF AND DUP2 MSTORE PUSH1 0x20 ADD PUSH1 0x4 DUP3 ADD PUSH1 0x8 SWAP1 SLOAD SWAP1 PUSH2 0x100 EXP SWAP1 DIV PUSH1 0xFF AND PUSH1 0x4 DUP2 GT ISZERO PUSH2 0x49E JUMPI PUSH2 0x49D PUSH2 0x147C JUMP JUMPDEST JUMPDEST PUSH1 0x4 DUP2 GT ISZERO PUSH2 0x4B0 JUMPI PUSH2 0x4AF PUSH2 0x147C JUMP JUMPDEST JUMPDEST DUP2 MSTORE PUSH1 0x20 ADD PUSH1 0x5 DUP3 ADD DUP1 SLOAD PUSH2 0x4C4 SWAP1 PUSH2 0x1905 JUMP JUMPDEST DUP1 PUSH1 0x1F ADD PUSH1 0x20 DUP1 SWAP2 DIV MUL PUSH1 0x20 ADD PUSH1 0x40 MLOAD SWAP1 DUP2 ADD PUSH1 0x40 MSTORE DUP1 SWAP3 SWAP2 SWAP1 DUP2 DUP2 MSTORE PUSH1 0x20 ADD DUP3 DUP1 SLOAD PUSH2 0x4F0 SWAP1 PUSH2 0x1905 JUMP JUMPDEST DUP1 ISZERO PUSH2 0x53B JUMPI DUP1 PUSH1 0x1F LT PUSH2 0x512 JUMPI PUSH2 0x100 DUP1 DUP4 SLOAD DIV MUL DUP4 MSTORE SWAP2 PUSH1 0x20 ADD SWAP2 PUSH2 0x53B JUMP JUMPDEST DUP3 ADD SWAP2 SWAP1 PUSH0 MSTORE PUSH1 0x20 PUSH0 KECCAK256 SWAP1 JUMPDEST DUP2 SLOAD DUP2 MSTORE SWAP1 PUSH1 0x1 ADD SWAP1 PUSH1 0x20 ADD DUP1 DUP4 GT PUSH2 0x51E JUMPI DUP3 SWAP1 SUB PUSH1 0x1F AND DUP3 ADD SWAP2 JUMPDEST POP POP POP POP POP DUP2 MSTORE PUSH1 0x20 ADD PUSH1 0x6 DUP3 ADD SLOAD DUP2 MSTORE POP POP SWAP1 POP SWAP2 SWAP1 POP JUMP JUMPDEST PUSH0 PUSH1 0x1 PUSH0 DUP4 DUP2 MSTORE PUSH1 0x20 ADD SWAP1 DUP2 MSTORE PUSH1 0x20 ADD PUSH0 KECCAK256 SWAP1 POP PUSH1 0x2 PUSH1 0x4 DUP2 GT ISZERO PUSH2 0x57D JUMPI PUSH2 0x57C PUSH2 0x147C JUMP JUMPDEST JUMPDEST DUP2 PUSH1 0x4 ADD PUSH1 0x8 SWAP1 SLOAD SWAP1 PUSH2 0x100 EXP SWAP1 DIV PUSH1 0xFF AND PUSH1 0x4 DUP2 GT ISZERO PUSH2 0x5A1 JUMPI PUSH2 0x5A0 PUSH2 0x147C JUMP JUMPDEST JUMPDEST EQ PUSH2 0x5E1 JUMPI PUSH1 0x40 MLOAD PUSH32 0x8C379A000000000000000000000000000000000000000000000000000000000 DUP2 MSTORE PUSH1 0x4 ADD PUSH2 0x5D8 SWAP1 PUSH2 0x197F JUMP JUMPDEST PUSH1 0x40 MLOAD DUP1 SWAP2 SUB SWAP1 REVERT JUMPDEST DUP1 PUSH1 0x4 ADD PUSH0 SWAP1 SLOAD SWAP1 PUSH2 0x100 EXP SWAP1 DIV PUSH8 0xFFFFFFFFFFFFFFFF AND PUSH8 0xFFFFFFFFFFFFFFFF AND TIMESTAMP GT PUSH2 0x644 JUMPI PUSH1 0x40 MLOAD PUSH32 0x8C379A000000000000000000000000000000000000000000000000000000000 DUP2 MSTORE PUSH1 0x4 ADD PUSH2 0x63B SWAP1 PUSH2 0x19E7 JUMP JUMPDEST PUSH1 0x40 MLOAD DUP1 SWAP2 SUB SWAP1 REVERT JUMPDEST DUP1 PUSH0 ADD PUSH0 SWAP1 SLOAD SWAP1 PUSH2 0x100 EXP SWAP1 DIV PUSH20 0xFFFFFFFFFFFFFFFFFFFFFFFFFFFFFFFFFFFFFFFF AND PUSH20 0xFFFFFFFFFFFFFFFFFFFFFFFFFFFFFFFFFFFFFFFF AND CALLER PUSH20 0xFFFFFFFFFFFFFFFFFFFFFFFFFFFFFFFFFFFFFFFF AND EQ PUSH2 0x6D4 JUMPI PUSH1 0x40 MLOAD PUSH32 0x8C379A000000000000000000000000000000000000000000000000000000000 DUP2 MSTORE PUSH1 0x4 ADD PUSH2 0x6CB SWAP1 PUSH2 0x1A4F JUMP JUMPDEST PUSH1 0x40 MLOAD DUP1 SWAP2 SUB SWAP1 REVERT JUMPDEST PUSH1 0x4 DUP2 PUSH1 0x4 ADD PUSH1 0x8 PUSH2 0x100 EXP DUP2 SLOAD DUP2 PUSH1 0xFF MUL NOT AND SWAP1 DUP4 PUSH1 0x4 DUP2 GT ISZERO PUSH2 0x6FC JUMPI PUSH2 0x6FB PUSH2 0x147C JUMP JUMPDEST JUMPDEST MUL OR SWAP1 SSTORE POP PUSH2 0x755 DUP2 PUSH1 0x2 ADD PUSH0 SWAP1 SLOAD SWAP1 PUSH2 0x100 EXP SWAP1 DIV PUSH20 0xFFFFFFFFFFFFFFFFFFFFFFFFFFFFFFFFFFFFFFFF AND DUP3 PUSH0 ADD PUSH0 SWAP1 SLOAD SWAP1 PUSH2 0x100 EXP SWAP1 DIV PUSH20 0xFFFFFFFFFFFFFFFFFFFFFFFFFFFFFFFFFFFFFFFF AND DUP4 PUSH1 0x3 ADD SLOAD PUSH2 0x1024 JUMP JUMPDEST DUP2 PUSH32 0xE5FD53654BC4EA55A3106F8F2BD57252875AFEE33CC027448099373AE65408F6 DUP3 PUSH1 0x3 ADD SLOAD DUP4 PUSH0 ADD PUSH0 SWAP1 SLOAD SWAP1 PUSH2 0x100 EXP SWAP1 DIV PUSH20 0xFFFFFFFFFFFFFFFFFFFFFFFFFFFFFFFFFFFFFFFF AND PUSH1 0x40 MLOAD PUSH2 0x7AD SWAP3 SWAP2 SWAP1 PUSH2 0x1A6D JUMP JUMPDEST PUSH1 0x40 MLOAD DUP1 SWAP2 SUB SWAP1 LOG2 POP POP JUMP JUMPDEST PUSH0 PUSH1 0x1 PUSH0 DUP4 DUP2 MSTORE PUSH1 0x20 ADD SWAP1 DUP2 MSTORE PUSH1 0x20 ADD PUSH0 KECCAK256 SWAP1 POP PUSH1 0x1 PUSH1 0x4 DUP2 GT ISZERO PUSH2 0x7E1 JUMPI PUSH2 0x7E0 PUSH2 0x147C JUMP JUMPDEST JUMPDEST DUP2 PUSH1 0x4 ADD PUSH1 0x8 SWAP1 SLOAD SWAP1 PUSH2 0x100 EXP SWAP1 DIV PUSH1 0xFF AND PUSH1 0x4 DUP2 GT ISZERO PUSH2 0x805 JUMPI PUSH2 0x804 PUSH2 0x147C JUMP JUMPDEST JUMPDEST EQ PUSH2 0x845 JUMPI PUSH1 0x40 MLOAD PUSH32 0x8C379A000000000000000000000000000000000000000000000000000000000 DUP2 MSTORE PUSH1 0x4 ADD PUSH2 0x83C SWAP1 PUSH2 0x197F JUMP JUMPDEST PUSH1 0x40 MLOAD DUP1 SWAP2 SUB SWAP1 REVERT JUMPDEST DUP1 PUSH0 ADD PUSH0 SWAP1 SLOAD SWAP1 PUSH2 0x100 EXP SWAP1 DIV PUSH20 0xFFFFFFFFFFFFFFFFFFFFFFFFFFFFFFFFFFFFFFFF AND PUSH20 0xFFFFFFFFFFFFFFFFFFFFFFFFFFFFFFFFFFFFFFFF AND CALLER PUSH20 0xFFFFFFFFFFFFFFFFFFFFFFFFFFFFFFFFFFFFFFFF AND EQ PUSH2 0x8D5 JUMPI PUSH1 0x40 MLOAD PUSH32 0x8C379A000000000000000000000000000000000000000000000000000000000 DUP2 MSTORE PUSH1 0x4 ADD PUSH2 0x8CC SWAP1 PUSH2 0x1A4F JUMP JUMPDEST PUSH1 0x40 MLOAD DUP1 SWAP2 SUB SWAP1 REVERT JUMPDEST PUSH2 0x907 DUP2 PUSH1 0x2 ADD PUSH0 SWAP1 SLOAD SWAP1 PUSH2 0x100 EXP SWAP1 DIV PUSH20 0xFFFFFFFFFFFFFFFFFFFFFFFFFFFFFFFFFFFFFFFF AND CALLER DUP4 PUSH1 0x3 ADD SLOAD PUSH2 0x11CE JUMP JUMPDEST PUSH1 0x2 DUP2 PUSH1 0x4 ADD PUSH1 0x8 PUSH2 0x100 EXP DUP2 SLOAD DUP2 PUSH1 0xFF MUL NOT AND SWAP1 DUP4 PUSH1 0x4 DUP2 GT ISZERO PUSH2 0x92F JUMPI PUSH2 0x92E PUSH2 0x147C JUMP JUMPDEST JUMPDEST MUL OR SWAP1 SSTORE POP DUP2 PUSH32 0xA1DD612B9278FE0BB5D89ED1F642DC3678D0E558630C5A4A8DF212BA2197CDB4 DUP3 PUSH1 0x3 ADD SLOAD PUSH1 0x40 MLOAD PUSH2 0x968 SWAP2 SWAP1 PUSH2 0x15FC JUMP JUMPDEST PUSH1 0x40 MLOAD DUP1 SWAP2 SUB SWAP1 LOG2 POP POP JUMP JUMPDEST PUSH0 DUP1 PUSH20 0xFFFFFFFFFFFFFFFFFFFFFFFFFFFFFFFFFFFFFFFF AND DUP10 PUSH20 0xFFFFFFFFFFFFFFFFFFFFFFFFFFFFFFFFFFFFFFFF AND EQ ISZERO DUP1 ISZERO PUSH2 0x9DD JUMPI POP PUSH0 PUSH20 0xFFFFFFFFFFFFFFFFFFFFFFFFFFFFFFFFFFFFFFFF AND DUP9 PUSH20 0xFFFFFFFFFFFFFFFFFFFFFFFFFFFFFFFFFFFFFFFF AND EQ ISZERO JUMPDEST PUSH2 0xA1C JUMPI PUSH1 0x40 MLOAD PUSH32 0x8C379A000000000000000000000000000000000000000000000000000000000 DUP2 MSTORE PUSH1 0x4 ADD PUSH2 0xA13 SWAP1 PUSH2 0x1ADE JUMP JUMPDEST PUSH1 0x40 MLOAD DUP1 SWAP2 SUB SWAP1 REVERT JUMPDEST PUSH0 DUP5 GT DUP1 ISZERO PUSH2 0xA2A JUMPI POP PUSH0 DUP6 GT JUMPDEST PUSH2 0xA69 JUMPI PUSH1 0x40 MLOAD PUSH32 0x8C379A000000000000000000000000000000000000000000000000000000000 DUP2 MSTORE PUSH1 0x4 ADD PUSH2 0xA60 SWAP1 PUSH2 0x1B46 JUMP JUMPDEST PUSH1 0x40 MLOAD DUP1 SWAP2 SUB SWAP1 REVERT JUMPDEST TIMESTAMP DUP4 PUSH8 0xFFFFFFFFFFFFFFFF AND GT PUSH2 0xAB5 JUMPI PUSH1 0x40 MLOAD PUSH32 0x8C379A000000000000000000000000000000000000000000000000000000000 DUP2 MSTORE PUSH1 0x4 ADD PUSH2 0xAAC SWAP1 PUSH2 0x1BAE JUMP JUMPDEST PUSH1 0x40 MLOAD DUP1 SWAP2 SUB SWAP1 REVERT JUMPDEST PUSH0 DUP1 DUP2 SLOAD DUP1 SWAP3 SWAP2 SWAP1 PUSH2 0xAC6 SWAP1 PUSH2 0x1BF9 JUMP JUMPDEST SWAP2 SWAP1 POP SSTORE SWAP1 POP PUSH1 0x40 MLOAD DUP1 PUSH2 0x100 ADD PUSH1 0x40 MSTORE DUP1 DUP11 PUSH20 0xFFFFFFFFFFFFFFFFFFFFFFFFFFFFFFFFFFFFFFFF AND DUP2 MSTORE PUSH1 0x20 ADD DUP10 PUSH20 0xFFFFFFFFFFFFFFFFFFFFFFFFFFFFFFFFFFFFFFFF AND DUP2 MSTORE PUSH1 0x20 ADD DUP4 PUSH20 0xFFFFFFFFFFFFFFFFFFFFFFFFFFFFFFFFFFFFFFFF AND DUP2 MSTORE PUSH1 0x20 ADD DUP6 DUP2 MSTORE PUSH1 0x20 ADD DUP5 PUSH8 0xFFFFFFFFFFFFFFFF AND DUP2 MSTORE PUSH1 0x20 ADD PUSH1 0x1 PUSH1 0x4 DUP2 GT ISZERO PUSH2 0xB56 JUMPI PUSH2 0xB55 PUSH2 0x147C JUMP JUMPDEST JUMPDEST DUP2 MSTORE PUSH1 0x20 ADD DUP9 DUP9 DUP1 DUP1 PUSH1 0x1F ADD PUSH1 0x20 DUP1 SWAP2 DIV MUL PUSH1 0x20 ADD PUSH1 0x40 MLOAD SWAP1 DUP2 ADD PUSH1 0x40 MSTORE DUP1 SWAP4 SWAP3 SWAP2 SWAP1 DUP2 DUP2 MSTORE PUSH1 0x20 ADD DUP4 DUP4 DUP1 DUP3 DUP5 CALLDATACOPY PUSH0 DUP2 DUP5 ADD MSTORE PUSH1 0x1F NOT PUSH1 0x1F DUP3 ADD AND SWAP1 POP DUP1 DUP4 ADD SWAP3 POP POP POP POP POP POP POP DUP2 MSTORE PUSH1 0x20 ADD DUP7 DUP2 MSTORE POP PUSH1 0x1 PUSH0 DUP4 DUP2 MSTORE PUSH1 0x20 ADD SWAP1 DUP2 MSTORE PUSH1 0x20 ADD PUSH0 KECCAK256 PUSH0 DUP3 ADD MLOAD DUP2 PUSH0 ADD PUSH0 PUSH2 0x100 EXP DUP2 SLOAD DUP2 PUSH20 0xFFFFFFFFFFFFFFFFFFFFFFFFFFFFFFFFFFFFFFFF MUL NOT AND SWAP1 DUP4 PUSH20 0xFFFFFFFFFFFFFFFFFFFFFFFFFFFFFFFFFFFFFFFF AND MUL OR SWAP1 SSTORE POP PUSH1 0x20 DUP3 ADD MLOAD DUP2 PUSH1 0x1 ADD PUSH0 PUSH2 0x100 EXP DUP2 SLOAD DUP2 PUSH20 0xFFFFFFFFFFFFFFFFFFFFFFFFFFFFFFFFFFFFFFFF MUL NOT AND SWAP1 DUP4 PUSH20 0xFFFFFFFFFFFFFFFFFFFFFFFFFFFFFFFFFFFFFFFF AND MUL OR SWAP1 SSTORE POP PUSH1 0x40 DUP3 ADD MLOAD DUP2 PUSH1 0x2 ADD PUSH0 PUSH2 0x100 EXP DUP2 SLOAD DUP2 PUSH20 0xFFFFFFFFFFFFFFFFFFFFFFFFFFFFFFFFFFFFFFFF MUL NOT AND SWAP1 DUP4 PUSH20 0xFFFFFFFFFFFFFFFFFFFFFFFFFFFFFFFFFFFFFFFF AND MUL OR SWAP1 SSTORE POP PUSH1 0x60 DUP3 ADD MLOAD DUP2 PUSH1 0x3 ADD SSTORE PUSH1 0x80 DUP3 ADD MLOAD DUP2 PUSH1 0x4 ADD PUSH0 PUSH2 0x100 EXP DUP2 SLOAD DUP2 PUSH8 0xFFFFFFFFFFFFFFFF MUL NOT AND SWAP1 DUP4 PUSH8 0xFFFFFFFFFFFFFFFF AND MUL OR SWAP1 SSTORE POP PUSH1 0xA0 DUP3 ADD MLOAD DUP2 PUSH1 0x4 ADD PUSH1 0x8 PUSH2 0x100 EXP DUP2 SLOAD DUP2 PUSH1 0xFF MUL NOT AND SWAP1 DUP4 PUSH1 0x4 DUP2 GT ISZERO PUSH2 0xCEC JUMPI PUSH2 0xCEB PUSH2 0x147C JUMP JUMPDEST JUMPDEST MUL OR SWAP1 SSTORE POP PUSH1 0xC0 DUP3 ADD MLOAD DUP2 PUSH1 0x5 ADD SWAP1 DUP2 PUSH2 0xD06 SWAP2 SWAP1 PUSH2 0x1E0A JUMP JUMPDEST POP PUSH1 0xE0 DUP3 ADD MLOAD DUP2 PUSH1 0x6 ADD SSTORE SWAP1 POP POP DUP8 PUSH20 0xFFFFFFFFFFFFFFFFFFFFFFFFFFFFFFFFFFFFFFFF AND DUP10 PUSH20 0xFFFFFFFFFFFFFFFFFFFFFFFFFFFFFFFFFFFFFFFF AND DUP3 PUSH32 0xE6FFA9EB43CE4ABCD42AA4B479372E379B4CEF0BFD3D4712B5FFA2773F7D80FE DUP6 DUP9 DUP9 DUP14 DUP14 DUP14 PUSH1 0x40 MLOAD PUSH2 0xD7C SWAP7 SWAP6 SWAP5 SWAP4 SWAP3 SWAP2 SWAP1 PUSH2 0x1F13 JUMP JUMPDEST PUSH1 0x40 MLOAD DUP1 SWAP2 SUB SWAP1 LOG4 SWAP9 SWAP8 POP POP POP POP POP POP POP POP JUMP JUMPDEST PUSH0 PUSH1 0x1 PUSH0 DUP4 DUP2 MSTORE PUSH1 0x20 ADD SWAP1 DUP2 MSTORE PUSH1 0x20 ADD PUSH0 KECCAK256 SWAP1 POP PUSH1 0x2 PUSH1 0x4 DUP2 GT ISZERO PUSH2 0xDB8 JUMPI PUSH2 0xDB7 PUSH2 0x147C JUMP JUMPDEST JUMPDEST DUP2 PUSH1 0x4 ADD PUSH1 0x8 SWAP1 SLOAD SWAP1 PUSH2 0x100 EXP SWAP1 DIV PUSH1 0xFF AND PUSH1 0x4 DUP2 GT ISZERO PUSH2 0xDDC JUMPI PUSH2 0xDDB PUSH2 0x147C JUMP JUMPDEST JUMPDEST EQ PUSH2 0xE1C JUMPI PUSH1 0x40 MLOAD PUSH32 0x8C379A000000000000000000000000000000000000000000000000000000000 DUP2 MSTORE PUSH1 0x4 ADD PUSH2 0xE13 SWAP1 PUSH2 0x197F JUMP JUMPDEST PUSH1 0x40 MLOAD DUP1 SWAP2 SUB SWAP1 REVERT JUMPDEST DUP1 PUSH0 ADD PUSH0 SWAP1 SLOAD SWAP1 PUSH2 0x100 EXP SWAP1 DIV PUSH20 0xFFFFFFFFFFFFFFFFFFFFFFFFFFFFFFFFFFFFFFFF AND PUSH20 0xFFFFFFFFFFFFFFFFFFFFFFFFFFFFFFFFFFFFFFFF AND CALLER PUSH20 0xFFFFFFFFFFFFFFFFFFFFFFFFFFFFFFFFFFFFFFFF AND EQ PUSH2 0xEAC JUMPI PUSH1 0x40 MLOAD PUSH32 0x8C379A000000000000000000000000000000000000000000000000000000000 DUP2 MSTORE PUSH1 0x4 ADD PUSH2 0xEA3 SWAP1 PUSH2 0x1A4F JUMP JUMPDEST PUSH1 0x40 MLOAD DUP1 SWAP2 SUB SWAP1 REVERT JUMPDEST DUP1 PUSH1 0x4 ADD PUSH0 SWAP1 SLOAD SWAP1 PUSH2 0x100 EXP SWAP1 DIV PUSH8 0xFFFFFFFFFFFFFFFF AND PUSH8 0xFFFFFFFFFFFFFFFF AND TIMESTAMP GT ISZERO PUSH2 0xF10 JUMPI PUSH1 0x40 MLOAD PUSH32 0x8C379A000000000000000000000000000000000000000000000000000000000 DUP2 MSTORE PUSH1 0x4 ADD PUSH2 0xF07 SWAP1 PUSH2 0x1FB7 JUMP JUMPDEST PUSH1 0x40 MLOAD DUP1 SWAP2 SUB SWAP1 REVERT JUMPDEST PUSH1 0x3 DUP2 PUSH1 0x4 ADD PUSH1 0x8 PUSH2 0x100 EXP DUP2 SLOAD DUP2 PUSH1 0xFF MUL NOT AND SWAP1 DUP4 PUSH1 0x4 DUP2 GT ISZERO PUSH2 0xF38 JUMPI PUSH2 0xF37 PUSH2 0x147C JUMP JUMPDEST JUMPDEST MUL OR SWAP1 SSTORE POP DUP2 PUSH32 0xFCC296B8BDD64E3F1D1FAADEF50CB2D6550F645316330FE57CB1DD7E0612EAD0 PUSH1 0x40 MLOAD PUSH1 0x40 MLOAD DUP1 SWAP2 SUB SWAP1 LOG2 PUSH2 0xFBF DUP2 PUSH1 0x2 ADD PUSH0 SWAP1 SLOAD SWAP1 PUSH2 0x100 EXP SWAP1 DIV PUSH20 0xFFFFFFFFFFFFFFFFFFFFFFFFFFFFFFFFFFFFFFFF AND DUP3 PUSH1 0x1 ADD PUSH0 SWAP1 SLOAD SWAP1 PUSH2 0x100 EXP SWAP1 DIV PUSH20 0xFFFFFFFFFFFFFFFFFFFFFFFFFFFFFFFFFFFFFFFF AND DUP4 PUSH1 0x3 ADD SLOAD PUSH2 0x1024 JUMP JUMPDEST DUP2 PUSH32 0xDF4272FE23C514E87C5A27BF91662B78C3FFA601CDA0803F8135331BCE958EF1 DUP3 PUSH1 0x3 ADD SLOAD DUP4 PUSH1 0x1 ADD PUSH0 SWAP1 SLOAD SWAP1 PUSH2 0x100 EXP SWAP1 DIV PUSH20 0xFFFFFFFFFFFFFFFFFFFFFFFFFFFFFFFFFFFFFFFF AND PUSH1 0x40 MLOAD PUSH2 0x1018 SWAP3 SWAP2 SWAP1 PUSH2 0x1A6D JUMP JUMPDEST PUSH1 0x40 MLOAD DUP1 SWAP2 SUB SWAP1 LOG2 POP POP JUMP JUMPDEST PUSH0 DUP2 SUB ISZERO PUSH2 0x11C9 JUMPI PUSH0 PUSH20 0xFFFFFFFFFFFFFFFFFFFFFFFFFFFFFFFFFFFFFFFF AND DUP4 PUSH20 0xFFFFFFFFFFFFFFFFFFFFFFFFFFFFFFFFFFFFFFFF AND SUB PUSH2 0x110D JUMPI PUSH0 DUP3 PUSH20 0xFFFFFFFFFFFFFFFFFFFFFFFFFFFFFFFFFFFFFFFF AND DUP3 PUSH1 0x40 MLOAD PUSH2 0x1084 SWAP1 PUSH2 0x2002 JUMP JUMPDEST PUSH0 PUSH1 0x40 MLOAD DUP1 DUP4 SUB DUP2 DUP6 DUP8 GAS CALL SWAP3 POP POP POP RETURNDATASIZE DUP1 PUSH0 DUP2 EQ PUSH2 0x10BE JUMPI PUSH1 0x40 MLOAD SWAP2 POP PUSH1 0x1F NOT PUSH1 0x3F RETURNDATASIZE ADD AND DUP3 ADD PUSH1 0x40 MSTORE RETURNDATASIZE DUP3 MSTORE RETURNDATASIZE PUSH0 PUSH1 0x20 DUP5 ADD RETURNDATACOPY PUSH2 0x10C3 JUMP JUMPDEST PUSH1 0x60 SWAP2 POP JUMPDEST POP POP SWAP1 POP DUP1 PUSH2 0x1107 JUMPI PUSH1 0x40 MLOAD PUSH32 0x8C379A000000000000000000000000000000000000000000000000000000000 DUP2 MSTORE PUSH1 0x4 ADD PUSH2 0x10FE SWAP1 PUSH2 0x2060 JUMP JUMPDEST PUSH1 0x40 MLOAD DUP1 SWAP2 SUB SWAP1 REVERT JUMPDEST POP PUSH2 0x11C8 JUMP JUMPDEST DUP3 PUSH20 0xFFFFFFFFFFFFFFFFFFFFFFFFFFFFFFFFFFFFFFFF AND PUSH4 0xA9059CBB DUP4 DUP4 PUSH1 0x40 MLOAD DUP4 PUSH4 0xFFFFFFFF AND PUSH1 0xE0 SHL DUP2 MSTORE PUSH1 0x4 ADD PUSH2 0x1148 SWAP3 SWAP2 SWAP1 PUSH2 0x207E JUMP JUMPDEST PUSH1 0x20 PUSH1 0x40 MLOAD DUP1 DUP4 SUB DUP2 PUSH0 DUP8 GAS CALL ISZERO DUP1 ISZERO PUSH2 0x1164 JUMPI RETURNDATASIZE PUSH0 DUP1 RETURNDATACOPY RETURNDATASIZE PUSH0 REVERT JUMPDEST POP POP POP POP PUSH1 0x40 MLOAD RETURNDATASIZE PUSH1 0x1F NOT PUSH1 0x1F DUP3 ADD AND DUP3 ADD DUP1 PUSH1 0x40 MSTORE POP DUP2 ADD SWAP1 PUSH2 0x1188 SWAP2 SWAP1 PUSH2 0x20DA JUMP JUMPDEST PUSH2 0x11C7 JUMPI PUSH1 0x40 MLOAD PUSH32 0x8C379A000000000000000000000000000000000000000000000000000000000 DUP2 MSTORE PUSH1 0x4 ADD PUSH2 0x11BE SWAP1 PUSH2 0x214F JUMP JUMPDEST PUSH1 0x40 MLOAD DUP1 SWAP2 SUB SWAP1 REVERT JUMPDEST JUMPDEST JUMPDEST POP POP POP JUMP JUMPDEST PUSH0 PUSH20 0xFFFFFFFFFFFFFFFFFFFFFFFFFFFFFFFFFFFFFFFF AND DUP4 PUSH20 0xFFFFFFFFFFFFFFFFFFFFFFFFFFFFFFFFFFFFFFFF AND SUB PUSH2 0x1248 JUMPI DUP1 CALLVALUE EQ PUSH2 0x1243 JUMPI PUSH1 0x40 MLOAD PUSH32 0x8C379A000000000000000000000000000000000000000000000000000000000 DUP2 MSTORE PUSH1 0x4 ADD PUSH2 0x123A SWAP1 PUSH2 0x21B7 JUMP JUMPDEST PUSH1 0x40 MLOAD DUP1 SWAP2 SUB SWAP1 REVERT JUMPDEST PUSH2 0x1305 JUMP JUMPDEST DUP3 PUSH20 0xFFFFFFFFFFFFFFFFFFFFFFFFFFFFFFFFFFFFFFFF AND PUSH4 0x23B872DD DUP4 ADDRESS DUP5 PUSH1 0x40 MLOAD DUP5 PUSH4 0xFFFFFFFF AND PUSH1 0xE0 SHL DUP2 MSTORE PUSH1 0x4 ADD PUSH2 0x1285 SWAP4 SWAP3 SWAP2 SWAP1 PUSH2 0x21D5 JUMP JUMPDEST PUSH1 0x20 PUSH1 0x40 MLOAD DUP1 DUP4 SUB DUP2 PUSH0 DUP8 GAS CALL ISZERO DUP1 ISZERO PUSH2 0x12A1 JUMPI RETURNDATASIZE PUSH0 DUP1 RETURNDATACOPY RETURNDATASIZE PUSH0 REVERT JUMPDEST POP POP POP POP PUSH1 0x40 MLOAD RETURNDATASIZE PUSH1 0x1F NOT PUSH1 0x1F DUP3 ADD AND DUP3 ADD DUP1 PUSH1 0x40 MSTORE POP DUP2 ADD SWAP1 PUSH2 0x12C5 SWAP2 SWAP1 PUSH2 0x20DA JUMP JUMPDEST PUSH2 0x1304 JUMPI PUSH1 0x40 MLOAD PUSH32 0x8C379A000000000000000000000000000000000000000000000000000000000 DUP2 MSTORE PUSH1 0x4 ADD PUSH2 0x12FB SWAP1 PUSH2 0x2254 JUMP JUMPDEST PUSH1 0x40 MLOAD DUP1 SWAP2 SUB SWAP1 REVERT JUMPDEST JUMPDEST POP POP POP JUMP JUMPDEST PUSH1 0x40 MLOAD DUP1 PUSH2 0x100 ADD PUSH1 0x40 MSTORE DUP1 PUSH0 PUSH20 0xFFFFFFFFFFFFFFFFFFFFFFFFFFFFFFFFFFFFFFFF AND DUP2 MSTORE PUSH1 0x20 ADD PUSH0 PUSH20 0xFFFFFFFFFFFFFFFFFFFFFFFFFFFFFFFFFFFFFFFF AND DUP2 MSTORE PUSH1 0x20 ADD PUSH0 PUSH20 0xFFFFFFFFFFFFFFFFFFFFFFFFFFFFFFFFFFFFFFFF AND DUP2 MSTORE PUSH1 0x20 ADD PUSH0 DUP2 MSTORE PUSH1 0x20 ADD PUSH0 PUSH8 0xFFFFFFFFFFFFFFFF AND DUP2 MSTORE PUSH1 0x20 ADD PUSH0 PUSH1 0x4 DUP2 GT ISZERO PUSH2 0x1393 JUMPI PUSH2 0x1392 PUSH2 0x147C JUMP JUMPDEST JUMPDEST DUP2 MSTORE PUSH1 0x20 ADD PUSH1 0x60 DUP2 MSTORE PUSH1 0x20 ADD PUSH0 DUP2 MSTORE POP SWAP1 JUMP JUMPDEST PUSH0 DUP1 REVERT JUMPDEST PUSH0 DUP1 REVERT JUMPDEST PUSH0 DUP2 SWAP1 POP SWAP2 SWAP1 POP JUMP JUMPDEST PUSH2 0x13C0 DUP2 PUSH2 0x13AE JUMP JUMPDEST DUP2 EQ PUSH2 0x13CA JUMPI PUSH0 DUP1 REVERT JUMPDEST POP JUMP JUMPDEST PUSH0 DUP2 CALLDATALOAD SWAP1 POP PUSH2 0x13DB DUP2 PUSH2 0x13B7 JUMP JUMPDEST SWAP3 SWAP2 POP POP JUMP JUMPDEST PUSH0 PUSH1 0x20 DUP3 DUP5 SUB SLT ISZERO PUSH2 0x13F6 JUMPI PUSH2 0x13F5 PUSH2 0x13A6 JUMP JUMPDEST JUMPDEST PUSH0 PUSH2 0x1403 DUP5 DUP3 DUP6 ADD PUSH2 0x13CD JUMP JUMPDEST SWAP2 POP POP SWAP3 SWAP2 POP POP JUMP JUMPDEST PUSH0 PUSH20 0xFFFFFFFFFFFFFFFFFFFFFFFFFFFFFFFFFFFFFFFF DUP3 AND SWAP1 POP SWAP2 SWAP1 POP JUMP JUMPDEST PUSH0 PUSH2 0x1435 DUP3 PUSH2 0x140C JUMP JUMPDEST SWAP1 POP SWAP2 SWAP1 POP JUMP JUMPDEST PUSH2 0x1445 DUP2 PUSH2 0x142B JUMP JUMPDEST DUP3 MSTORE POP POP JUMP JUMPDEST PUSH2 0x1454 DUP2 PUSH2 0x13AE JUMP JUMPDEST DUP3 MSTORE POP POP JUMP JUMPDEST PUSH0 PUSH8 0xFFFFFFFFFFFFFFFF DUP3 AND SWAP1 POP SWAP2 SWAP1 POP JUMP JUMPDEST PUSH2 0x1476 DUP2 PUSH2 0x145A JUMP JUMPDEST DUP3 MSTORE POP POP JUMP JUMPDEST PUSH32 0x4E487B7100000000000000000000000000000000000000000000000000000000 PUSH0 MSTORE PUSH1 0x21 PUSH1 0x4 MSTORE PUSH1 0x24 PUSH0 REVERT JUMPDEST PUSH1 0x5 DUP2 LT PUSH2 0x14BA JUMPI PUSH2 0x14B9 PUSH2 0x147C JUMP JUMPDEST JUMPDEST POP JUMP JUMPDEST PUSH0 DUP2 SWAP1 POP PUSH2 0x14CA DUP3 PUSH2 0x14A9 JUMP JUMPDEST SWAP2 SWAP1 POP JUMP JUMPDEST PUSH0 PUSH2 0x14D9 DUP3 PUSH2 0x14BD JUMP JUMPDEST SWAP1 POP SWAP2 SWAP1 POP JUMP JUMPDEST PUSH2 0x14E9 DUP2 PUSH2 0x14CF JUMP JUMPDEST DUP3 MSTORE POP POP JUMP JUMPDEST PUSH0 DUP2 MLOAD SWAP1 POP SWAP2 SWAP1 POP JUMP JUMPDEST PUSH0 DUP3 DUP3 MSTORE PUSH1 0x20 DUP3 ADD SWAP1 POP SWAP3 SWAP2 POP POP JUMP JUMPDEST PUSH0 JUMPDEST DUP4 DUP2 LT ISZERO PUSH2 0x1526 JUMPI DUP1 DUP3 ADD MLOAD DUP2 DUP5 ADD MSTORE PUSH1 0x20 DUP2 ADD SWAP1 POP PUSH2 0x150B JUMP JUMPDEST PUSH0 DUP5 DUP5 ADD MSTORE POP POP POP POP JUMP JUMPDEST PUSH0 PUSH1 0x1F NOT PUSH1 0x1F DUP4 ADD AND SWAP1 POP SWAP2 SWAP1 POP JUMP JUMPDEST PUSH0 PUSH2 0x154B DUP3 PUSH2 0x14EF JUMP JUMPDEST PUSH2 0x1555 DUP2 DUP6 PUSH2 0x14F9 JUMP JUMPDEST SWAP4 POP PUSH2 0x1565 DUP2 DUP6 PUSH1 0x20 DUP7 ADD PUSH2 0x1509 JUMP JUMPDEST PUSH2 0x156E DUP2 PUSH2 0x1531 JUMP JUMPDEST DUP5 ADD SWAP2 POP POP SWAP3 SWAP2 POP POP JUMP JUMPDEST PUSH0 PUSH2 0x100 DUP3 ADD SWAP1 POP PUSH2 0x158D PUSH0 DUP4 ADD DUP12 PUSH2 0x143C JUMP JUMPDEST PUSH2 0x159A PUSH1 0x20 DUP4 ADD DUP11 PUSH2 0x143C JUMP JUMPDEST PUSH2 0x15A7 PUSH1 0x40 DUP4 ADD DUP10 PUSH2 0x143C JUMP JUMPDEST PUSH2 0x15B4 PUSH1 0x60 DUP4 ADD DUP9 PUSH2 0x144B JUMP JUMPDEST PUSH2 0x15C1 PUSH1 0x80 DUP4 ADD DUP8 PUSH2 0x146D JUMP JUMPDEST PUSH2 0x15CE PUSH1 0xA0 DUP4 ADD DUP7 PUSH2 0x14E0 JUMP JUMPDEST DUP2 DUP2 SUB PUSH1 0xC0 DUP4 ADD MSTORE PUSH2 0x15E0 DUP2 DUP6 PUSH2 0x1541 JUMP JUMPDEST SWAP1 POP PUSH2 0x15EF PUSH1 0xE0 DUP4 ADD DUP5 PUSH2 0x144B JUMP JUMPDEST SWAP10 SWAP9 POP POP POP POP POP POP POP POP POP JUMP JUMPDEST PUSH0 PUSH1 0x20 DUP3 ADD SWAP1 POP PUSH2 0x160F PUSH0 DUP4 ADD DUP5 PUSH2 0x144B JUMP JUMPDEST SWAP3 SWAP2 POP POP JUMP JUMPDEST PUSH2 0x161E DUP2 PUSH2 0x142B JUMP JUMPDEST DUP3 MSTORE POP POP JUMP JUMPDEST PUSH2 0x162D DUP2 PUSH2 0x13AE JUMP JUMPDEST DUP3 MSTORE POP POP JUMP JUMPDEST PUSH2 0x163C DUP2 PUSH2 0x145A JUMP JUMPDEST DUP3 MSTORE POP POP JUMP JUMPDEST PUSH2 0x164B DUP2 PUSH2 0x14CF JUMP JUMPDEST DUP3 MSTORE POP POP JUMP JUMPDEST PUSH0 DUP3 DUP3 MSTORE PUSH1 0x20 DUP3 ADD SWAP1 POP SWAP3 SWAP2 POP POP JUMP JUMPDEST PUSH0 PUSH2 0x166B DUP3 PUSH2 0x14EF JUMP JUMPDEST PUSH2 0x1675 DUP2 DUP6 PUSH2 0x1651 JUMP JUMPDEST SWAP4 POP PUSH2 0x1685 DUP2 DUP6 PUSH1 0x20 DUP7 ADD PUSH2 0x1509 JUMP JUMPDEST PUSH2 0x168E DUP2 PUSH2 0x1531 JUMP JUMPDEST DUP5 ADD SWAP2 POP POP SWAP3 SWAP2 POP POP JUMP JUMPDEST PUSH0 PUSH2 0x100 DUP4 ADD PUSH0 DUP4 ADD MLOAD PUSH2 0x16AF PUSH0 DUP7 ADD DUP3 PUSH2 0x1615 JUMP JUMPDEST POP PUSH1 0x20 DUP4 ADD MLOAD PUSH2 0x16C2 PUSH1 0x20 DUP7 ADD DUP3 PUSH2 0x1615 JUMP JUMPDEST POP PUSH1 0x40 DUP4 ADD MLOAD PUSH2 0x16D5 PUSH1 0x40 DUP7 ADD DUP3 PUSH2 0x1615 JUMP JUMPDEST POP PUSH1 0x60 DUP4 ADD MLOAD PUSH2 0x16E8 PUSH1 0x60 DUP7 ADD DUP3 PUSH2 0x1624 JUMP JUMPDEST POP PUSH1 0x80 DUP4 ADD MLOAD PUSH2 0x16FB PUSH1 0x80 DUP7 ADD DUP3 PUSH2 0x1633 JUMP JUMPDEST POP PUSH1 0xA0 DUP4 ADD MLOAD PUSH2 0x170E PUSH1 0xA0 DUP7 ADD DUP3 PUSH2 0x1642 JUMP JUMPDEST POP PUSH1 0xC0 DUP4 ADD MLOAD DUP5 DUP3 SUB PUSH1 0xC0 DUP7 ADD MSTORE PUSH2 0x1726 DUP3 DUP3 PUSH2 0x1661 JUMP JUMPDEST SWAP2 POP POP PUSH1 0xE0 DUP4 ADD MLOAD PUSH2 0x173B PUSH1 0xE0 DUP7 ADD DUP3 PUSH2 0x1624 JUMP JUMPDEST POP DUP1 SWAP2 POP POP SWAP3 SWAP2 POP POP JUMP JUMPDEST PUSH0 PUSH1 0x20 DUP3 ADD SWAP1 POP DUP2 DUP2 SUB PUSH0 DUP4 ADD MSTORE PUSH2 0x175E DUP2 DUP5 PUSH2 0x1699 JUMP JUMPDEST SWAP1 POP SWAP3 SWAP2 POP POP JUMP JUMPDEST PUSH2 0x176F DUP2 PUSH2 0x142B JUMP JUMPDEST DUP2 EQ PUSH2 0x1779 JUMPI PUSH0 DUP1 REVERT JUMPDEST POP JUMP JUMPDEST PUSH0 DUP2 CALLDATALOAD SWAP1 POP PUSH2 0x178A DUP2 PUSH2 0x1766 JUMP JUMPDEST SWAP3 SWAP2 POP POP JUMP JUMPDEST PUSH0 DUP1 REVERT JUMPDEST PUSH0 DUP1 REVERT JUMPDEST PUSH0 DUP1 REVERT JUMPDEST PUSH0 DUP1 DUP4 PUSH1 0x1F DUP5 ADD SLT PUSH2 0x17B1 JUMPI PUSH2 0x17B0 PUSH2 0x1790 JUMP JUMPDEST JUMPDEST DUP3 CALLDATALOAD SWAP1 POP PUSH8 0xFFFFFFFFFFFFFFFF DUP2 GT ISZERO PUSH2 0x17CE JUMPI PUSH2 0x17CD PUSH2 0x1794 JUMP JUMPDEST JUMPDEST PUSH1 0x20 DUP4 ADD SWAP2 POP DUP4 PUSH1 0x1 DUP3 MUL DUP4 ADD GT ISZERO PUSH2 0x17EA JUMPI PUSH2 0x17E9 PUSH2 0x1798 JUMP JUMPDEST JUMPDEST SWAP3 POP SWAP3 SWAP1 POP JUMP JUMPDEST PUSH2 0x17FA DUP2 PUSH2 0x145A JUMP JUMPDEST DUP2 EQ PUSH2 0x1804 JUMPI PUSH0 DUP1 REVERT JUMPDEST POP JUMP JUMPDEST PUSH0 DUP2 CALLDATALOAD SWAP1 POP PUSH2 0x1815 DUP2 PUSH2 0x17F1 JUMP JUMPDEST SWAP3 SWAP2 POP POP JUMP JUMPDEST PUSH0 DUP1 PUSH0 DUP1 PUSH0 DUP1 PUSH0 DUP1 PUSH1 0xE0 DUP10 DUP12 SUB SLT ISZERO PUSH2 0x1837 JUMPI PUSH2 0x1836 PUSH2 0x13A6 JUMP JUMPDEST JUMPDEST PUSH0 PUSH2 0x1844 DUP12 DUP3 DUP13 ADD PUSH2 0x177C JUMP JUMPDEST SWAP9 POP POP PUSH1 0x20 PUSH2 0x1855 DUP12 DUP3 DUP13 ADD PUSH2 0x177C JUMP JUMPDEST SWAP8 POP POP PUSH1 0x40 DUP10 ADD CALLDATALOAD PUSH8 0xFFFFFFFFFFFFFFFF DUP2 GT ISZERO PUSH2 0x1876 JUMPI PUSH2 0x1875 PUSH2 0x13AA JUMP JUMPDEST JUMPDEST PUSH2 0x1882 DUP12 DUP3 DUP13 ADD PUSH2 0x179C JUMP JUMPDEST SWAP7 POP SWAP7 POP POP PUSH1 0x60 PUSH2 0x1895 DUP12 DUP3 DUP13 ADD PUSH2 0x13CD JUMP JUMPDEST SWAP5 POP POP PUSH1 0x80 PUSH2 0x18A6 DUP12 DUP3 DUP13 ADD PUSH2 0x13CD JUMP JUMPDEST SWAP4 POP POP PUSH1 0xA0 PUSH2 0x18B7 DUP12 DUP3 DUP13 ADD PUSH2 0x1807 JUMP JUMPDEST SWAP3 POP POP PUSH1 0xC0 PUSH2 0x18C8 DUP12 DUP3 DUP13 ADD PUSH2 0x177C JUMP JUMPDEST SWAP2 POP POP SWAP3 SWAP6 SWAP9 POP SWAP3 SWAP6 SWAP9 SWAP1 SWAP4 SWAP7 POP JUMP JUMPDEST PUSH32 0x4E487B7100000000000000000000000000000000000000000000000000000000 PUSH0 MSTORE PUSH1 0x22 PUSH1 0x4 MSTORE PUSH1 0x24 PUSH0 REVERT JUMPDEST PUSH0 PUSH1 0x2 DUP3 DIV SWAP1 POP PUSH1 0x1 DUP3 AND DUP1 PUSH2 0x191C JUMPI PUSH1 0x7F DUP3 AND SWAP2 POP JUMPDEST PUSH1 0x20 DUP3 LT DUP2 SUB PUSH2 0x192F JUMPI PUSH2 0x192E PUSH2 0x18D8 JUMP JUMPDEST JUMPDEST POP SWAP2 SWAP1 POP JUMP JUMPDEST PUSH32 0x4241445F53544154555300000000000000000000000000000000000000000000 PUSH0 DUP3 ADD MSTORE POP JUMP JUMPDEST PUSH0 PUSH2 0x1969 PUSH1 0xA DUP4 PUSH2 0x14F9 JUMP JUMPDEST SWAP2 POP PUSH2 0x1974 DUP3 PUSH2 0x1935 JUMP JUMPDEST PUSH1 0x20 DUP3 ADD SWAP1 POP SWAP2 SWAP1 POP JUMP JUMPDEST PUSH0 PUSH1 0x20 DUP3 ADD SWAP1 POP DUP2 DUP2 SUB PUSH0 DUP4 ADD MSTORE PUSH2 0x1996 DUP2 PUSH2 0x195D JUMP JUMPDEST SWAP1 POP SWAP2 SWAP1 POP JUMP JUMPDEST PUSH32 0x4245464F52455F444541444C494E450000000000000000000000000000000000 PUSH0 DUP3 ADD MSTORE POP JUMP JUMPDEST PUSH0 PUSH2 0x19D1 PUSH1 0xF DUP4 PUSH2 0x14F9 JUMP JUMPDEST SWAP2 POP PUSH2 0x19DC DUP3 PUSH2 0x199D JUMP JUMPDEST PUSH1 0x20 DUP3 ADD SWAP1 POP SWAP2 SWAP1 POP JUMP JUMPDEST PUSH0 PUSH1 0x20 DUP3 ADD SWAP1 POP DUP2 DUP2 SUB PUSH0 DUP4 ADD MSTORE PUSH2 0x19FE DUP2 PUSH2 0x19C5 JUMP JUMPDEST SWAP1 POP SWAP2 SWAP1 POP JUMP JUMPDEST PUSH32 0x4F4E4C595F425559455200000000000000000000000000000000000000000000 PUSH0 DUP3 ADD MSTORE POP JUMP JUMPDEST PUSH0 PUSH2 0x1A39 PUSH1 0xA DUP4 PUSH2 0x14F9 JUMP JUMPDEST SWAP2 POP PUSH2 0x1A44 DUP3 PUSH2 0x1A05 JUMP JUMPDEST PUSH1 0x20 DUP3 ADD SWAP1 POP SWAP2 SWAP1 POP JUMP JUMPDEST PUSH0 PUSH1 0x20 DUP3 ADD SWAP1 POP DUP2 DUP2 SUB PUSH0 DUP4 ADD MSTORE PUSH2 0x1A66 DUP2 PUSH2 0x1A2D JUMP JUMPDEST SWAP1 POP SWAP2 SWAP1 POP JUMP JUMPDEST PUSH0 PUSH1 0x40 DUP3 ADD SWAP1 POP PUSH2 0x1A80 PUSH0 DUP4 ADD DUP6 PUSH2 0x144B JUMP JUMPDEST PUSH2 0x1A8D PUSH1 0x20 DUP4 ADD DUP5 PUSH2 0x143C JUMP JUMPDEST SWAP4 SWAP3 POP POP POP JUMP JUMPDEST PUSH32 0x414444525F300000000000000000000000000000000000000000000000000000 PUSH0 DUP3 ADD MSTORE POP JUMP JUMPDEST PUSH0 PUSH2 0x1AC8 PUSH1 0x6 DUP4 PUSH2 0x14F9 JUMP JUMPDEST SWAP2 POP PUSH2 0x1AD3 DUP3 PUSH2 0x1A94 JUMP JUMPDEST PUSH1 0x20 DUP3 ADD SWAP1 POP SWAP2 SWAP1 POP JUMP JUMPDEST PUSH0 PUSH1 0x20 DUP3 ADD SWAP1 POP DUP2 DUP2 SUB PUSH0 DUP4 ADD MSTORE PUSH2 0x1AF5 DUP2 PUSH2 0x1ABC JUMP JUMPDEST SWAP1 POP SWAP2 SWAP1 POP JUMP JUMPDEST PUSH32 0x5A45524F5F56414C000000000000000000000000000000000000000000000000 PUSH0 DUP3 ADD MSTORE POP JUMP JUMPDEST PUSH0 PUSH2 0x1B30 PUSH1 0x8 DUP4 PUSH2 0x14F9 JUMP JUMPDEST SWAP2 POP PUSH2 0x1B3B DUP3 PUSH2 0x1AFC JUMP JUMPDEST PUSH1 0x20 DUP3 ADD SWAP1 POP SWAP2 SWAP1 POP JUMP JUMPDEST PUSH0 PUSH1 0x20 DUP3 ADD SWAP1 POP DUP2 DUP2 SUB PUSH0 DUP4 ADD MSTORE PUSH2 0x1B5D DUP2 PUSH2 0x1B24 JUMP JUMPDEST SWAP1 POP SWAP2 SWAP1 POP JUMP JUMPDEST PUSH32 0x4241445F444541444C494E450000000000000000000000000000000000000000 PUSH0 DUP3 ADD MSTORE POP JUMP JUMPDEST PUSH0 PUSH2 0x1B98 PUSH1 0xC DUP4 PUSH2 0x14F9 JUMP JUMPDEST SWAP2 POP PUSH2 0x1BA3 DUP3 PUSH2 0x1B64 JUMP JUMPDEST PUSH1 0x20 DUP3 ADD SWAP1 POP SWAP2 SWAP1 POP JUMP JUMPDEST PUSH0 PUSH1 0x20 DUP3 ADD SWAP1 POP DUP2 DUP2 SUB PUSH0 DUP4 ADD MSTORE PUSH2 0x1BC5 DUP2 PUSH2 0x1B8C JUMP JUMPDEST SWAP1 POP SWAP2 SWAP1 POP JUMP JUMPDEST PUSH32 0x4E487B7100000000000000000000000000000000000000000000000000000000 PUSH0 MSTORE PUSH1 0x11 PUSH1 0x4 MSTORE PUSH1 0x24 PUSH0 REVERT JUMPDEST PUSH0 PUSH2 0x1C03 DUP3 PUSH2 0x13AE JUMP JUMPDEST SWAP2 POP PUSH32 0xFFFFFFFFFFFFFFFFFFFFFFFFFFFFFFFFFFFFFFFFFFFFFFFFFFFFFFFFFFFFFFFF DUP3 SUB PUSH2 0x1C35 JUMPI PUSH2 0x1C34 PUSH2 0x1BCC JUMP JUMPDEST JUMPDEST PUSH1 0x1 DUP3 ADD SWAP1 POP SWAP2 SWAP1 POP JUMP JUMPDEST PUSH32 0x4E487B7100000000000000000000000000000000000000000000000000000000 PUSH0 MSTORE PUSH1 0x41 PUSH1 0x4 MSTORE PUSH1 0x24 PUSH0 REVERT JUMPDEST PUSH0 DUP2 SWAP1 POP DUP2 PUSH0 MSTORE PUSH1 0x20 PUSH0 KECCAK256 SWAP1 POP SWAP2 SWAP1 POP JUMP JUMPDEST PUSH0 PUSH1 0x20 PUSH1 0x1F DUP4 ADD DIV SWAP1 POP SWAP2 SWAP1 POP JUMP JUMPDEST PUSH0 DUP3 DUP3 SHL SWAP1 POP SWAP3 SWAP2 POP POP JUMP JUMPDEST PUSH0 PUSH1 0x8 DUP4 MUL PUSH2 0x1CC9 PUSH32 0xFFFFFFFFFFFFFFFFFFFFFFFFFFFFFFFFFFFFFFFFFFFFFFFFFFFFFFFFFFFFFFFF DUP3 PUSH2 0x1C8E JUMP JUMPDEST PUSH2 0x1CD3 DUP7 DUP4 PUSH2 0x1C8E JUMP JUMPDEST SWAP6 POP DUP1 NOT DUP5 AND SWAP4 POP DUP1 DUP7 AND DUP5 OR SWAP3 POP POP POP SWAP4 SWAP3 POP POP POP JUMP JUMPDEST PUSH0 DUP2 SWAP1 POP SWAP2 SWAP1 POP JUMP JUMPDEST PUSH0 PUSH2 0x1D0E PUSH2 0x1D09 PUSH2 0x1D04 DUP5 PUSH2 0x13AE JUMP JUMPDEST PUSH2 0x1CEB JUMP JUMPDEST PUSH2 0x13AE JUMP JUMPDEST SWAP1 POP SWAP2 SWAP1 POP JUMP JUMPDEST PUSH0 DUP2 SWAP1 POP SWAP2 SWAP1 POP JUMP JUMPDEST PUSH2 0x1D27 DUP4 PUSH2 0x1CF4 JUMP JUMPDEST PUSH2 0x1D3B PUSH2 0x1D33 DUP3 PUSH2 0x1D15 JUMP JUMPDEST DUP5 DUP5 SLOAD PUSH2 0x1C9A JUMP JUMPDEST DUP3 SSTORE POP POP POP POP JUMP JUMPDEST PUSH0 SWAP1 JUMP JUMPDEST PUSH2 0x1D4F PUSH2 0x1D43 JUMP JUMPDEST PUSH2 0x1D5A DUP2 DUP5 DUP5 PUSH2 0x1D1E JUMP JUMPDEST POP POP POP JUMP JUMPDEST JUMPDEST DUP2 DUP2 LT ISZERO PUSH2 0x1D7D JUMPI PUSH2 0x1D72 PUSH0 DUP3 PUSH2 0x1D47 JUMP JUMPDEST PUSH1 0x1 DUP2 ADD SWAP1 POP PUSH2 0x1D60 JUMP JUMPDEST POP POP JUMP JUMPDEST PUSH1 0x1F DUP3 GT ISZERO PUSH2 0x1DC2 JUMPI PUSH2 0x1D93 DUP2 PUSH2 0x1C6D JUMP JUMPDEST PUSH2 0x1D9C DUP5 PUSH2 0x1C7F JUMP JUMPDEST DUP2 ADD PUSH1 0x20 DUP6 LT ISZERO PUSH2 0x1DAB JUMPI DUP2 SWAP1 POP JUMPDEST PUSH2 0x1DBF PUSH2 0x1DB7 DUP6 PUSH2 0x1C7F JUMP JUMPDEST DUP4 ADD DUP3 PUSH2 0x1D5F JUMP JUMPDEST POP POP JUMPDEST POP POP POP JUMP JUMPDEST PUSH0 DUP3 DUP3 SHR SWAP1 POP SWAP3 SWAP2 POP POP JUMP JUMPDEST PUSH0 PUSH2 0x1DE2 PUSH0 NOT DUP5 PUSH1 0x8 MUL PUSH2 0x1DC7 JUMP JUMPDEST NOT DUP1 DUP4 AND SWAP2 POP POP SWAP3 SWAP2 POP POP JUMP JUMPDEST PUSH0 PUSH2 0x1DFA DUP4 DUP4 PUSH2 0x1DD3 JUMP JUMPDEST SWAP2 POP DUP3 PUSH1 0x2 MUL DUP3 OR SWAP1 POP SWAP3 SWAP2 POP POP JUMP JUMPDEST PUSH2 0x1E13 DUP3 PUSH2 0x14EF JUMP JUMPDEST PUSH8 0xFFFFFFFFFFFFFFFF DUP2 GT ISZERO PUSH2 0x1E2C JUMPI PUSH2 0x1E2B PUSH2 0x1C40 JUMP JUMPDEST JUMPDEST PUSH2 0x1E36 DUP3 SLOAD PUSH2 0x1905 JUMP JUMPDEST PUSH2 0x1E41 DUP3 DUP3 DUP6 PUSH2 0x1D81 JUMP JUMPDEST PUSH0 PUSH1 0x20 SWAP1 POP PUSH1 0x1F DUP4 GT PUSH1 0x1 DUP2 EQ PUSH2 0x1E72 JUMPI PUSH0 DUP5 ISZERO PUSH2 0x1E60 JUMPI DUP3 DUP8 ADD MLOAD SWAP1 POP JUMPDEST PUSH2 0x1E6A DUP6 DUP3 PUSH2 0x1DEF JUMP JUMPDEST DUP7 SSTORE POP PUSH2 0x1ED1 JUMP JUMPDEST PUSH1 0x1F NOT DUP5 AND PUSH2 0x1E80 DUP7 PUSH2 0x1C6D JUMP JUMPDEST PUSH0 JUMPDEST DUP3 DUP2 LT ISZERO PUSH2 0x1EA7 JUMPI DUP5 DUP10 ADD MLOAD DUP3 SSTORE PUSH1 0x1 DUP3 ADD SWAP2 POP PUSH1 0x20 DUP6 ADD SWAP5 POP PUSH1 0x20 DUP2 ADD SWAP1 POP PUSH2 0x1E82 JUMP JUMPDEST DUP7 DUP4 LT ISZERO PUSH2 0x1EC4 JUMPI DUP5 DUP10 ADD MLOAD PUSH2 0x1EC0 PUSH1 0x1F DUP10 AND DUP3 PUSH2 0x1DD3 JUMP JUMPDEST DUP4 SSTORE POP JUMPDEST PUSH1 0x1 PUSH1 0x2 DUP9 MUL ADD DUP9 SSTORE POP POP POP JUMPDEST POP POP POP POP POP POP JUMP JUMPDEST DUP3 DUP2 DUP4 CALLDATACOPY PUSH0 DUP4 DUP4 ADD MSTORE POP POP POP JUMP JUMPDEST PUSH0 PUSH2 0x1EF2 DUP4 DUP6 PUSH2 0x14F9 JUMP JUMPDEST SWAP4 POP PUSH2 0x1EFF DUP4 DUP6 DUP5 PUSH2 0x1ED9 JUMP JUMPDEST PUSH2 0x1F08 DUP4 PUSH2 0x1531 JUMP JUMPDEST DUP5 ADD SWAP1 POP SWAP4 SWAP3 POP POP POP JUMP JUMPDEST PUSH0 PUSH1 0xA0 DUP3 ADD SWAP1 POP PUSH2 0x1F26 PUSH0 DUP4 ADD DUP10 PUSH2 0x143C JUMP JUMPDEST PUSH2 0x1F33 PUSH1 0x20 DUP4 ADD DUP9 PUSH2 0x144B JUMP JUMPDEST PUSH2 0x1F40 PUSH1 0x40 DUP4 ADD DUP8 PUSH2 0x146D JUMP JUMPDEST DUP2 DUP2 SUB PUSH1 0x60 DUP4 ADD MSTORE PUSH2 0x1F53 DUP2 DUP6 DUP8 PUSH2 0x1EE7 JUMP JUMPDEST SWAP1 POP PUSH2 0x1F62 PUSH1 0x80 DUP4 ADD DUP5 PUSH2 0x144B JUMP JUMPDEST SWAP8 SWAP7 POP POP POP POP POP POP POP JUMP JUMPDEST PUSH32 0x41465445525F444541444C494E45000000000000000000000000000000000000 PUSH0 DUP3 ADD MSTORE POP JUMP JUMPDEST PUSH0 PUSH2 0x1FA1 PUSH1 0xE DUP4 PUSH2 0x14F9 JUMP JUMPDEST SWAP2 POP PUSH2 0x1FAC DUP3 PUSH2 0x1F6D JUMP JUMPDEST PUSH1 0x20 DUP3 ADD SWAP1 POP SWAP2 SWAP1 POP JUMP JUMPDEST PUSH0 PUSH1 0x20 DUP3 ADD SWAP1 POP DUP2 DUP2 SUB PUSH0 DUP4 ADD MSTORE PUSH2 0x1FCE DUP2 PUSH2 0x1F95 JUMP JUMPDEST SWAP1 POP SWAP2 SWAP1 POP JUMP JUMPDEST PUSH0 DUP2 SWAP1 POP SWAP3 SWAP2 POP POP JUMP JUMPDEST POP JUMP JUMPDEST PUSH0 PUSH2 0x1FED PUSH0 DUP4 PUSH2 0x1FD5 JUMP JUMPDEST SWAP2 POP PUSH2 0x1FF8 DUP3 PUSH2 0x1FDF JUMP JUMPDEST PUSH0 DUP3 ADD SWAP1 POP SWAP2 SWAP1 POP JUMP JUMPDEST PUSH0 PUSH2 0x200C DUP3 PUSH2 0x1FE2 JUMP JUMPDEST SWAP2 POP DUP2 SWAP1 POP SWAP2 SWAP1 POP JUMP JUMPDEST PUSH32 0x4554485F53454E445F4641494C00000000000000000000000000000000000000 PUSH0 DUP3 ADD MSTORE POP JUMP JUMPDEST PUSH0 PUSH2 0x204A PUSH1 0xD DUP4 PUSH2 0x14F9 JUMP JUMPDEST SWAP2 POP PUSH2 0x2055 DUP3 PUSH2 0x2016 JUMP JUMPDEST PUSH1 0x20 DUP3 ADD SWAP1 POP SWAP2 SWAP1 POP JUMP JUMPDEST PUSH0 PUSH1 0x20 DUP3 ADD SWAP1 POP DUP2 DUP2 SUB PUSH0 DUP4 ADD MSTORE PUSH2 0x2077 DUP2 PUSH2 0x203E JUMP JUMPDEST SWAP1 POP SWAP2 SWAP1 POP JUMP JUMPDEST PUSH0 PUSH1 0x40 DUP3 ADD SWAP1 POP PUSH2 0x2091 PUSH0 DUP4 ADD DUP6 PUSH2 0x143C JUMP JUMPDEST PUSH2 0x209E PUSH1 0x20 DUP4 ADD DUP5 PUSH2 0x144B JUMP JUMPDEST SWAP4 SWAP3 POP POP POP JUMP JUMPDEST PUSH0 DUP2 ISZERO ISZERO SWAP1 POP SWAP2 SWAP1 POP JUMP JUMPDEST PUSH2 0x20B9 DUP2 PUSH2 0x20A5 JUMP JUMPDEST DUP2 EQ PUSH2 0x20C3 JUMPI PUSH0 DUP1 REVERT JUMPDEST POP JUMP JUMPDEST PUSH0 DUP2 MLOAD SWAP1 POP PUSH2 0x20D4 DUP2 PUSH2 0x20B0 JUMP JUMPDEST SWAP3 SWAP2 POP POP JUMP JUMPDEST PUSH0 PUSH1 0x20 DUP3 DUP5 SUB SLT ISZERO PUSH2 0x20EF JUMPI PUSH2 0x20EE PUSH2 0x13A6 JUMP JUMPDEST JUMPDEST PUSH0 PUSH2 0x20FC DUP5 DUP3 DUP6 ADD PUSH2 0x20C6 JUMP JUMPDEST SWAP2 POP POP SWAP3 SWAP2 POP POP JUMP JUMPDEST PUSH32 0x45524332305F53454E445F4641494C0000000000000000000000000000000000 PUSH0 DUP3 ADD MSTORE POP JUMP JUMPDEST PUSH0 PUSH2 0x2139 PUSH1 0xF DUP4 PUSH2 0x14F9 JUMP JUMPDEST SWAP2 POP PUSH2 0x2144 DUP3 PUSH2 0x2105 JUMP JUMPDEST PUSH1 0x20 DUP3 ADD SWAP1 POP SWAP2 SWAP1 POP JUMP JUMPDEST PUSH0 PUSH1 0x20 DUP3 ADD SWAP1 POP DUP2 DUP2 SUB PUSH0 DUP4 ADD MSTORE PUSH2 0x2166 DUP2 PUSH2 0x212D JUMP JUMPDEST SWAP1 POP SWAP2 SWAP1 POP JUMP JUMPDEST PUSH32 0x4241445F4554485F414D4F554E54000000000000000000000000000000000000 PUSH0 DUP3 ADD MSTORE POP JUMP JUMPDEST PUSH0 PUSH2 0x21A1 PUSH1 0xE DUP4 PUSH2 0x14F9 JUMP JUMPDEST SWAP2 POP PUSH2 0x21AC DUP3 PUSH2 0x216D JUMP JUMPDEST PUSH1 0x20 DUP3 ADD SWAP1 POP SWAP2 SWAP1 POP JUMP JUMPDEST PUSH0 PUSH1 0x20 DUP3 ADD SWAP1 POP DUP2 DUP2 SUB PUSH0 DUP4 ADD MSTORE PUSH2 0x21CE DUP2 PUSH2 0x2195 JUMP JUMPDEST SWAP1 POP SWAP2 SWAP1 POP JUMP JUMPDEST PUSH0 PUSH1 0x60 DUP3 ADD SWAP1 POP PUSH2 0x21E8 PUSH0 DUP4 ADD DUP7 PUSH2 0x143C JUMP JUMPDEST PUSH2 0x21F5 PUSH1 0x20 DUP4 ADD DUP6 PUSH2 0x143C JUMP JUMPDEST PUSH2 0x2202 PUSH1 0x40 DUP4 ADD DUP5 PUSH2 0x144B JUMP JUMPDEST SWAP5 SWAP4 POP POP POP POP JUMP JUMPDEST PUSH32 0x45524332305F50554C4C5F4641494C0000000000000000000000000000000000 PUSH0 DUP3 ADD MSTORE POP JUMP JUMPDEST PUSH0 PUSH2 0x223E PUSH1 0xF DUP4 PUSH2 0x14F9 JUMP JUMPDEST SWAP2 POP PUSH2 0x2249 DUP3 PUSH2 0x220A JUMP JUMPDEST PUSH1 0x20 DUP3 ADD SWAP1 POP SWAP2 SWAP1 POP JUMP JUMPDEST PUSH0 PUSH1 0x20 DUP3 ADD SWAP1 POP DUP2 DUP2 SUB PUSH0 DUP4 ADD MSTORE PUSH2 0x226B DUP2 PUSH2 0x2232 JUMP JUMPDEST SWAP1 POP SWAP2 SWAP1 POP JUMP INVALID LOG2 PUSH5 0x6970667358 0x22 SLT KECCAK256 0xF 0xE9 CALLDATASIZE 0xE4 BLOBHASH 0xD1 PUSH27 0x5992BAA59D40E9AF1379EA065C3BD16DD644B5DDB6671165C26473 PUSH16 0x6C634300081800330000000000000000 "
				},
				"gasEstimates": {
					"creation": {
						"codeDepositCost": "1774400",
						"executionCost": "23972",
						"totalCost": "1798372"
					},
					"external": {
						"confirmDelivery(uint256)": "infinite",
						"createDeal(address,address,string,uint256,uint256,uint64,address)": "infinite",
						"deals(uint256)": "infinite",
						"fund(uint256)": "infinite",
						"getDeal(uint256)": "infinite",
						"nextDealId()": "2447",
						"refundAfterDeadline(uint256)": "infinite"
					},
					"internal": {
						"_pay(address,address,uint256)": "infinite",
						"_pull(address,address,uint256)": "infinite"
					}
				},
				"methodIdentifiers": {
					"confirmDelivery(uint256)": "fd84cb97",
					"createDeal(address,address,string,uint256,uint256,uint64,address)": "dd3c05e7",
					"deals(uint256)": "03988f84",
					"fund(uint256)": "ca1d209d",
					"getDeal(uint256)": "82fd5bac",
					"nextDealId()": "4d9879e3",
					"refundAfterDeadline(uint256)": "c5f6346d"
				}
			},
			"storageLayout": {
				"storage": [
					{
						"astId": 49,
						"contract": "AgroPay.sol:AgroEscrow",
						"label": "nextDealId",
						"offset": 0,
						"slot": "0",
						"type": "t_uint256"
					},
					{
						"astId": 54,
						"contract": "AgroPay.sol:AgroEscrow",
						"label": "deals",
						"offset": 0,
						"slot": "1",
						"type": "t_mapping(t_uint256,t_struct(Deal)46_storage)"
					}
				],
				"types": {
					"t_address": {
						"encoding": "inplace",
						"label": "address",
						"numberOfBytes": "20"
					},
					"t_enum(Status)28": {
						"encoding": "inplace",
						"label": "enum AgroEscrow.Status",
						"numberOfBytes": "1"
					},
					"t_mapping(t_uint256,t_struct(Deal)46_storage)": {
						"encoding": "mapping",
						"key": "t_uint256",
						"label": "mapping(uint256 => struct AgroEscrow.Deal)",
						"numberOfBytes": "32",
						"value": "t_struct(Deal)46_storage"
					},
					"t_string_storage": {
						"encoding": "bytes",
						"label": "string",
						"numberOfBytes": "32"
					},
					"t_struct(Deal)46_storage": {
						"encoding": "inplace",
						"label": "struct AgroEscrow.Deal",
						"members": [
							{
								"astId": 30,
								"contract": "AgroPay.sol:AgroEscrow",
								"label": "buyer",
								"offset": 0,
								"slot": "0",
								"type": "t_address"
							},
							{
								"astId": 32,
								"contract": "AgroPay.sol:AgroEscrow",
								"label": "seller",
								"offset": 0,
								"slot": "1",
								"type": "t_address"
							},
							{
								"astId": 34,
								"contract": "AgroPay.sol:AgroEscrow",
								"label": "token",
								"offset": 0,
								"slot": "2",
								"type": "t_address"
							},
							{
								"astId": 36,
								"contract": "AgroPay.sol:AgroEscrow",
								"label": "price",
								"offset": 0,
								"slot": "3",
								"type": "t_uint256"
							},
							{
								"astId": 38,
								"contract": "AgroPay.sol:AgroEscrow",
								"label": "deadline",
								"offset": 0,
								"slot": "4",
								"type": "t_uint64"
							},
							{
								"astId": 41,
								"contract": "AgroPay.sol:AgroEscrow",
								"label": "status",
								"offset": 8,
								"slot": "4",
								"type": "t_enum(Status)28"
							},
							{
								"astId": 43,
								"contract": "AgroPay.sol:AgroEscrow",
								"label": "commodity",
								"offset": 0,
								"slot": "5",
								"type": "t_string_storage"
							},
							{
								"astId": 45,
								"contract": "AgroPay.sol:AgroEscrow",
								"label": "quantity",
								"offset": 0,
								"slot": "6",
								"type": "t_uint256"
							}
						],
						"numberOfBytes": "224"
					},
					"t_uint256": {
						"encoding": "inplace",
						"label": "uint256",
						"numberOfBytes": "32"
					},
					"t_uint64": {
						"encoding": "inplace",
						"label": "uint64",
						"numberOfBytes": "8"
					}
				}
			},
			"userdoc": {
				"kind": "user",
				"methods": {},
				"version": 1
			}
		}
	}
}